{
  "contractName": "ItemNotary",
  "abi": [
    {
      "inputs": [],
      "payable": false,
      "stateMutability": "nonpayable",
      "type": "constructor"
    },
    {
      "anonymous": false,
      "inputs": [
        {
          "indexed": true,
          "internalType": "address",
          "name": "previousOwner",
          "type": "address"
        },
        {
          "indexed": true,
          "internalType": "address",
          "name": "newOwner",
          "type": "address"
        }
      ],
      "name": "OwnershipTransferred",
      "type": "event"
    },
    {
      "anonymous": false,
      "inputs": [
        {
          "indexed": true,
          "internalType": "address",
          "name": "oldRelayHub",
          "type": "address"
        },
        {
          "indexed": true,
          "internalType": "address",
          "name": "newRelayHub",
          "type": "address"
        }
      ],
      "name": "RelayHubChanged",
      "type": "event"
    },
    {
      "anonymous": false,
      "inputs": [
        {
          "indexed": false,
          "internalType": "bytes32",
          "name": "itemHash",
          "type": "bytes32"
        }
      ],
      "name": "addedItem",
      "type": "event"
    },
    {
      "anonymous": false,
      "inputs": [
        {
          "indexed": false,
          "internalType": "address",
          "name": "foo",
          "type": "address"
        }
      ],
      "name": "testSomething",
      "type": "event"
    },
    {
      "anonymous": false,
      "inputs": [
        {
          "indexed": false,
          "internalType": "address",
          "name": "",
          "type": "address"
        }
      ],
      "name": "updatedRegistry",
      "type": "event"
    },
    {
      "payable": true,
      "stateMutability": "payable",
      "type": "fallback"
    },
    {
      "constant": true,
      "inputs": [],
      "name": "getHubAddr",
      "outputs": [
        {
          "internalType": "address",
          "name": "",
          "type": "address"
        }
      ],
      "payable": false,
      "stateMutability": "view",
      "type": "function"
    },
    {
      "constant": true,
      "inputs": [],
      "name": "isOwner",
      "outputs": [
        {
          "internalType": "bool",
          "name": "",
          "type": "bool"
        }
      ],
      "payable": false,
      "stateMutability": "view",
      "type": "function"
    },
    {
      "constant": true,
      "inputs": [
        {
          "internalType": "address",
          "name": "_addr",
          "type": "address"
        }
      ],
      "name": "isRegistered",
      "outputs": [
        {
          "internalType": "bool",
          "name": "",
          "type": "bool"
        }
      ],
      "payable": false,
      "stateMutability": "view",
      "type": "function"
    },
    {
      "constant": true,
      "inputs": [],
      "name": "owner",
      "outputs": [
        {
          "internalType": "address",
          "name": "",
          "type": "address"
        }
      ],
      "payable": false,
      "stateMutability": "view",
      "type": "function"
    },
    {
      "constant": false,
      "inputs": [
        {
          "internalType": "bytes",
          "name": "context",
          "type": "bytes"
        },
        {
          "internalType": "bool",
          "name": "success",
          "type": "bool"
        },
        {
          "internalType": "uint256",
          "name": "actualCharge",
          "type": "uint256"
        },
        {
          "internalType": "bytes32",
          "name": "preRetVal",
          "type": "bytes32"
        }
      ],
      "name": "postRelayedCall",
      "outputs": [],
      "payable": false,
      "stateMutability": "nonpayable",
      "type": "function"
    },
    {
      "constant": false,
      "inputs": [
        {
          "internalType": "bytes",
          "name": "context",
          "type": "bytes"
        }
      ],
      "name": "preRelayedCall",
      "outputs": [
        {
          "internalType": "bytes32",
          "name": "",
          "type": "bytes32"
        }
      ],
      "payable": false,
      "stateMutability": "nonpayable",
      "type": "function"
    },
    {
      "constant": true,
      "inputs": [],
      "name": "relayHubVersion",
      "outputs": [
        {
          "internalType": "string",
          "name": "",
          "type": "string"
        }
      ],
      "payable": false,
      "stateMutability": "view",
      "type": "function"
    },
    {
      "constant": false,
      "inputs": [],
      "name": "renounceOwnership",
      "outputs": [],
      "payable": false,
      "stateMutability": "nonpayable",
      "type": "function"
    },
    {
      "constant": false,
      "inputs": [
        {
          "internalType": "address",
          "name": "newOwner",
          "type": "address"
        }
      ],
      "name": "transferOwnership",
      "outputs": [],
      "payable": false,
      "stateMutability": "nonpayable",
      "type": "function"
    },
    {
      "constant": false,
      "inputs": [
        {
          "internalType": "address",
          "name": "_addr",
          "type": "address"
        },
        {
          "internalType": "bool",
          "name": "_active",
          "type": "bool"
        }
      ],
      "name": "updateRegistry",
      "outputs": [],
      "payable": false,
      "stateMutability": "nonpayable",
      "type": "function"
    },
    {
      "constant": false,
      "inputs": [
        {
          "internalType": "bytes32",
          "name": "_itemHash",
          "type": "bytes32"
        },
        {
          "internalType": "uint8",
          "name": "_itemType",
          "type": "uint8"
        },
        {
          "internalType": "string",
          "name": "_link",
          "type": "string"
        },
        {
          "internalType": "bytes",
          "name": "_signature",
          "type": "bytes"
        }
      ],
      "name": "storeItem",
      "outputs": [],
      "payable": false,
      "stateMutability": "nonpayable",
      "type": "function"
    },
    {
      "constant": true,
      "inputs": [
        {
          "internalType": "bytes32",
          "name": "_itemHash",
          "type": "bytes32"
        }
      ],
      "name": "getItem",
      "outputs": [
        {
          "internalType": "bytes32",
          "name": "itemHash",
          "type": "bytes32"
        },
        {
          "internalType": "uint8",
          "name": "itemType",
          "type": "uint8"
        },
        {
          "internalType": "string",
          "name": "link",
          "type": "string"
        },
        {
          "internalType": "bytes",
          "name": "signature",
          "type": "bytes"
        }
      ],
      "payable": false,
      "stateMutability": "view",
      "type": "function"
    },
    {
      "constant": true,
      "inputs": [
        {
          "internalType": "bytes32",
          "name": "_itemHash",
          "type": "bytes32"
        }
      ],
      "name": "isItem",
      "outputs": [
        {
          "internalType": "bool",
          "name": "",
          "type": "bool"
        }
      ],
      "payable": false,
      "stateMutability": "view",
      "type": "function"
    },
    {
      "constant": true,
      "inputs": [
        {
          "internalType": "bytes32",
          "name": "_itemHash",
          "type": "bytes32"
        }
      ],
      "name": "getItemType",
      "outputs": [
        {
          "internalType": "uint8",
          "name": "",
          "type": "uint8"
        }
      ],
      "payable": false,
      "stateMutability": "view",
      "type": "function"
    },
    {
      "constant": true,
      "inputs": [
        {
          "internalType": "bytes32",
          "name": "_itemHash",
          "type": "bytes32"
        }
      ],
      "name": "getItemLink",
      "outputs": [
        {
          "internalType": "string",
          "name": "link",
          "type": "string"
        }
      ],
      "payable": false,
      "stateMutability": "view",
      "type": "function"
    },
    {
      "constant": true,
      "inputs": [
        {
          "internalType": "bytes32",
          "name": "_itemHash",
          "type": "bytes32"
        }
      ],
      "name": "getItemSig",
      "outputs": [
        {
          "internalType": "bytes",
          "name": "",
          "type": "bytes"
        }
      ],
      "payable": false,
      "stateMutability": "view",
      "type": "function"
    },
    {
      "constant": true,
      "inputs": [
        {
          "internalType": "address",
          "name": "relay",
          "type": "address"
        },
        {
          "internalType": "address",
          "name": "from",
          "type": "address"
        },
        {
          "internalType": "bytes",
          "name": "encodedFunction",
          "type": "bytes"
        },
        {
          "internalType": "uint256",
          "name": "transactionFee",
          "type": "uint256"
        },
        {
          "internalType": "uint256",
          "name": "gasPrice",
          "type": "uint256"
        },
        {
          "internalType": "uint256",
          "name": "gasLimit",
          "type": "uint256"
        },
        {
          "internalType": "uint256",
          "name": "nonce",
          "type": "uint256"
        },
        {
          "internalType": "bytes",
          "name": "approvalData",
          "type": "bytes"
        },
        {
          "internalType": "uint256",
          "name": "maxPossibleCharge",
          "type": "uint256"
        }
      ],
      "name": "acceptRelayedCall",
      "outputs": [
        {
          "internalType": "uint256",
          "name": "",
          "type": "uint256"
        },
        {
          "internalType": "bytes",
          "name": "",
          "type": "bytes"
        }
      ],
      "payable": false,
      "stateMutability": "view",
      "type": "function"
    },
    {
      "constant": true,
      "inputs": [
        {
          "internalType": "bytes32",
          "name": "_itemHash",
          "type": "bytes32"
        }
      ],
      "name": "senderIsSigner",
      "outputs": [
        {
          "internalType": "bool",
          "name": "",
          "type": "bool"
        }
      ],
      "payable": false,
      "stateMutability": "view",
      "type": "function"
    },
    {
      "constant": true,
      "inputs": [
        {
          "internalType": "address",
          "name": "_address",
          "type": "address"
        },
        {
          "internalType": "bytes32",
          "name": "_itemHash",
          "type": "bytes32"
        }
      ],
      "name": "addressIsSigner",
      "outputs": [
        {
          "internalType": "bool",
          "name": "",
          "type": "bool"
        }
      ],
      "payable": false,
      "stateMutability": "view",
      "type": "function"
    }
  ],
  "bytecode": "0x608060405273d216153c06e857cd7f72665e0af1d7d82172f494600160006101000a81548173ffffffffffffffffffffffffffffffffffffffff021916908373ffffffffffffffffffffffffffffffffffffffff1602179055503480156200006657600080fd5b50620000776200013860201b60201c565b6000806101000a81548173ffffffffffffffffffffffffffffffffffffffff021916908373ffffffffffffffffffffffffffffffffffffffff1602179055506000809054906101000a900473ffffffffffffffffffffffffffffffffffffffff1673ffffffffffffffffffffffffffffffffffffffff16600073ffffffffffffffffffffffffffffffffffffffff167f8be0079c531659141344cd1fd0a4f28419497f9722a3daafe3b4186f6b6457e060405160405180910390a362000227565b6000600160009054906101000a900473ffffffffffffffffffffffffffffffffffffffff1673ffffffffffffffffffffffffffffffffffffffff163373ffffffffffffffffffffffffffffffffffffffff16146200019957339050620001ac565b620001a9620001af60201b60201c565b90505b90565b600060606000368080601f016020809104026020016040519081016040528093929190818152602001838380828437600081840152601f19601f820116905080830192505050505050509050600080369050905073ffffffffffffffffffffffffffffffffffffffff81830151169250829250505090565b61225780620002376000396000f3fe6080604052600436106101145760003560e01c80638f32d59b116100a0578063c5552c7411610064578063c5552c7414610427578063d84ef68714610450578063e06e0e221461048d578063e0b2f599146104b6578063f2fde38b146104f357610114565b80638f32d59b14610317578063aa0372e714610342578063ad61ccd514610382578063c00277fb146103ad578063c3c5a547146103ea57610114565b8063746756e9116100e7578063746756e91461020957806374e861d61461024657806380274db71461027157806383947ea0146102ae5780638da5cb5b146102ec57610114565b8063066e1e141461014f5780632d71baa21461018c578063341fb2d6146101b5578063715018a6146101f2575b6040517f08c379a000000000000000000000000000000000000000000000000000000000815260040161014690611f32565b60405180910390fd5b34801561015b57600080fd5b50610176600480360361017191908101906117f2565b61051c565b6040516101839190611da0565b60405180910390f35b34801561019857600080fd5b506101b360048036036101ae919081019061181b565b610536565b005b3480156101c157600080fd5b506101dc60048036036101d791908101906117f2565b6106ec565b6040516101e99190611e6e565b60405180910390f35b3480156101fe57600080fd5b506102076107a4565b005b34801561021557600080fd5b50610230600480360361022b91908101906117f2565b6108aa565b60405161023d9190611e90565b60405180910390f35b34801561025257600080fd5b5061025b610962565b6040516102689190611d85565b60405180910390f35b34801561027d57600080fd5b50610298600480360361029391908101906118ae565b61098c565b6040516102a59190611dbb565b60405180910390f35b3480156102ba57600080fd5b506102d560048036036102d0919081019061167a565b610a58565b6040516102e3929190611fd2565b60405180910390f35b3480156102f857600080fd5b50610301610a8a565b60405161030e9190611d85565b60405180910390f35b34801561032357600080fd5b5061032c610ab3565b6040516103399190611da0565b60405180910390f35b34801561034e57600080fd5b50610369600480360361036491908101906117f2565b610b11565b6040516103799493929190611e1b565b60405180910390f35b34801561038e57600080fd5b50610397610b42565b6040516103a49190611e90565b60405180910390f35b3480156103b957600080fd5b506103d460048036036103cf91908101906117f2565b610b7f565b6040516103e19190611da0565b60405180910390f35b3480156103f657600080fd5b50610411600480360361040c9190810190611651565b610bb1565b60405161041e9190611da0565b60405180910390f35b34801561043357600080fd5b5061044e6004803603610449919081019061177a565b610c07565b005b34801561045c57600080fd5b50610477600480360361047291908101906117b6565b610ce0565b6040516104849190611da0565b60405180910390f35b34801561049957600080fd5b506104b460048036036104af91908101906118f3565b610ede565b005b3480156104c257600080fd5b506104dd60048036036104d891908101906117f2565b610faa565b6040516104ea9190612002565b60405180910390f35b3480156104ff57600080fd5b5061051a60048036036105159190810190611651565b610fd7565b005b600061052f61052961102a565b83610ce0565b9050919050565b61054661054161102a565b610bb1565b610585576040517f08c379a000000000000000000000000000000000000000000000000000000000815260040161057c90611f72565b60405180910390fd5b60008360ff16116105cb576040517f08c379a00000000000000000000000000000000000000000000000000000000081526004016105c290611f12565b60405180910390fd5b6105d484610b7f565b15610614576040517f08c379a000000000000000000000000000000000000000000000000000000000815260040161060b90611fb2565b60405180910390fd5b61061c6113ad565b60405180606001604052808560ff168152602001848152602001838152509050806003600087815260200190815260200160002060008201518160000160006101000a81548160ff021916908360ff160217905550602082015181600101908051906020019061068d9291906113d1565b5060408201518160020190805190602001906106aa929190611451565b509050507f351e5d0cad7bc76760c9be0a0ed708768225aac9fd434422fb126edd014a42df856040516106dd9190611dbb565b60405180910390a15050505050565b6060600360008381526020019081526020016000206002018054600181600116156101000203166002900480601f0160208091040260200160405190810160405280929190818152602001828054600181600116156101000203166002900480156107985780601f1061076d57610100808354040283529160200191610798565b820191906000526020600020905b81548152906001019060200180831161077b57829003601f168201915b50505050509050919050565b6107ac610ab3565b6107eb576040517f08c379a00000000000000000000000000000000000000000000000000000000081526004016107e290611f52565b60405180910390fd5b600073ffffffffffffffffffffffffffffffffffffffff166000809054906101000a900473ffffffffffffffffffffffffffffffffffffffff1673ffffffffffffffffffffffffffffffffffffffff167f8be0079c531659141344cd1fd0a4f28419497f9722a3daafe3b4186f6b6457e060405160405180910390a360008060006101000a81548173ffffffffffffffffffffffffffffffffffffffff021916908373ffffffffffffffffffffffffffffffffffffffff160217905550565b6060600360008381526020019081526020016000206001018054600181600116156101000203166002900480601f0160208091040260200160405190810160405280929190818152602001828054600181600116156101000203166002900480156109565780601f1061092b57610100808354040283529160200191610956565b820191906000526020600020905b81548152906001019060200180831161093957829003601f168201915b50505050509050919050565b6000600160009054906101000a900473ffffffffffffffffffffffffffffffffffffffff16905090565b6000610996610962565b73ffffffffffffffffffffffffffffffffffffffff163373ffffffffffffffffffffffffffffffffffffffff1614610a03576040517f08c379a00000000000000000000000000000000000000000000000000000000081526004016109fa90611f92565b60405180910390fd5b610a5083838080601f016020809104026020016040519081016040528093929190818152602001838380828437600081840152601f19601f82011690508083019250505050505050611097565b905092915050565b60006060610a658c610bb1565b610a6e57600080fd5b610a7661109e565b915091509b509b9950505050505050505050565b60008060009054906101000a900473ffffffffffffffffffffffffffffffffffffffff16905090565b60008060009054906101000a900473ffffffffffffffffffffffffffffffffffffffff1673ffffffffffffffffffffffffffffffffffffffff16610af561102a565b73ffffffffffffffffffffffffffffffffffffffff1614905090565b60008060608084610b2186610faa565b610b2a876108aa565b610b33886106ec565b93509350935093509193509193565b60606040518060400160405280600581526020017f312e302e30000000000000000000000000000000000000000000000000000000815250905090565b6000806003600084815260200190815260200160002060000160009054906101000a900460ff1660ff16119050919050565b6000600260008373ffffffffffffffffffffffffffffffffffffffff1673ffffffffffffffffffffffffffffffffffffffff16815260200190815260200160002060009054906101000a900460ff169050919050565b610c0f610ab3565b610c4e576040517f08c379a0000000000000000000000000000000000000000000000000000000008152600401610c4590611f52565b60405180910390fd5b80600260008473ffffffffffffffffffffffffffffffffffffffff1673ffffffffffffffffffffffffffffffffffffffff16815260200190815260200160002060006101000a81548160ff0219169083151502179055507f4a249455b9cbb17d2537cf8b10b48f47d4a3662fa15715680e3488480c7df20f82604051610cd49190611d85565b60405180910390a15050565b600060056007811115610cef57fe5b6003600084815260200190815260200160002060000160009054906101000a900460ff1660ff166007811115610d2157fe5b6007811115610d2c57fe5b14610d6c576040517f08c379a0000000000000000000000000000000000000000000000000000000008152600401610d6390611ed2565b60405180910390fd5b60006003600084815260200190815260200160002060020180546001816001161561010002031660029004905011610dd9576040517f08c379a0000000000000000000000000000000000000000000000000000000008152600401610dd090611eb2565b60405180910390fd5b6000610de4836110c2565b9050610ea7600360008581526020019081526020016000206002018054600181600116156101000203166002900480601f016020809104026020016040519081016040528092919081815260200182805460018160011615610100020316600290048015610e935780601f10610e6857610100808354040283529160200191610e93565b820191906000526020600020905b815481529060010190602001808311610e7657829003601f168201915b5050505050826110f290919063ffffffff16565b73ffffffffffffffffffffffffffffffffffffffff168473ffffffffffffffffffffffffffffffffffffffff161491505092915050565b610ee6610962565b73ffffffffffffffffffffffffffffffffffffffff163373ffffffffffffffffffffffffffffffffffffffff1614610f53576040517f08c379a0000000000000000000000000000000000000000000000000000000008152600401610f4a90611f92565b60405180910390fd5b610fa385858080601f016020809104026020016040519081016040528093929190818152602001838380828437600081840152601f19601f820116905080830192505050505050508484846111f1565b5050505050565b60006003600083815260200190815260200160002060000160009054906101000a900460ff169050919050565b610fdf610ab3565b61101e576040517f08c379a000000000000000000000000000000000000000000000000000000000815260040161101590611f52565b60405180910390fd5b611027816111f7565b50565b6000600160009054906101000a900473ffffffffffffffffffffffffffffffffffffffff1673ffffffffffffffffffffffffffffffffffffffff163373ffffffffffffffffffffffffffffffffffffffff161461108957339050611094565b611091611325565b90505b90565b6000919050565b600060606110ba6040518060200160405280600081525061139d565b915091509091565b6000816040516020016110d59190611d5f565b604051602081830303815290604052805190602001209050919050565b6000604182511461110657600090506111eb565b60008060006020850151925060408501519150606085015160001a90507f7fffffffffffffffffffffffffffffff5d576e7357a4501ddfe92f46681b20a08260001c111561115a57600093505050506111eb565b601b8160ff16101561116d57601b810190505b601b8160ff16141580156111855750601c8160ff1614155b1561119657600093505050506111eb565b600186828585604051600081526020016040526040516111b99493929190611dd6565b6020604051602081039080840390855afa1580156111db573d6000803e3d6000fd5b5050506020604051035193505050505b92915050565b50505050565b600073ffffffffffffffffffffffffffffffffffffffff168173ffffffffffffffffffffffffffffffffffffffff161415611267576040517f08c379a000000000000000000000000000000000000000000000000000000000815260040161125e90611ef2565b60405180910390fd5b8073ffffffffffffffffffffffffffffffffffffffff166000809054906101000a900473ffffffffffffffffffffffffffffffffffffffff1673ffffffffffffffffffffffffffffffffffffffff167f8be0079c531659141344cd1fd0a4f28419497f9722a3daafe3b4186f6b6457e060405160405180910390a3806000806101000a81548173ffffffffffffffffffffffffffffffffffffffff021916908373ffffffffffffffffffffffffffffffffffffffff16021790555050565b600060606000368080601f016020809104026020016040519081016040528093929190818152602001838380828437600081840152601f19601f820116905080830192505050505050509050600080369050905073ffffffffffffffffffffffffffffffffffffffff81830151169250829250505090565b6000606060008391509150915091565b6040518060600160405280600060ff16815260200160608152602001606081525090565b828054600181600116156101000203166002900490600052602060002090601f016020900481019282601f1061141257805160ff1916838001178555611440565b82800160010185558215611440579182015b8281111561143f578251825591602001919060010190611424565b5b50905061144d91906114d1565b5090565b828054600181600116156101000203166002900490600052602060002090601f016020900481019282601f1061149257805160ff19168380011785556114c0565b828001600101855582156114c0579182015b828111156114bf5782518255916020019190600101906114a4565b5b5090506114cd91906114d1565b5090565b6114f391905b808211156114ef5760008160009055506001016114d7565b5090565b90565b600081359050611505816121a1565b92915050565b60008135905061151a816121b8565b92915050565b60008135905061152f816121cf565b92915050565b60008083601f84011261154757600080fd5b8235905067ffffffffffffffff81111561156057600080fd5b60208301915083600182028301111561157857600080fd5b9250929050565b600082601f83011261159057600080fd5b81356115a361159e8261204a565b61201d565b915080825260208301602083018583830111156115bf57600080fd5b6115ca838284612144565b50505092915050565b600082601f8301126115e457600080fd5b81356115f76115f282612076565b61201d565b9150808252602083016020830185838301111561161357600080fd5b61161e838284612144565b50505092915050565b600081359050611636816121e6565b92915050565b60008135905061164b816121fd565b92915050565b60006020828403121561166357600080fd5b6000611671848285016114f6565b91505092915050565b60008060008060008060008060008060006101208c8e03121561169c57600080fd5b60006116aa8e828f016114f6565b9b505060206116bb8e828f016114f6565b9a505060408c013567ffffffffffffffff8111156116d857600080fd5b6116e48e828f01611535565b995099505060606116f78e828f01611627565b97505060806117088e828f01611627565b96505060a06117198e828f01611627565b95505060c061172a8e828f01611627565b94505060e08c013567ffffffffffffffff81111561174757600080fd5b6117538e828f01611535565b93509350506101006117678e828f01611627565b9150509295989b509295989b9093969950565b6000806040838503121561178d57600080fd5b600061179b858286016114f6565b92505060206117ac8582860161150b565b9150509250929050565b600080604083850312156117c957600080fd5b60006117d7858286016114f6565b92505060206117e885828601611520565b9150509250929050565b60006020828403121561180457600080fd5b600061181284828501611520565b91505092915050565b6000806000806080858703121561183157600080fd5b600061183f87828801611520565b94505060206118508782880161163c565b935050604085013567ffffffffffffffff81111561186d57600080fd5b611879878288016115d3565b925050606085013567ffffffffffffffff81111561189657600080fd5b6118a28782880161157f565b91505092959194509250565b600080602083850312156118c157600080fd5b600083013567ffffffffffffffff8111156118db57600080fd5b6118e785828601611535565b92509250509250929050565b60008060008060006080868803121561190b57600080fd5b600086013567ffffffffffffffff81111561192557600080fd5b61193188828901611535565b955095505060206119448882890161150b565b935050604061195588828901611627565b925050606061196688828901611520565b9150509295509295909350565b61197c816120e5565b82525050565b61198b816120f7565b82525050565b61199a81612103565b82525050565b6119b16119ac82612103565b612186565b82525050565b60006119c2826120a2565b6119cc81856120b8565b93506119dc818560208601612153565b6119e581612190565b840191505092915050565b60006119fb826120ad565b611a0581856120c9565b9350611a15818560208601612153565b611a1e81612190565b840191505092915050565b6000611a366015836120c9565b91507f4e6f207369676e61747572652070726f766964656400000000000000000000006000830152602082019050919050565b6000611a76601c836120da565b91507f19457468657265756d205369676e6564204d6573736167653a0a3332000000006000830152601c82019050919050565b6000611ab66023836120c9565b91507f4974656d73206973206e6f74206f6620747970652045746848617368506c757360008301527f53696700000000000000000000000000000000000000000000000000000000006020830152604082019050919050565b6000611b1c6026836120c9565b91507f4f776e61626c653a206e6577206f776e657220697320746865207a65726f206160008301527f64647265737300000000000000000000000000000000000000000000000000006020830152604082019050919050565b6000611b826023836120c9565b91507f4974656d2074797065206d757374206265206120706f736974697665206e756d60008301527f62657200000000000000000000000000000000000000000000000000000000006020830152604082019050919050565b6000611be8601f836120c9565b91507f546869732077616c6c657420646f6573206e6f742061636365707420457468006000830152602082019050919050565b6000611c286020836120c9565b91507f4f776e61626c653a2063616c6c6572206973206e6f7420746865206f776e65726000830152602082019050919050565b6000611c686016836120c9565b91507f4163636f756e74206e6f742072656769737465726564000000000000000000006000830152602082019050919050565b6000611ca86024836120c9565b91507f47534e526563697069656e743a2063616c6c6572206973206e6f742052656c6160008301527f79487562000000000000000000000000000000000000000000000000000000006020830152604082019050919050565b6000611d0e6013836120c9565b91507f4974656d20616c726561647920657869737473000000000000000000000000006000830152602082019050919050565b611d4a8161212d565b82525050565b611d5981612137565b82525050565b6000611d6a82611a69565b9150611d7682846119a0565b60208201915081905092915050565b6000602082019050611d9a6000830184611973565b92915050565b6000602082019050611db56000830184611982565b92915050565b6000602082019050611dd06000830184611991565b92915050565b6000608082019050611deb6000830187611991565b611df86020830186611d50565b611e056040830185611991565b611e126060830184611991565b95945050505050565b6000608082019050611e306000830187611991565b611e3d6020830186611d50565b8181036040830152611e4f81856119f0565b90508181036060830152611e6381846119b7565b905095945050505050565b60006020820190508181036000830152611e8881846119b7565b905092915050565b60006020820190508181036000830152611eaa81846119f0565b905092915050565b60006020820190508181036000830152611ecb81611a29565b9050919050565b60006020820190508181036000830152611eeb81611aa9565b9050919050565b60006020820190508181036000830152611f0b81611b0f565b9050919050565b60006020820190508181036000830152611f2b81611b75565b9050919050565b60006020820190508181036000830152611f4b81611bdb565b9050919050565b60006020820190508181036000830152611f6b81611c1b565b9050919050565b60006020820190508181036000830152611f8b81611c5b565b9050919050565b60006020820190508181036000830152611fab81611c9b565b9050919050565b60006020820190508181036000830152611fcb81611d01565b9050919050565b6000604082019050611fe76000830185611d41565b8181036020830152611ff981846119b7565b90509392505050565b60006020820190506120176000830184611d50565b92915050565b6000604051905081810181811067ffffffffffffffff8211171561204057600080fd5b8060405250919050565b600067ffffffffffffffff82111561206157600080fd5b601f19601f8301169050602081019050919050565b600067ffffffffffffffff82111561208d57600080fd5b601f19601f8301169050602081019050919050565b600081519050919050565b600081519050919050565b600082825260208201905092915050565b600082825260208201905092915050565b600081905092915050565b60006120f08261210d565b9050919050565b60008115159050919050565b6000819050919050565b600073ffffffffffffffffffffffffffffffffffffffff82169050919050565b6000819050919050565b600060ff82169050919050565b82818337600083830152505050565b60005b83811015612171578082015181840152602081019050612156565b83811115612180576000848401525b50505050565b6000819050919050565b6000601f19601f8301169050919050565b6121aa816120e5565b81146121b557600080fd5b50565b6121c1816120f7565b81146121cc57600080fd5b50565b6121d881612103565b81146121e357600080fd5b50565b6121ef8161212d565b81146121fa57600080fd5b50565b61220681612137565b811461221157600080fd5b5056fea365627a7a7231582016eb9c9c5397e1ae642ad50286afee0ec8408356c6ddf49e9bf76517d31816316c6578706572696d656e74616cf564736f6c63430005100040",
  "source": "pragma solidity ^0.5.16;\npragma experimental ABIEncoderV2;\n\nimport \"@openzeppelin/contracts/ownership/Ownable.sol\";\nimport \"@openzeppelin/contracts/GSN/GSNRecipient.sol\";\nimport \"./ECDSA.sol\";\n\ncontract Registry is Ownable, GSNRecipient {\n\n    mapping(address => bool) registered;\n\n    event updatedRegistry(address);\n\n    function isRegistered(address _addr) public view returns (bool) {\n        return registered[_addr];\n    }\n\n    function updateRegistry(address _addr, bool _active) public onlyOwner {\n        registered[_addr] = _active;\n        emit updatedRegistry(_addr);\n    }\n}\n\ncontract ItemNotary is Registry {\n\n    using ECDSA for bytes32;\n\n    enum ItemTypes {Invalid, Exists, Sha256, Sha3, EthSig, Sha3PlusEthSig, Passphrase, Other}\n\n    struct Item {\n        uint8 itemType; //\n        string url; // optional\n        // Only if on-chain proof required\n        bytes signature; // optional\n    }\n\n    mapping(bytes32 => Item) items;\n\n    event addedItem(bytes32 itemHash);\n    event testSomething(address foo);\n\n    constructor() public {}\n\n    function()\n    external\n    payable\n    {\n        revert('This wallet does not accept Eth');\n    }\n\n    function storeItem(bytes32 _itemHash, uint8 _itemType, string memory _link, bytes memory _signature)\n    public\n    {\n        require(isRegistered(_msgSender()), \"Account not registered\");\n        require(_itemType > 0, \"Item type must be a positive number\");\n        require(!isItem(_itemHash), \"Item already exists\");\n\n        Item memory item = Item(_itemType, _link, _signature);\n        items[_itemHash] = item;\n        emit addedItem(_itemHash);\n    }\n\n    function getItem(bytes32 _itemHash)\n    public\n    view\n    returns\n    (bytes32 itemHash, uint8 itemType, string memory link, bytes memory signature)\n    {\n        return (_itemHash, getItemType(_itemHash), getItemLink(_itemHash), getItemSig(_itemHash));\n    }\n\n    function isItem(bytes32 _itemHash)\n    public\n    view\n    returns\n    (bool)\n    {\n        return (items[_itemHash].itemType > 0);\n    }\n\n    function getItemType(bytes32 _itemHash)\n    public\n    view\n    returns\n    (uint8)\n    {\n        return items[_itemHash].itemType;\n    }\n\n    function getItemLink(bytes32 _itemHash)\n    public\n    view\n    returns\n    (string memory link)\n    {\n        return items[_itemHash].url;\n    }\n\n    function getItemSig(bytes32 _itemHash)\n    public\n    view\n    returns\n    (bytes memory)\n    {\n        return items[_itemHash].signature;\n    }\n\n    /**\n     * Only applicable if use is the owner...\n     */\n//    function tradeThisItem(bytes32 _itemHash)\n//    public\n//    {\n//        require(isRegistered(_msgSender()));\n//        //require(proof of ownership)\n//        // transfer\n//    }\n\n    function acceptRelayedCall(\n        address relay,\n        address from,\n        bytes calldata encodedFunction,\n        uint256 transactionFee,\n        uint256 gasPrice,\n        uint256 gasLimit,\n        uint256 nonce,\n        bytes calldata approvalData,\n        uint256 maxPossibleCharge\n    )\n    external\n    view\n    returns\n    (uint256, bytes memory)\n    {\n        require(isRegistered(from));\n\n//        require(isRegistered(_msgSender()));\n        // require gas\n        // transaction fee\n        // max possible charge\n        return _approveRelayedCall();\n    }\n\n\n    function _preRelayedCall(bytes memory context)\n    internal\n    returns\n    (bytes32)\n    {\n        // not implemented\n    }\n\n    function _postRelayedCall(bytes memory context, bool, uint256 actualCharge, bytes32)\n    internal\n    {\n        // @todo actual charge\n    }\n\n    function senderIsSigner(bytes32 _itemHash)\n    public\n    view\n    returns\n    (bool)\n    {\n        return (addressIsSigner(_msgSender(), _itemHash));\n    }\n\n    function addressIsSigner(address _address, bytes32 _itemHash)\n    public\n    view\n    returns\n    (bool)\n    {\n        require(ItemTypes(items[_itemHash].itemType) == ItemTypes.Sha3PlusEthSig, \"Items is not of type EthHashPlusSig\");\n        require(items[_itemHash].signature.length > 0, \"No signature provided\"); // @note length returns true in 0.6\n\n        bytes32 prefixedHash = _itemHash.toEthSignedMessageHash();\n        return _address == prefixedHash.recover(items[_itemHash].signature);\n    }\n}\n\n",
  "sourcePath": "/Users/x/Documents/webs/notariseMe/contracts/contracts/ItemNotary.sol",
  "compiler": {
    "name": "solc",
    "version": "0.5.16+commit.9c3226ce.Emscripten.clang"
  },
  "schemaVersion": "3.0.23",
  "updatedAt": "2020-03-17T22:28:39.411Z",
  "networkType": "ethereum",
  "devdoc": {
    "methods": {
      "getHubAddr()": {
        "details": "Returns the address of the {IRelayHub} contract for this recipient."
      },
      "isOwner()": {
        "details": "Returns true if the caller is the current owner."
      },
      "owner()": {
        "details": "Returns the address of the current owner."
      },
      "postRelayedCall(bytes,bool,uint256,bytes32)": {
        "details": "See `IRelayRecipient.postRelayedCall`.     * This function should not be overriden directly, use `_postRelayedCall` instead.     * * Requirements:     * - the caller must be the `RelayHub` contract."
      },
      "preRelayedCall(bytes)": {
        "details": "See `IRelayRecipient.preRelayedCall`.     * This function should not be overriden directly, use `_preRelayedCall` instead.     * * Requirements:     * - the caller must be the `RelayHub` contract."
      },
      "relayHubVersion()": {
        "details": "Returns the version string of the {IRelayHub} for which this recipient implementation was built. If {_upgradeRelayHub} is used, the new {IRelayHub} instance should be compatible with this version."
      },
      "renounceOwnership()": {
        "details": "Leaves the contract without owner. It will not be possible to call `onlyOwner` functions anymore. Can only be called by the current owner.     * NOTE: Renouncing ownership will leave the contract without an owner, thereby removing any functionality that is only available to the owner."
      },
      "transferOwnership(address)": {
        "details": "Transfers ownership of the contract to a new account (`newOwner`). Can only be called by the current owner."
      }
    }
  },
  "userdoc": {
    "methods": {
      "acceptRelayedCall(address,address,bytes,uint256,uint256,uint256,uint256,bytes,uint256)": {
        "notice": "Only applicable if use is the owner..."
      }
    }
  }
}