{
  "contractName": "ItemNotary",
  "abi": [
    {
      "inputs": [],
      "payable": false,
      "stateMutability": "nonpayable",
      "type": "constructor"
    },
    {
      "anonymous": false,
      "inputs": [
        {
          "indexed": true,
          "internalType": "address",
          "name": "previousOwner",
          "type": "address"
        },
        {
          "indexed": true,
          "internalType": "address",
          "name": "newOwner",
          "type": "address"
        }
      ],
      "name": "OwnershipTransferred",
      "type": "event"
    },
    {
      "anonymous": false,
      "inputs": [
        {
          "indexed": true,
          "internalType": "address",
          "name": "oldRelayHub",
          "type": "address"
        },
        {
          "indexed": true,
          "internalType": "address",
          "name": "newRelayHub",
          "type": "address"
        }
      ],
      "name": "RelayHubChanged",
      "type": "event"
    },
    {
      "anonymous": false,
      "inputs": [
        {
          "indexed": false,
          "internalType": "bytes32",
          "name": "itemHash",
          "type": "bytes32"
        }
      ],
      "name": "addedItem",
      "type": "event"
    },
    {
      "anonymous": false,
      "inputs": [
        {
          "indexed": false,
          "internalType": "address",
          "name": "",
          "type": "address"
        }
      ],
      "name": "updatedRegistry",
      "type": "event"
    },
    {
      "payable": true,
      "stateMutability": "payable",
      "type": "fallback"
    },
    {
      "constant": true,
      "inputs": [],
      "name": "getHubAddr",
      "outputs": [
        {
          "internalType": "address",
          "name": "",
          "type": "address"
        }
      ],
      "payable": false,
      "stateMutability": "view",
      "type": "function"
    },
    {
      "constant": true,
      "inputs": [],
      "name": "isOwner",
      "outputs": [
        {
          "internalType": "bool",
          "name": "",
          "type": "bool"
        }
      ],
      "payable": false,
      "stateMutability": "view",
      "type": "function"
    },
    {
      "constant": true,
      "inputs": [
        {
          "internalType": "address",
          "name": "_addr",
          "type": "address"
        }
      ],
      "name": "isRegistered",
      "outputs": [
        {
          "internalType": "bool",
          "name": "",
          "type": "bool"
        }
      ],
      "payable": false,
      "stateMutability": "view",
      "type": "function"
    },
    {
      "constant": true,
      "inputs": [],
      "name": "owner",
      "outputs": [
        {
          "internalType": "address",
          "name": "",
          "type": "address"
        }
      ],
      "payable": false,
      "stateMutability": "view",
      "type": "function"
    },
    {
      "constant": false,
      "inputs": [
        {
          "internalType": "bytes",
          "name": "context",
          "type": "bytes"
        },
        {
          "internalType": "bool",
          "name": "success",
          "type": "bool"
        },
        {
          "internalType": "uint256",
          "name": "actualCharge",
          "type": "uint256"
        },
        {
          "internalType": "bytes32",
          "name": "preRetVal",
          "type": "bytes32"
        }
      ],
      "name": "postRelayedCall",
      "outputs": [],
      "payable": false,
      "stateMutability": "nonpayable",
      "type": "function"
    },
    {
      "constant": false,
      "inputs": [
        {
          "internalType": "bytes",
          "name": "context",
          "type": "bytes"
        }
      ],
      "name": "preRelayedCall",
      "outputs": [
        {
          "internalType": "bytes32",
          "name": "",
          "type": "bytes32"
        }
      ],
      "payable": false,
      "stateMutability": "nonpayable",
      "type": "function"
    },
    {
      "constant": true,
      "inputs": [],
      "name": "relayHubVersion",
      "outputs": [
        {
          "internalType": "string",
          "name": "",
          "type": "string"
        }
      ],
      "payable": false,
      "stateMutability": "view",
      "type": "function"
    },
    {
      "constant": false,
      "inputs": [],
      "name": "renounceOwnership",
      "outputs": [],
      "payable": false,
      "stateMutability": "nonpayable",
      "type": "function"
    },
    {
      "constant": false,
      "inputs": [
        {
          "internalType": "address",
          "name": "newOwner",
          "type": "address"
        }
      ],
      "name": "transferOwnership",
      "outputs": [],
      "payable": false,
      "stateMutability": "nonpayable",
      "type": "function"
    },
    {
      "constant": false,
      "inputs": [
        {
          "internalType": "address",
          "name": "_addr",
          "type": "address"
        },
        {
          "internalType": "bool",
          "name": "_active",
          "type": "bool"
        }
      ],
      "name": "updateRegistry",
      "outputs": [],
      "payable": false,
      "stateMutability": "nonpayable",
      "type": "function"
    },
    {
      "constant": false,
      "inputs": [
        {
          "internalType": "bytes32",
          "name": "_itemHash",
          "type": "bytes32"
        },
        {
          "internalType": "uint8",
          "name": "_itemType",
          "type": "uint8"
        },
        {
          "internalType": "string",
          "name": "_link",
          "type": "string"
        },
        {
          "internalType": "bytes",
          "name": "_signature",
          "type": "bytes"
        }
      ],
      "name": "storeItem",
      "outputs": [],
      "payable": false,
      "stateMutability": "nonpayable",
      "type": "function"
    },
    {
      "constant": true,
      "inputs": [
        {
          "internalType": "bytes32",
          "name": "_itemHash",
          "type": "bytes32"
        }
      ],
      "name": "getItem",
      "outputs": [
        {
          "internalType": "bytes32",
          "name": "itemHash",
          "type": "bytes32"
        },
        {
          "internalType": "uint8",
          "name": "itemType",
          "type": "uint8"
        },
        {
          "internalType": "string",
          "name": "link",
          "type": "string"
        },
        {
          "internalType": "bytes",
          "name": "signature",
          "type": "bytes"
        }
      ],
      "payable": false,
      "stateMutability": "view",
      "type": "function"
    },
    {
      "constant": true,
      "inputs": [
        {
          "internalType": "bytes32",
          "name": "_itemHash",
          "type": "bytes32"
        }
      ],
      "name": "isItem",
      "outputs": [
        {
          "internalType": "bool",
          "name": "",
          "type": "bool"
        }
      ],
      "payable": false,
      "stateMutability": "view",
      "type": "function"
    },
    {
      "constant": true,
      "inputs": [
        {
          "internalType": "bytes32",
          "name": "_itemHash",
          "type": "bytes32"
        }
      ],
      "name": "getItemType",
      "outputs": [
        {
          "internalType": "uint8",
          "name": "",
          "type": "uint8"
        }
      ],
      "payable": false,
      "stateMutability": "view",
      "type": "function"
    },
    {
      "constant": true,
      "inputs": [
        {
          "internalType": "bytes32",
          "name": "_itemHash",
          "type": "bytes32"
        }
      ],
      "name": "getItemLink",
      "outputs": [
        {
          "internalType": "string",
          "name": "link",
          "type": "string"
        }
      ],
      "payable": false,
      "stateMutability": "view",
      "type": "function"
    },
    {
      "constant": true,
      "inputs": [
        {
          "internalType": "bytes32",
          "name": "_itemHash",
          "type": "bytes32"
        }
      ],
      "name": "getItemSig",
      "outputs": [
        {
          "internalType": "bytes",
          "name": "",
          "type": "bytes"
        }
      ],
      "payable": false,
      "stateMutability": "view",
      "type": "function"
    },
    {
      "constant": false,
      "inputs": [
        {
          "internalType": "bytes32",
          "name": "_itemHash",
          "type": "bytes32"
        }
      ],
      "name": "tradeThisItem",
      "outputs": [],
      "payable": false,
      "stateMutability": "nonpayable",
      "type": "function"
    },
    {
      "constant": true,
      "inputs": [
        {
          "internalType": "address",
          "name": "relay",
          "type": "address"
        },
        {
          "internalType": "address",
          "name": "from",
          "type": "address"
        },
        {
          "internalType": "bytes",
          "name": "encodedFunction",
          "type": "bytes"
        },
        {
          "internalType": "uint256",
          "name": "transactionFee",
          "type": "uint256"
        },
        {
          "internalType": "uint256",
          "name": "gasPrice",
          "type": "uint256"
        },
        {
          "internalType": "uint256",
          "name": "gasLimit",
          "type": "uint256"
        },
        {
          "internalType": "uint256",
          "name": "nonce",
          "type": "uint256"
        },
        {
          "internalType": "bytes",
          "name": "approvalData",
          "type": "bytes"
        },
        {
          "internalType": "uint256",
          "name": "maxPossibleCharge",
          "type": "uint256"
        }
      ],
      "name": "acceptRelayedCall",
      "outputs": [
        {
          "internalType": "uint256",
          "name": "",
          "type": "uint256"
        },
        {
          "internalType": "bytes",
          "name": "",
          "type": "bytes"
        }
      ],
      "payable": false,
      "stateMutability": "view",
      "type": "function"
    },
    {
      "constant": true,
      "inputs": [
        {
          "internalType": "bytes32",
          "name": "_itemHash",
          "type": "bytes32"
        }
      ],
      "name": "senderIsSigner",
      "outputs": [
        {
          "internalType": "bool",
          "name": "",
          "type": "bool"
        }
      ],
      "payable": false,
      "stateMutability": "view",
      "type": "function"
    },
    {
      "constant": true,
      "inputs": [
        {
          "internalType": "address",
          "name": "_address",
          "type": "address"
        },
        {
          "internalType": "bytes32",
          "name": "_itemHash",
          "type": "bytes32"
        }
      ],
      "name": "addressIsOwner",
      "outputs": [
        {
          "internalType": "bool",
          "name": "isSigner",
          "type": "bool"
        }
      ],
      "payable": false,
      "stateMutability": "view",
      "type": "function"
    }
  ],
  "bytecode": "0x608060405273d216153c06e857cd7f72665e0af1d7d82172f494600160006101000a81548173ffffffffffffffffffffffffffffffffffffffff021916908373ffffffffffffffffffffffffffffffffffffffff1602179055503480156200006657600080fd5b50620000776200013860201b60201c565b6000806101000a81548173ffffffffffffffffffffffffffffffffffffffff021916908373ffffffffffffffffffffffffffffffffffffffff1602179055506000809054906101000a900473ffffffffffffffffffffffffffffffffffffffff1673ffffffffffffffffffffffffffffffffffffffff16600073ffffffffffffffffffffffffffffffffffffffff167f8be0079c531659141344cd1fd0a4f28419497f9722a3daafe3b4186f6b6457e060405160405180910390a362000227565b6000600160009054906101000a900473ffffffffffffffffffffffffffffffffffffffff1673ffffffffffffffffffffffffffffffffffffffff163373ffffffffffffffffffffffffffffffffffffffff16146200019957339050620001ac565b620001a9620001af60201b60201c565b90505b90565b600060606000368080601f016020809104026020016040519081016040528093929190818152602001838380828437600081840152601f19601f820116905080830192505050505050509050600080369050905073ffffffffffffffffffffffffffffffffffffffff81830151169250829250505090565b61210380620002376000396000f3fe60806040526004361061011f5760003560e01c80638f32d59b116100a0578063c3c5a54711610064578063c3c5a5471461045b578063c5552c7414610498578063e06e0e22146104c1578063e0b2f599146104ea578063f2fde38b146105275761011f565b80638f32d59b1461034b578063aa0372e714610376578063ad61ccd5146103b6578063b7fc8a6e146103e1578063c00277fb1461041e5761011f565b8063746756e9116100e7578063746756e91461023d57806374e861d61461027a57806380274db7146102a557806383947ea0146102e25780638da5cb5b146103205761011f565b8063066e1e141461015a5780632ce9e99f146101975780632d71baa2146101c0578063341fb2d6146101e9578063715018a614610226575b6040517f08c379a000000000000000000000000000000000000000000000000000000000815260040161015190611e13565b60405180910390fd5b34801561016657600080fd5b50610181600480360361017c9190810190611790565b610550565b60405161018e9190611c81565b60405180910390f35b3480156101a357600080fd5b506101be60048036036101b99190810190611790565b61056a565b005b3480156101cc57600080fd5b506101e760048036036101e291908101906117b9565b61056d565b005b3480156101f557600080fd5b50610210600480360361020b9190810190611790565b6106d4565b60405161021d9190611d4f565b60405180910390f35b34801561023257600080fd5b5061023b61078c565b005b34801561024957600080fd5b50610264600480360361025f9190810190611790565b610892565b6040516102719190611d71565b60405180910390f35b34801561028657600080fd5b5061028f61094a565b60405161029c9190611c66565b60405180910390f35b3480156102b157600080fd5b506102cc60048036036102c7919081019061184c565b610974565b6040516102d99190611c9c565b60405180910390f35b3480156102ee57600080fd5b5061030960048036036103049190810190611618565b610a40565b604051610317929190611e93565b60405180910390f35b34801561032c57600080fd5b50610335610a79565b6040516103429190611c66565b60405180910390f35b34801561035757600080fd5b50610360610aa2565b60405161036d9190611c81565b60405180910390f35b34801561038257600080fd5b5061039d60048036036103989190810190611790565b610b00565b6040516103ad9493929190611cfc565b60405180910390f35b3480156103c257600080fd5b506103cb610b31565b6040516103d89190611d71565b60405180910390f35b3480156103ed57600080fd5b5061040860048036036104039190810190611754565b610b6e565b6040516104159190611c81565b60405180910390f35b34801561042a57600080fd5b5061044560048036036104409190810190611790565b610d5e565b6040516104529190611c81565b60405180910390f35b34801561046757600080fd5b50610482600480360361047d91908101906115ef565b610d90565b60405161048f9190611c81565b60405180910390f35b3480156104a457600080fd5b506104bf60048036036104ba9190810190611718565b610de6565b005b3480156104cd57600080fd5b506104e860048036036104e39190810190611891565b610ebf565b005b3480156104f657600080fd5b50610511600480360361050c9190810190611790565b610f8b565b60405161051e9190611ec3565b60405180910390f35b34801561053357600080fd5b5061054e600480360361054991908101906115ef565b610fb8565b005b600061056361055d61100b565b83610b6e565b9050919050565b50565b60008360ff16116105b3576040517f08c379a00000000000000000000000000000000000000000000000000000000081526004016105aa90611df3565b60405180910390fd5b6105bc84610d5e565b156105fc576040517f08c379a00000000000000000000000000000000000000000000000000000000081526004016105f390611e73565b60405180910390fd5b61060461134b565b60405180606001604052808560ff168152602001848152602001838152509050806003600087815260200190815260200160002060008201518160000160006101000a81548160ff021916908360ff160217905550602082015181600101908051906020019061067592919061136f565b5060408201518160020190805190602001906106929291906113ef565b509050507f351e5d0cad7bc76760c9be0a0ed708768225aac9fd434422fb126edd014a42df856040516106c59190611c9c565b60405180910390a15050505050565b6060600360008381526020019081526020016000206002018054600181600116156101000203166002900480601f0160208091040260200160405190810160405280929190818152602001828054600181600116156101000203166002900480156107805780601f1061075557610100808354040283529160200191610780565b820191906000526020600020905b81548152906001019060200180831161076357829003601f168201915b50505050509050919050565b610794610aa2565b6107d3576040517f08c379a00000000000000000000000000000000000000000000000000000000081526004016107ca90611e33565b60405180910390fd5b600073ffffffffffffffffffffffffffffffffffffffff166000809054906101000a900473ffffffffffffffffffffffffffffffffffffffff1673ffffffffffffffffffffffffffffffffffffffff167f8be0079c531659141344cd1fd0a4f28419497f9722a3daafe3b4186f6b6457e060405160405180910390a360008060006101000a81548173ffffffffffffffffffffffffffffffffffffffff021916908373ffffffffffffffffffffffffffffffffffffffff160217905550565b6060600360008381526020019081526020016000206001018054600181600116156101000203166002900480601f01602080910402602001604051908101604052809291908181526020018280546001816001161561010002031660029004801561093e5780601f106109135761010080835404028352916020019161093e565b820191906000526020600020905b81548152906001019060200180831161092157829003601f168201915b50505050509050919050565b6000600160009054906101000a900473ffffffffffffffffffffffffffffffffffffffff16905090565b600061097e61094a565b73ffffffffffffffffffffffffffffffffffffffff163373ffffffffffffffffffffffffffffffffffffffff16146109eb576040517f08c379a00000000000000000000000000000000000000000000000000000000081526004016109e290611e53565b60405180910390fd5b610a3883838080601f016020809104026020016040519081016040528093929190818152602001838380828437600081840152601f19601f82011690508083019250505050505050611078565b905092915050565b60006060610a54610a4f61100b565b610d90565b610a5d57600080fd5b610a6561107f565b915091509b509b9950505050505050505050565b60008060009054906101000a900473ffffffffffffffffffffffffffffffffffffffff16905090565b60008060009054906101000a900473ffffffffffffffffffffffffffffffffffffffff1673ffffffffffffffffffffffffffffffffffffffff16610ae461100b565b73ffffffffffffffffffffffffffffffffffffffff1614905090565b60008060608084610b1086610f8b565b610b1987610892565b610b22886106d4565b93509350935093509193509193565b60606040518060400160405280600581526020017f312e302e30000000000000000000000000000000000000000000000000000000815250905090565b600060046006811115610b7d57fe5b6003600084815260200190815260200160002060000160009054906101000a900460ff1660ff166006811115610baf57fe5b6006811115610bba57fe5b14610bfa576040517f08c379a0000000000000000000000000000000000000000000000000000000008152600401610bf190611db3565b60405180910390fd5b60006003600084815260200190815260200160002060020180546001816001161561010002031660029004905011610c67576040517f08c379a0000000000000000000000000000000000000000000000000000000008152600401610c5e90611d93565b60405180910390fd5b610d28600360008481526020019081526020016000206002018054600181600116156101000203166002900480601f016020809104026020016040519081016040528092919081815260200182805460018160011615610100020316600290048015610d145780601f10610ce957610100808354040283529160200191610d14565b820191906000526020600020905b815481529060010190602001808311610cf757829003601f168201915b5050505050836110a390919063ffffffff16565b73ffffffffffffffffffffffffffffffffffffffff168373ffffffffffffffffffffffffffffffffffffffff1614905092915050565b6000806003600084815260200190815260200160002060000160009054906101000a900460ff1660ff16119050919050565b6000600260008373ffffffffffffffffffffffffffffffffffffffff1673ffffffffffffffffffffffffffffffffffffffff16815260200190815260200160002060009054906101000a900460ff169050919050565b610dee610aa2565b610e2d576040517f08c379a0000000000000000000000000000000000000000000000000000000008152600401610e2490611e33565b60405180910390fd5b80600260008473ffffffffffffffffffffffffffffffffffffffff1673ffffffffffffffffffffffffffffffffffffffff16815260200190815260200160002060006101000a81548160ff0219169083151502179055507f4a249455b9cbb17d2537cf8b10b48f47d4a3662fa15715680e3488480c7df20f82604051610eb39190611c66565b60405180910390a15050565b610ec761094a565b73ffffffffffffffffffffffffffffffffffffffff163373ffffffffffffffffffffffffffffffffffffffff1614610f34576040517f08c379a0000000000000000000000000000000000000000000000000000000008152600401610f2b90611e53565b60405180910390fd5b610f8485858080601f016020809104026020016040519081016040528093929190818152602001838380828437600081840152601f19601f8201169050808301925050505050505084848461118f565b5050505050565b60006003600083815260200190815260200160002060000160009054906101000a900460ff169050919050565b610fc0610aa2565b610fff576040517f08c379a0000000000000000000000000000000000000000000000000000000008152600401610ff690611e33565b60405180910390fd5b61100881611195565b50565b6000600160009054906101000a900473ffffffffffffffffffffffffffffffffffffffff1673ffffffffffffffffffffffffffffffffffffffff163373ffffffffffffffffffffffffffffffffffffffff161461106a57339050611075565b6110726112c3565b90505b90565b6000919050565b6000606061109b6040518060200160405280600081525061133b565b915091509091565b600060418251146110b75760009050611189565b60008060006020850151925060408501519150606085015160001a90507f7fffffffffffffffffffffffffffffff5d576e7357a4501ddfe92f46681b20a08260001c111561110b5760009350505050611189565b601b8160ff16141580156111235750601c8160ff1614155b156111345760009350505050611189565b600186828585604051600081526020016040526040516111579493929190611cb7565b6020604051602081039080840390855afa158015611179573d6000803e3d6000fd5b5050506020604051035193505050505b92915050565b50505050565b600073ffffffffffffffffffffffffffffffffffffffff168173ffffffffffffffffffffffffffffffffffffffff161415611205576040517f08c379a00000000000000000000000000000000000000000000000000000000081526004016111fc90611dd3565b60405180910390fd5b8073ffffffffffffffffffffffffffffffffffffffff166000809054906101000a900473ffffffffffffffffffffffffffffffffffffffff1673ffffffffffffffffffffffffffffffffffffffff167f8be0079c531659141344cd1fd0a4f28419497f9722a3daafe3b4186f6b6457e060405160405180910390a3806000806101000a81548173ffffffffffffffffffffffffffffffffffffffff021916908373ffffffffffffffffffffffffffffffffffffffff16021790555050565b600060606000368080601f016020809104026020016040519081016040528093929190818152602001838380828437600081840152601f19601f820116905080830192505050505050509050600080369050905073ffffffffffffffffffffffffffffffffffffffff81830151169250829250505090565b6000606060008391509150915091565b6040518060600160405280600060ff16815260200160608152602001606081525090565b828054600181600116156101000203166002900490600052602060002090601f016020900481019282601f106113b057805160ff19168380011785556113de565b828001600101855582156113de579182015b828111156113dd5782518255916020019190600101906113c2565b5b5090506113eb919061146f565b5090565b828054600181600116156101000203166002900490600052602060002090601f016020900481019282601f1061143057805160ff191683800117855561145e565b8280016001018555821561145e579182015b8281111561145d578251825591602001919060010190611442565b5b50905061146b919061146f565b5090565b61149191905b8082111561148d576000816000905550600101611475565b5090565b90565b6000813590506114a38161204d565b92915050565b6000813590506114b881612064565b92915050565b6000813590506114cd8161207b565b92915050565b60008083601f8401126114e557600080fd5b8235905067ffffffffffffffff8111156114fe57600080fd5b60208301915083600182028301111561151657600080fd5b9250929050565b600082601f83011261152e57600080fd5b813561154161153c82611f0b565b611ede565b9150808252602083016020830185838301111561155d57600080fd5b611568838284611ffa565b50505092915050565b600082601f83011261158257600080fd5b813561159561159082611f37565b611ede565b915080825260208301602083018583830111156115b157600080fd5b6115bc838284611ffa565b50505092915050565b6000813590506115d481612092565b92915050565b6000813590506115e9816120a9565b92915050565b60006020828403121561160157600080fd5b600061160f84828501611494565b91505092915050565b60008060008060008060008060008060006101208c8e03121561163a57600080fd5b60006116488e828f01611494565b9b505060206116598e828f01611494565b9a505060408c013567ffffffffffffffff81111561167657600080fd5b6116828e828f016114d3565b995099505060606116958e828f016115c5565b97505060806116a68e828f016115c5565b96505060a06116b78e828f016115c5565b95505060c06116c88e828f016115c5565b94505060e08c013567ffffffffffffffff8111156116e557600080fd5b6116f18e828f016114d3565b93509350506101006117058e828f016115c5565b9150509295989b509295989b9093969950565b6000806040838503121561172b57600080fd5b600061173985828601611494565b925050602061174a858286016114a9565b9150509250929050565b6000806040838503121561176757600080fd5b600061177585828601611494565b9250506020611786858286016114be565b9150509250929050565b6000602082840312156117a257600080fd5b60006117b0848285016114be565b91505092915050565b600080600080608085870312156117cf57600080fd5b60006117dd878288016114be565b94505060206117ee878288016115da565b935050604085013567ffffffffffffffff81111561180b57600080fd5b61181787828801611571565b925050606085013567ffffffffffffffff81111561183457600080fd5b6118408782880161151d565b91505092959194509250565b6000806020838503121561185f57600080fd5b600083013567ffffffffffffffff81111561187957600080fd5b611885858286016114d3565b92509250509250929050565b6000806000806000608086880312156118a957600080fd5b600086013567ffffffffffffffff8111156118c357600080fd5b6118cf888289016114d3565b955095505060206118e2888289016114a9565b93505060406118f3888289016115c5565b9250506060611904888289016114be565b9150509295509295909350565b61191a81611f9b565b82525050565b61192981611fad565b82525050565b61193881611fb9565b82525050565b600061194982611f63565b6119538185611f79565b9350611963818560208601612009565b61196c8161203c565b840191505092915050565b600061198282611f6e565b61198c8185611f8a565b935061199c818560208601612009565b6119a58161203c565b840191505092915050565b60006119bd601583611f8a565b91507f4e6f207369676e61747572652070726f766964656400000000000000000000006000830152602082019050919050565b60006119fd602383611f8a565b91507f4974656d73206973206e6f74206f6620747970652045746848617368506c757360008301527f53696700000000000000000000000000000000000000000000000000000000006020830152604082019050919050565b6000611a63602683611f8a565b91507f4f776e61626c653a206e6577206f776e657220697320746865207a65726f206160008301527f64647265737300000000000000000000000000000000000000000000000000006020830152604082019050919050565b6000611ac9602383611f8a565b91507f4974656d2074797065206d757374206265206120706f736974697665206e756d60008301527f62657200000000000000000000000000000000000000000000000000000000006020830152604082019050919050565b6000611b2f601f83611f8a565b91507f546869732077616c6c657420646f6573206e6f742061636365707420457468006000830152602082019050919050565b6000611b6f602083611f8a565b91507f4f776e61626c653a2063616c6c6572206973206e6f7420746865206f776e65726000830152602082019050919050565b6000611baf602483611f8a565b91507f47534e526563697069656e743a2063616c6c6572206973206e6f742052656c6160008301527f79487562000000000000000000000000000000000000000000000000000000006020830152604082019050919050565b6000611c15601383611f8a565b91507f4974656d20616c726561647920657869737473000000000000000000000000006000830152602082019050919050565b611c5181611fe3565b82525050565b611c6081611fed565b82525050565b6000602082019050611c7b6000830184611911565b92915050565b6000602082019050611c966000830184611920565b92915050565b6000602082019050611cb1600083018461192f565b92915050565b6000608082019050611ccc600083018761192f565b611cd96020830186611c57565b611ce6604083018561192f565b611cf3606083018461192f565b95945050505050565b6000608082019050611d11600083018761192f565b611d1e6020830186611c57565b8181036040830152611d308185611977565b90508181036060830152611d44818461193e565b905095945050505050565b60006020820190508181036000830152611d69818461193e565b905092915050565b60006020820190508181036000830152611d8b8184611977565b905092915050565b60006020820190508181036000830152611dac816119b0565b9050919050565b60006020820190508181036000830152611dcc816119f0565b9050919050565b60006020820190508181036000830152611dec81611a56565b9050919050565b60006020820190508181036000830152611e0c81611abc565b9050919050565b60006020820190508181036000830152611e2c81611b22565b9050919050565b60006020820190508181036000830152611e4c81611b62565b9050919050565b60006020820190508181036000830152611e6c81611ba2565b9050919050565b60006020820190508181036000830152611e8c81611c08565b9050919050565b6000604082019050611ea86000830185611c48565b8181036020830152611eba818461193e565b90509392505050565b6000602082019050611ed86000830184611c57565b92915050565b6000604051905081810181811067ffffffffffffffff82111715611f0157600080fd5b8060405250919050565b600067ffffffffffffffff821115611f2257600080fd5b601f19601f8301169050602081019050919050565b600067ffffffffffffffff821115611f4e57600080fd5b601f19601f8301169050602081019050919050565b600081519050919050565b600081519050919050565b600082825260208201905092915050565b600082825260208201905092915050565b6000611fa682611fc3565b9050919050565b60008115159050919050565b6000819050919050565b600073ffffffffffffffffffffffffffffffffffffffff82169050919050565b6000819050919050565b600060ff82169050919050565b82818337600083830152505050565b60005b8381101561202757808201518184015260208101905061200c565b83811115612036576000848401525b50505050565b6000601f19601f8301169050919050565b61205681611f9b565b811461206157600080fd5b50565b61206d81611fad565b811461207857600080fd5b50565b61208481611fb9565b811461208f57600080fd5b50565b61209b81611fe3565b81146120a657600080fd5b50565b6120b281611fed565b81146120bd57600080fd5b5056fea365627a7a723158206f067ae0a17a9d65d6e37e385d2c9321d8b24958813fe91bd162ed268b02ec426c6578706572696d656e74616cf564736f6c63430005100040",
  "source": "pragma solidity ^0.5.16;\npragma experimental ABIEncoderV2;\n\nimport \"@openzeppelin/contracts/ownership/Ownable.sol\";\nimport \"@openzeppelin/contracts/GSN/GSNRecipient.sol\";\nimport \"@openzeppelin/contracts/cryptography/ECDSA.sol\";\n\ncontract Registry is Ownable, GSNRecipient {\n\n    mapping(address => bool) registered;\n\n    event updatedRegistry(address);\n\n    function isRegistered(address _addr) public view returns (bool) {\n        return registered[_addr];\n    }\n\n    function updateRegistry(address _addr, bool _active) public onlyOwner {\n        registered[_addr] = _active;\n        emit updatedRegistry(_addr);\n    }\n}\n\ncontract ItemNotary is Registry {\n\n    using ECDSA for bytes32;\n\n    enum ItemTypes {Invalid, Exists, Sha3, EthSig, Sha3PlusEthSig, Passphrase, Other}\n\n    //enum itemTypes {Invalid, Exists, Sha256, Sha3, EthSig, EthHashPlusSig, BTCSig, BTCHashPlusSig, Passphrase, Other}\n\n    struct Item {\n        uint8 itemType;\n        string url; // optional\n        // Only if on-chain proof required\n        bytes signature; // optional\n    }\n\n    mapping(bytes32 => Item) items;\n\n    event addedItem(bytes32 itemHash);\n\n    constructor() public {}\n\n    function()\n    external\n    payable\n    {\n        revert('This wallet does not accept Eth');\n    }\n\n    function storeItem(bytes32 _itemHash, uint8 _itemType, string memory _link, bytes memory _signature)\n    public\n    {\n        // require(isRegistered(_msgSender()), \"Account not registered\");\n        require(_itemType > 0, \"Item type must be a positive number\");\n        require(!isItem(_itemHash), \"Item already exists\");\n\n        Item memory item = Item(_itemType, _link, _signature);\n        items[_itemHash] = item;\n        emit addedItem(_itemHash);\n    }\n\n    function getItem(bytes32 _itemHash)\n    public\n    view\n    returns\n    (bytes32 itemHash, uint8 itemType, string memory link, bytes memory signature)\n    {\n        return (_itemHash, getItemType(_itemHash), getItemLink(_itemHash), getItemSig(_itemHash));\n    }\n\n    function isItem(bytes32 _itemHash)\n    public\n    view\n    returns\n    (bool)\n    {\n        return (items[_itemHash].itemType > 0);\n    }\n\n    function getItemType(bytes32 _itemHash)\n    public\n    view\n    returns\n    (uint8)\n    {\n        return items[_itemHash].itemType;\n    }\n\n    function getItemLink(bytes32 _itemHash)\n    public\n    view\n    returns\n    (string memory link)\n    {\n        return items[_itemHash].url;\n    }\n\n    function getItemSig(bytes32 _itemHash)\n    public\n    view\n    returns\n    (bytes memory)\n    {\n        return items[_itemHash].signature;\n    }\n\n    /**\n     * Only applicable if use is the owner...\n     */\n    function tradeThisItem(bytes32 _itemHash)\n    public\n    {\n        // hmmmmmmmmm.\n        // can we use introspection\n        // do we even need a link here\n        // maybe a link is what could be added to this!!!?????\n        // verify that user is msg.sender\n        // add item as erc721 token for given address\n    }\n\n    function acceptRelayedCall(\n        address relay,\n        address from,\n        bytes calldata encodedFunction,\n        uint256 transactionFee,\n        uint256 gasPrice,\n        uint256 gasLimit,\n        uint256 nonce,\n        bytes calldata approvalData,\n        uint256 maxPossibleCharge\n    )\n    external\n    view\n    returns\n    (uint256, bytes memory)\n    {\n        require(isRegistered(_msgSender()));\n        return _approveRelayedCall();\n    }\n\n\n    function _preRelayedCall(bytes memory context)\n    internal\n    returns\n    (bytes32)\n    {\n        // not implemented\n    }\n\n    function _postRelayedCall(bytes memory context, bool, uint256 actualCharge, bytes32)\n    internal\n    {\n        // not implemented\n    }\n\n    function senderIsSigner(bytes32 _itemHash)\n    public\n    view\n    returns\n    (bool)\n    {\n        return (addressIsOwner(_msgSender(), _itemHash));\n    }\n\n    function addressIsOwner(address _address, bytes32 _itemHash)\n    public\n    view\n    returns\n    (bool isSigner)\n    {\n        require(ItemTypes(items[_itemHash].itemType) == ItemTypes.Sha3PlusEthSig, \"Items is not of type EthHashPlusSig\");\n        require(items[_itemHash].signature.length > 0, \"No signature provided\"); // @note length returns true in 0.6\n        return _address == _itemHash.recover(items[_itemHash].signature);\n    }\n}\n\n// sign(keccak256(\"\\x19Ethereum Signed Message:\\n\" + len(message) + message)))\n\n//    function compareStrings (string memory a, string memory b) public view\n//    returns (bool) {\n//        return (keccak256(abi.encodePacked((a))) == keccak256(abi.encodePacked((b))) );\n//\n//    }\n\n\n",
  "sourcePath": "/Users/x/Documents/webs/notariseMe/contracts/contracts/ItemNotary.sol",
  "compiler": {
    "name": "solc",
    "version": "0.5.16+commit.9c3226ce.Emscripten.clang"
  },
  "schemaVersion": "3.0.23",
  "updatedAt": "2020-03-05T12:41:43.204Z",
  "networkType": "ethereum",
  "devdoc": {
    "methods": {
      "getHubAddr()": {
        "details": "Returns the address of the {IRelayHub} contract for this recipient."
      },
      "isOwner()": {
        "details": "Returns true if the caller is the current owner."
      },
      "owner()": {
        "details": "Returns the address of the current owner."
      },
      "postRelayedCall(bytes,bool,uint256,bytes32)": {
        "details": "See `IRelayRecipient.postRelayedCall`.     * This function should not be overriden directly, use `_postRelayedCall` instead.     * * Requirements:     * - the caller must be the `RelayHub` contract."
      },
      "preRelayedCall(bytes)": {
        "details": "See `IRelayRecipient.preRelayedCall`.     * This function should not be overriden directly, use `_preRelayedCall` instead.     * * Requirements:     * - the caller must be the `RelayHub` contract."
      },
      "relayHubVersion()": {
        "details": "Returns the version string of the {IRelayHub} for which this recipient implementation was built. If {_upgradeRelayHub} is used, the new {IRelayHub} instance should be compatible with this version."
      },
      "renounceOwnership()": {
        "details": "Leaves the contract without owner. It will not be possible to call `onlyOwner` functions anymore. Can only be called by the current owner.     * NOTE: Renouncing ownership will leave the contract without an owner, thereby removing any functionality that is only available to the owner."
      },
      "transferOwnership(address)": {
        "details": "Transfers ownership of the contract to a new account (`newOwner`). Can only be called by the current owner."
      }
    }
  },
  "userdoc": {
    "methods": {
      "tradeThisItem(bytes32)": {
        "notice": "Only applicable if use is the owner..."
      }
    }
  }
}