{
  "contractName": "ItemNotary",
  "abi": [
    {
      "inputs": [],
      "payable": false,
      "stateMutability": "nonpayable",
      "type": "constructor"
    },
    {
      "anonymous": false,
      "inputs": [
        {
          "indexed": true,
          "internalType": "address",
          "name": "previousOwner",
          "type": "address"
        },
        {
          "indexed": true,
          "internalType": "address",
          "name": "newOwner",
          "type": "address"
        }
      ],
      "name": "OwnershipTransferred",
      "type": "event"
    },
    {
      "anonymous": false,
      "inputs": [
        {
          "indexed": true,
          "internalType": "address",
          "name": "oldRelayHub",
          "type": "address"
        },
        {
          "indexed": true,
          "internalType": "address",
          "name": "newRelayHub",
          "type": "address"
        }
      ],
      "name": "RelayHubChanged",
      "type": "event"
    },
    {
      "anonymous": false,
      "inputs": [
        {
          "indexed": false,
          "internalType": "bytes32",
          "name": "itemHash",
          "type": "bytes32"
        }
      ],
      "name": "addedItem",
      "type": "event"
    },
    {
      "anonymous": false,
      "inputs": [
        {
          "indexed": false,
          "internalType": "address",
          "name": "",
          "type": "address"
        }
      ],
      "name": "updatedRegistry",
      "type": "event"
    },
    {
      "payable": true,
      "stateMutability": "payable",
      "type": "fallback"
    },
    {
      "constant": true,
      "inputs": [],
      "name": "getHubAddr",
      "outputs": [
        {
          "internalType": "address",
          "name": "",
          "type": "address"
        }
      ],
      "payable": false,
      "stateMutability": "view",
      "type": "function"
    },
    {
      "constant": true,
      "inputs": [],
      "name": "isOwner",
      "outputs": [
        {
          "internalType": "bool",
          "name": "",
          "type": "bool"
        }
      ],
      "payable": false,
      "stateMutability": "view",
      "type": "function"
    },
    {
      "constant": true,
      "inputs": [
        {
          "internalType": "address",
          "name": "_addr",
          "type": "address"
        }
      ],
      "name": "isRegistered",
      "outputs": [
        {
          "internalType": "bool",
          "name": "",
          "type": "bool"
        }
      ],
      "payable": false,
      "stateMutability": "view",
      "type": "function"
    },
    {
      "constant": true,
      "inputs": [],
      "name": "owner",
      "outputs": [
        {
          "internalType": "address",
          "name": "",
          "type": "address"
        }
      ],
      "payable": false,
      "stateMutability": "view",
      "type": "function"
    },
    {
      "constant": false,
      "inputs": [
        {
          "internalType": "bytes",
          "name": "context",
          "type": "bytes"
        },
        {
          "internalType": "bool",
          "name": "success",
          "type": "bool"
        },
        {
          "internalType": "uint256",
          "name": "actualCharge",
          "type": "uint256"
        },
        {
          "internalType": "bytes32",
          "name": "preRetVal",
          "type": "bytes32"
        }
      ],
      "name": "postRelayedCall",
      "outputs": [],
      "payable": false,
      "stateMutability": "nonpayable",
      "type": "function"
    },
    {
      "constant": false,
      "inputs": [
        {
          "internalType": "bytes",
          "name": "context",
          "type": "bytes"
        }
      ],
      "name": "preRelayedCall",
      "outputs": [
        {
          "internalType": "bytes32",
          "name": "",
          "type": "bytes32"
        }
      ],
      "payable": false,
      "stateMutability": "nonpayable",
      "type": "function"
    },
    {
      "constant": true,
      "inputs": [],
      "name": "relayHubVersion",
      "outputs": [
        {
          "internalType": "string",
          "name": "",
          "type": "string"
        }
      ],
      "payable": false,
      "stateMutability": "view",
      "type": "function"
    },
    {
      "constant": false,
      "inputs": [],
      "name": "renounceOwnership",
      "outputs": [],
      "payable": false,
      "stateMutability": "nonpayable",
      "type": "function"
    },
    {
      "constant": false,
      "inputs": [
        {
          "internalType": "address",
          "name": "newOwner",
          "type": "address"
        }
      ],
      "name": "transferOwnership",
      "outputs": [],
      "payable": false,
      "stateMutability": "nonpayable",
      "type": "function"
    },
    {
      "constant": false,
      "inputs": [
        {
          "internalType": "address",
          "name": "_addr",
          "type": "address"
        },
        {
          "internalType": "bool",
          "name": "_active",
          "type": "bool"
        }
      ],
      "name": "updateRegistry",
      "outputs": [],
      "payable": false,
      "stateMutability": "nonpayable",
      "type": "function"
    },
    {
      "constant": false,
      "inputs": [
        {
          "internalType": "bytes32",
          "name": "_itemHash",
          "type": "bytes32"
        },
        {
          "internalType": "uint8",
          "name": "_itemType",
          "type": "uint8"
        },
        {
          "internalType": "string",
          "name": "_link",
          "type": "string"
        },
        {
          "internalType": "bytes",
          "name": "_signature",
          "type": "bytes"
        }
      ],
      "name": "storeItem",
      "outputs": [],
      "payable": false,
      "stateMutability": "nonpayable",
      "type": "function"
    },
    {
      "constant": true,
      "inputs": [
        {
          "internalType": "bytes32",
          "name": "_itemHash",
          "type": "bytes32"
        }
      ],
      "name": "getItem",
      "outputs": [
        {
          "internalType": "bytes32",
          "name": "itemHash",
          "type": "bytes32"
        },
        {
          "internalType": "uint8",
          "name": "itemType",
          "type": "uint8"
        },
        {
          "internalType": "string",
          "name": "link",
          "type": "string"
        },
        {
          "internalType": "bytes",
          "name": "signature",
          "type": "bytes"
        }
      ],
      "payable": false,
      "stateMutability": "view",
      "type": "function"
    },
    {
      "constant": true,
      "inputs": [
        {
          "internalType": "bytes32",
          "name": "_itemHash",
          "type": "bytes32"
        }
      ],
      "name": "isItem",
      "outputs": [
        {
          "internalType": "bool",
          "name": "",
          "type": "bool"
        }
      ],
      "payable": false,
      "stateMutability": "view",
      "type": "function"
    },
    {
      "constant": true,
      "inputs": [
        {
          "internalType": "bytes32",
          "name": "_itemHash",
          "type": "bytes32"
        }
      ],
      "name": "getItemType",
      "outputs": [
        {
          "internalType": "uint8",
          "name": "",
          "type": "uint8"
        }
      ],
      "payable": false,
      "stateMutability": "view",
      "type": "function"
    },
    {
      "constant": true,
      "inputs": [
        {
          "internalType": "bytes32",
          "name": "_itemHash",
          "type": "bytes32"
        }
      ],
      "name": "getItemLink",
      "outputs": [
        {
          "internalType": "string",
          "name": "link",
          "type": "string"
        }
      ],
      "payable": false,
      "stateMutability": "view",
      "type": "function"
    },
    {
      "constant": true,
      "inputs": [
        {
          "internalType": "bytes32",
          "name": "_itemHash",
          "type": "bytes32"
        }
      ],
      "name": "getItemSig",
      "outputs": [
        {
          "internalType": "bytes",
          "name": "",
          "type": "bytes"
        }
      ],
      "payable": false,
      "stateMutability": "view",
      "type": "function"
    },
    {
      "constant": false,
      "inputs": [
        {
          "internalType": "bytes32",
          "name": "_itemHash",
          "type": "bytes32"
        }
      ],
      "name": "tradeThisItem",
      "outputs": [],
      "payable": false,
      "stateMutability": "nonpayable",
      "type": "function"
    },
    {
      "constant": true,
      "inputs": [
        {
          "internalType": "address",
          "name": "relay",
          "type": "address"
        },
        {
          "internalType": "address",
          "name": "from",
          "type": "address"
        },
        {
          "internalType": "bytes",
          "name": "encodedFunction",
          "type": "bytes"
        },
        {
          "internalType": "uint256",
          "name": "transactionFee",
          "type": "uint256"
        },
        {
          "internalType": "uint256",
          "name": "gasPrice",
          "type": "uint256"
        },
        {
          "internalType": "uint256",
          "name": "gasLimit",
          "type": "uint256"
        },
        {
          "internalType": "uint256",
          "name": "nonce",
          "type": "uint256"
        },
        {
          "internalType": "bytes",
          "name": "approvalData",
          "type": "bytes"
        },
        {
          "internalType": "uint256",
          "name": "maxPossibleCharge",
          "type": "uint256"
        }
      ],
      "name": "acceptRelayedCall",
      "outputs": [
        {
          "internalType": "uint256",
          "name": "",
          "type": "uint256"
        },
        {
          "internalType": "bytes",
          "name": "",
          "type": "bytes"
        }
      ],
      "payable": false,
      "stateMutability": "view",
      "type": "function"
    },
    {
      "constant": true,
      "inputs": [
        {
          "internalType": "bytes32",
          "name": "_itemHash",
          "type": "bytes32"
        }
      ],
      "name": "senderIsSigner",
      "outputs": [
        {
          "internalType": "bool",
          "name": "",
          "type": "bool"
        }
      ],
      "payable": false,
      "stateMutability": "view",
      "type": "function"
    },
    {
      "constant": true,
      "inputs": [
        {
          "internalType": "address",
          "name": "_address",
          "type": "address"
        },
        {
          "internalType": "bytes32",
          "name": "_itemHash",
          "type": "bytes32"
        }
      ],
      "name": "addressIsOwner",
      "outputs": [
        {
          "internalType": "bool",
          "name": "isSigner",
          "type": "bool"
        }
      ],
      "payable": false,
      "stateMutability": "view",
      "type": "function"
    }
  ],
  "bytecode": "0x608060405273d216153c06e857cd7f72665e0af1d7d82172f494600160006101000a81548173ffffffffffffffffffffffffffffffffffffffff021916908373ffffffffffffffffffffffffffffffffffffffff1602179055503480156200006657600080fd5b50620000776200013860201b60201c565b6000806101000a81548173ffffffffffffffffffffffffffffffffffffffff021916908373ffffffffffffffffffffffffffffffffffffffff1602179055506000809054906101000a900473ffffffffffffffffffffffffffffffffffffffff1673ffffffffffffffffffffffffffffffffffffffff16600073ffffffffffffffffffffffffffffffffffffffff167f8be0079c531659141344cd1fd0a4f28419497f9722a3daafe3b4186f6b6457e060405160405180910390a362000227565b6000600160009054906101000a900473ffffffffffffffffffffffffffffffffffffffff1673ffffffffffffffffffffffffffffffffffffffff163373ffffffffffffffffffffffffffffffffffffffff16146200019957339050620001ac565b620001a9620001af60201b60201c565b90505b90565b600060606000368080601f016020809104026020016040519081016040528093929190818152602001838380828437600081840152601f19601f820116905080830192505050505050509050600080369050905073ffffffffffffffffffffffffffffffffffffffff81830151169250829250505090565b6121cb80620002376000396000f3fe60806040526004361061011f5760003560e01c80638f32d59b116100a0578063c3c5a54711610064578063c3c5a5471461045b578063c5552c7414610498578063e06e0e22146104c1578063e0b2f599146104ea578063f2fde38b146105275761011f565b80638f32d59b1461034b578063aa0372e714610376578063ad61ccd5146103b6578063b7fc8a6e146103e1578063c00277fb1461041e5761011f565b8063746756e9116100e7578063746756e91461023d57806374e861d61461027a57806380274db7146102a557806383947ea0146102e25780638da5cb5b146103205761011f565b8063066e1e141461015a5780632ce9e99f146101975780632d71baa2146101c0578063341fb2d6146101e9578063715018a614610226575b6040517f08c379a000000000000000000000000000000000000000000000000000000000815260040161015190611ebb565b60405180910390fd5b34801561016657600080fd5b50610181600480360361017c91908101906117f8565b610550565b60405161018e9190611d29565b60405180910390f35b3480156101a357600080fd5b506101be60048036036101b991908101906117f8565b61056a565b005b3480156101cc57600080fd5b506101e760048036036101e29190810190611821565b610586565b005b3480156101f557600080fd5b50610210600480360361020b91908101906117f8565b61073c565b60405161021d9190611df7565b60405180910390f35b34801561023257600080fd5b5061023b6107f4565b005b34801561024957600080fd5b50610264600480360361025f91908101906117f8565b6108fa565b6040516102719190611e19565b60405180910390f35b34801561028657600080fd5b5061028f6109b2565b60405161029c9190611d0e565b60405180910390f35b3480156102b157600080fd5b506102cc60048036036102c791908101906118b4565b6109dc565b6040516102d99190611d44565b60405180910390f35b3480156102ee57600080fd5b5061030960048036036103049190810190611680565b610aa8565b604051610317929190611f5b565b60405180910390f35b34801561032c57600080fd5b50610335610ae1565b6040516103429190611d0e565b60405180910390f35b34801561035757600080fd5b50610360610b0a565b60405161036d9190611d29565b60405180910390f35b34801561038257600080fd5b5061039d600480360361039891908101906117f8565b610b68565b6040516103ad9493929190611da4565b60405180910390f35b3480156103c257600080fd5b506103cb610b99565b6040516103d89190611e19565b60405180910390f35b3480156103ed57600080fd5b50610408600480360361040391908101906117bc565b610bd6565b6040516104159190611d29565b60405180910390f35b34801561042a57600080fd5b50610445600480360361044091908101906117f8565b610dc6565b6040516104529190611d29565b60405180910390f35b34801561046757600080fd5b50610482600480360361047d9190810190611657565b610df8565b60405161048f9190611d29565b60405180910390f35b3480156104a457600080fd5b506104bf60048036036104ba9190810190611780565b610e4e565b005b3480156104cd57600080fd5b506104e860048036036104e391908101906118f9565b610f27565b005b3480156104f657600080fd5b50610511600480360361050c91908101906117f8565b610ff3565b60405161051e9190611f8b565b60405180910390f35b34801561053357600080fd5b5061054e60048036036105499190810190611657565b611020565b005b600061056361055d611073565b83610bd6565b9050919050565b61057a610575611073565b610df8565b61058357600080fd5b50565b610596610591611073565b610df8565b6105d5576040517f08c379a00000000000000000000000000000000000000000000000000000000081526004016105cc90611efb565b60405180910390fd5b60008360ff161161061b576040517f08c379a000000000000000000000000000000000000000000000000000000000815260040161061290611e9b565b60405180910390fd5b61062484610dc6565b15610664576040517f08c379a000000000000000000000000000000000000000000000000000000000815260040161065b90611f3b565b60405180910390fd5b61066c6113b3565b60405180606001604052808560ff168152602001848152602001838152509050806003600087815260200190815260200160002060008201518160000160006101000a81548160ff021916908360ff16021790555060208201518160010190805190602001906106dd9291906113d7565b5060408201518160020190805190602001906106fa929190611457565b509050507f351e5d0cad7bc76760c9be0a0ed708768225aac9fd434422fb126edd014a42df8560405161072d9190611d44565b60405180910390a15050505050565b6060600360008381526020019081526020016000206002018054600181600116156101000203166002900480601f0160208091040260200160405190810160405280929190818152602001828054600181600116156101000203166002900480156107e85780601f106107bd576101008083540402835291602001916107e8565b820191906000526020600020905b8154815290600101906020018083116107cb57829003601f168201915b50505050509050919050565b6107fc610b0a565b61083b576040517f08c379a000000000000000000000000000000000000000000000000000000000815260040161083290611edb565b60405180910390fd5b600073ffffffffffffffffffffffffffffffffffffffff166000809054906101000a900473ffffffffffffffffffffffffffffffffffffffff1673ffffffffffffffffffffffffffffffffffffffff167f8be0079c531659141344cd1fd0a4f28419497f9722a3daafe3b4186f6b6457e060405160405180910390a360008060006101000a81548173ffffffffffffffffffffffffffffffffffffffff021916908373ffffffffffffffffffffffffffffffffffffffff160217905550565b6060600360008381526020019081526020016000206001018054600181600116156101000203166002900480601f0160208091040260200160405190810160405280929190818152602001828054600181600116156101000203166002900480156109a65780601f1061097b576101008083540402835291602001916109a6565b820191906000526020600020905b81548152906001019060200180831161098957829003601f168201915b50505050509050919050565b6000600160009054906101000a900473ffffffffffffffffffffffffffffffffffffffff16905090565b60006109e66109b2565b73ffffffffffffffffffffffffffffffffffffffff163373ffffffffffffffffffffffffffffffffffffffff1614610a53576040517f08c379a0000000000000000000000000000000000000000000000000000000008152600401610a4a90611f1b565b60405180910390fd5b610aa083838080601f016020809104026020016040519081016040528093929190818152602001838380828437600081840152601f19601f820116905080830192505050505050506110e0565b905092915050565b60006060610abc610ab7611073565b610df8565b610ac557600080fd5b610acd6110e7565b915091509b509b9950505050505050505050565b60008060009054906101000a900473ffffffffffffffffffffffffffffffffffffffff16905090565b60008060009054906101000a900473ffffffffffffffffffffffffffffffffffffffff1673ffffffffffffffffffffffffffffffffffffffff16610b4c611073565b73ffffffffffffffffffffffffffffffffffffffff1614905090565b60008060608084610b7886610ff3565b610b81876108fa565b610b8a8861073c565b93509350935093509193509193565b60606040518060400160405280600581526020017f312e302e30000000000000000000000000000000000000000000000000000000815250905090565b600060056007811115610be557fe5b6003600084815260200190815260200160002060000160009054906101000a900460ff1660ff166007811115610c1757fe5b6007811115610c2257fe5b14610c62576040517f08c379a0000000000000000000000000000000000000000000000000000000008152600401610c5990611e5b565b60405180910390fd5b60006003600084815260200190815260200160002060020180546001816001161561010002031660029004905011610ccf576040517f08c379a0000000000000000000000000000000000000000000000000000000008152600401610cc690611e3b565b60405180910390fd5b610d90600360008481526020019081526020016000206002018054600181600116156101000203166002900480601f016020809104026020016040519081016040528092919081815260200182805460018160011615610100020316600290048015610d7c5780601f10610d5157610100808354040283529160200191610d7c565b820191906000526020600020905b815481529060010190602001808311610d5f57829003601f168201915b50505050508361110b90919063ffffffff16565b73ffffffffffffffffffffffffffffffffffffffff168373ffffffffffffffffffffffffffffffffffffffff1614905092915050565b6000806003600084815260200190815260200160002060000160009054906101000a900460ff1660ff16119050919050565b6000600260008373ffffffffffffffffffffffffffffffffffffffff1673ffffffffffffffffffffffffffffffffffffffff16815260200190815260200160002060009054906101000a900460ff169050919050565b610e56610b0a565b610e95576040517f08c379a0000000000000000000000000000000000000000000000000000000008152600401610e8c90611edb565b60405180910390fd5b80600260008473ffffffffffffffffffffffffffffffffffffffff1673ffffffffffffffffffffffffffffffffffffffff16815260200190815260200160002060006101000a81548160ff0219169083151502179055507f4a249455b9cbb17d2537cf8b10b48f47d4a3662fa15715680e3488480c7df20f82604051610f1b9190611d0e565b60405180910390a15050565b610f2f6109b2565b73ffffffffffffffffffffffffffffffffffffffff163373ffffffffffffffffffffffffffffffffffffffff1614610f9c576040517f08c379a0000000000000000000000000000000000000000000000000000000008152600401610f9390611f1b565b60405180910390fd5b610fec85858080601f016020809104026020016040519081016040528093929190818152602001838380828437600081840152601f19601f820116905080830192505050505050508484846111f7565b5050505050565b60006003600083815260200190815260200160002060000160009054906101000a900460ff169050919050565b611028610b0a565b611067576040517f08c379a000000000000000000000000000000000000000000000000000000000815260040161105e90611edb565b60405180910390fd5b611070816111fd565b50565b6000600160009054906101000a900473ffffffffffffffffffffffffffffffffffffffff1673ffffffffffffffffffffffffffffffffffffffff163373ffffffffffffffffffffffffffffffffffffffff16146110d2573390506110dd565b6110da61132b565b90505b90565b6000919050565b60006060611103604051806020016040528060008152506113a3565b915091509091565b6000604182511461111f57600090506111f1565b60008060006020850151925060408501519150606085015160001a90507f7fffffffffffffffffffffffffffffff5d576e7357a4501ddfe92f46681b20a08260001c111561117357600093505050506111f1565b601b8160ff161415801561118b5750601c8160ff1614155b1561119c57600093505050506111f1565b600186828585604051600081526020016040526040516111bf9493929190611d5f565b6020604051602081039080840390855afa1580156111e1573d6000803e3d6000fd5b5050506020604051035193505050505b92915050565b50505050565b600073ffffffffffffffffffffffffffffffffffffffff168173ffffffffffffffffffffffffffffffffffffffff16141561126d576040517f08c379a000000000000000000000000000000000000000000000000000000000815260040161126490611e7b565b60405180910390fd5b8073ffffffffffffffffffffffffffffffffffffffff166000809054906101000a900473ffffffffffffffffffffffffffffffffffffffff1673ffffffffffffffffffffffffffffffffffffffff167f8be0079c531659141344cd1fd0a4f28419497f9722a3daafe3b4186f6b6457e060405160405180910390a3806000806101000a81548173ffffffffffffffffffffffffffffffffffffffff021916908373ffffffffffffffffffffffffffffffffffffffff16021790555050565b600060606000368080601f016020809104026020016040519081016040528093929190818152602001838380828437600081840152601f19601f820116905080830192505050505050509050600080369050905073ffffffffffffffffffffffffffffffffffffffff81830151169250829250505090565b6000606060008391509150915091565b6040518060600160405280600060ff16815260200160608152602001606081525090565b828054600181600116156101000203166002900490600052602060002090601f016020900481019282601f1061141857805160ff1916838001178555611446565b82800160010185558215611446579182015b8281111561144557825182559160200191906001019061142a565b5b50905061145391906114d7565b5090565b828054600181600116156101000203166002900490600052602060002090601f016020900481019282601f1061149857805160ff19168380011785556114c6565b828001600101855582156114c6579182015b828111156114c55782518255916020019190600101906114aa565b5b5090506114d391906114d7565b5090565b6114f991905b808211156114f55760008160009055506001016114dd565b5090565b90565b60008135905061150b81612115565b92915050565b6000813590506115208161212c565b92915050565b60008135905061153581612143565b92915050565b60008083601f84011261154d57600080fd5b8235905067ffffffffffffffff81111561156657600080fd5b60208301915083600182028301111561157e57600080fd5b9250929050565b600082601f83011261159657600080fd5b81356115a96115a482611fd3565b611fa6565b915080825260208301602083018583830111156115c557600080fd5b6115d08382846120c2565b50505092915050565b600082601f8301126115ea57600080fd5b81356115fd6115f882611fff565b611fa6565b9150808252602083016020830185838301111561161957600080fd5b6116248382846120c2565b50505092915050565b60008135905061163c8161215a565b92915050565b60008135905061165181612171565b92915050565b60006020828403121561166957600080fd5b6000611677848285016114fc565b91505092915050565b60008060008060008060008060008060006101208c8e0312156116a257600080fd5b60006116b08e828f016114fc565b9b505060206116c18e828f016114fc565b9a505060408c013567ffffffffffffffff8111156116de57600080fd5b6116ea8e828f0161153b565b995099505060606116fd8e828f0161162d565b975050608061170e8e828f0161162d565b96505060a061171f8e828f0161162d565b95505060c06117308e828f0161162d565b94505060e08c013567ffffffffffffffff81111561174d57600080fd5b6117598e828f0161153b565b935093505061010061176d8e828f0161162d565b9150509295989b509295989b9093969950565b6000806040838503121561179357600080fd5b60006117a1858286016114fc565b92505060206117b285828601611511565b9150509250929050565b600080604083850312156117cf57600080fd5b60006117dd858286016114fc565b92505060206117ee85828601611526565b9150509250929050565b60006020828403121561180a57600080fd5b600061181884828501611526565b91505092915050565b6000806000806080858703121561183757600080fd5b600061184587828801611526565b945050602061185687828801611642565b935050604085013567ffffffffffffffff81111561187357600080fd5b61187f878288016115d9565b925050606085013567ffffffffffffffff81111561189c57600080fd5b6118a887828801611585565b91505092959194509250565b600080602083850312156118c757600080fd5b600083013567ffffffffffffffff8111156118e157600080fd5b6118ed8582860161153b565b92509250509250929050565b60008060008060006080868803121561191157600080fd5b600086013567ffffffffffffffff81111561192b57600080fd5b6119378882890161153b565b9550955050602061194a88828901611511565b935050604061195b8882890161162d565b925050606061196c88828901611526565b9150509295509295909350565b61198281612063565b82525050565b61199181612075565b82525050565b6119a081612081565b82525050565b60006119b18261202b565b6119bb8185612041565b93506119cb8185602086016120d1565b6119d481612104565b840191505092915050565b60006119ea82612036565b6119f48185612052565b9350611a048185602086016120d1565b611a0d81612104565b840191505092915050565b6000611a25601583612052565b91507f4e6f207369676e61747572652070726f766964656400000000000000000000006000830152602082019050919050565b6000611a65602383612052565b91507f4974656d73206973206e6f74206f6620747970652045746848617368506c757360008301527f53696700000000000000000000000000000000000000000000000000000000006020830152604082019050919050565b6000611acb602683612052565b91507f4f776e61626c653a206e6577206f776e657220697320746865207a65726f206160008301527f64647265737300000000000000000000000000000000000000000000000000006020830152604082019050919050565b6000611b31602383612052565b91507f4974656d2074797065206d757374206265206120706f736974697665206e756d60008301527f62657200000000000000000000000000000000000000000000000000000000006020830152604082019050919050565b6000611b97601f83612052565b91507f546869732077616c6c657420646f6573206e6f742061636365707420457468006000830152602082019050919050565b6000611bd7602083612052565b91507f4f776e61626c653a2063616c6c6572206973206e6f7420746865206f776e65726000830152602082019050919050565b6000611c17601683612052565b91507f4163636f756e74206e6f742072656769737465726564000000000000000000006000830152602082019050919050565b6000611c57602483612052565b91507f47534e526563697069656e743a2063616c6c6572206973206e6f742052656c6160008301527f79487562000000000000000000000000000000000000000000000000000000006020830152604082019050919050565b6000611cbd601383612052565b91507f4974656d20616c726561647920657869737473000000000000000000000000006000830152602082019050919050565b611cf9816120ab565b82525050565b611d08816120b5565b82525050565b6000602082019050611d236000830184611979565b92915050565b6000602082019050611d3e6000830184611988565b92915050565b6000602082019050611d596000830184611997565b92915050565b6000608082019050611d746000830187611997565b611d816020830186611cff565b611d8e6040830185611997565b611d9b6060830184611997565b95945050505050565b6000608082019050611db96000830187611997565b611dc66020830186611cff565b8181036040830152611dd881856119df565b90508181036060830152611dec81846119a6565b905095945050505050565b60006020820190508181036000830152611e1181846119a6565b905092915050565b60006020820190508181036000830152611e3381846119df565b905092915050565b60006020820190508181036000830152611e5481611a18565b9050919050565b60006020820190508181036000830152611e7481611a58565b9050919050565b60006020820190508181036000830152611e9481611abe565b9050919050565b60006020820190508181036000830152611eb481611b24565b9050919050565b60006020820190508181036000830152611ed481611b8a565b9050919050565b60006020820190508181036000830152611ef481611bca565b9050919050565b60006020820190508181036000830152611f1481611c0a565b9050919050565b60006020820190508181036000830152611f3481611c4a565b9050919050565b60006020820190508181036000830152611f5481611cb0565b9050919050565b6000604082019050611f706000830185611cf0565b8181036020830152611f8281846119a6565b90509392505050565b6000602082019050611fa06000830184611cff565b92915050565b6000604051905081810181811067ffffffffffffffff82111715611fc957600080fd5b8060405250919050565b600067ffffffffffffffff821115611fea57600080fd5b601f19601f8301169050602081019050919050565b600067ffffffffffffffff82111561201657600080fd5b601f19601f8301169050602081019050919050565b600081519050919050565b600081519050919050565b600082825260208201905092915050565b600082825260208201905092915050565b600061206e8261208b565b9050919050565b60008115159050919050565b6000819050919050565b600073ffffffffffffffffffffffffffffffffffffffff82169050919050565b6000819050919050565b600060ff82169050919050565b82818337600083830152505050565b60005b838110156120ef5780820151818401526020810190506120d4565b838111156120fe576000848401525b50505050565b6000601f19601f8301169050919050565b61211e81612063565b811461212957600080fd5b50565b61213581612075565b811461214057600080fd5b50565b61214c81612081565b811461215757600080fd5b50565b612163816120ab565b811461216e57600080fd5b50565b61217a816120b5565b811461218557600080fd5b5056fea365627a7a72315820a32791c4abbd8bfbec8b2d5c8d940efaf5a4ce37ec2476006296f862ba2450b66c6578706572696d656e74616cf564736f6c63430005100040",
  "source": "pragma solidity ^0.5.16;\npragma experimental ABIEncoderV2;\n\nimport \"@openzeppelin/contracts/ownership/Ownable.sol\";\nimport \"@openzeppelin/contracts/GSN/GSNRecipient.sol\";\nimport \"@openzeppelin/contracts/cryptography/ECDSA.sol\";\n\ncontract Registry is Ownable, GSNRecipient {\n\n    mapping(address => bool) registered;\n\n    event updatedRegistry(address);\n\n    function isRegistered(address _addr) public view returns (bool) {\n        return registered[_addr];\n    }\n\n    function updateRegistry(address _addr, bool _active) public onlyOwner {\n        registered[_addr] = _active;\n        emit updatedRegistry(_addr);\n    }\n}\n\ncontract ItemNotary is Registry {\n\n    using ECDSA for bytes32;\n\n    enum ItemTypes {Invalid, Exists, Sha256, Sha3, EthSig, Sha3PlusEthSig, Passphrase, Other}\n\n    //enum itemTypes {Invalid, Exists, Sha256, Sha3, EthSig, EthHashPlusSig, BTCSig, BTCHashPlusSig, Passphrase, Other}\n\n    struct Item {\n        uint8 itemType; //\n        string url; // optional\n        // Only if on-chain proof required\n        bytes signature; // optional\n    }\n\n    mapping(bytes32 => Item) items;\n\n    event addedItem(bytes32 itemHash);\n\n    constructor() public {}\n\n    function()\n    external\n    payable\n    {\n        revert('This wallet does not accept Eth');\n    }\n\n    function storeItem(bytes32 _itemHash, uint8 _itemType, string memory _link, bytes memory _signature)\n    public\n    {\n        require(isRegistered(_msgSender()), \"Account not registered\");\n        require(_itemType > 0, \"Item type must be a positive number\");\n        require(!isItem(_itemHash), \"Item already exists\");\n\n        Item memory item = Item(_itemType, _link, _signature);\n        items[_itemHash] = item;\n        emit addedItem(_itemHash);\n    }\n\n    function getItem(bytes32 _itemHash)\n    public\n    view\n    returns\n    (bytes32 itemHash, uint8 itemType, string memory link, bytes memory signature)\n    {\n        return (_itemHash, getItemType(_itemHash), getItemLink(_itemHash), getItemSig(_itemHash));\n    }\n\n    function isItem(bytes32 _itemHash)\n    public\n    view\n    returns\n    (bool)\n    {\n        return (items[_itemHash].itemType > 0);\n    }\n\n    function getItemType(bytes32 _itemHash)\n    public\n    view\n    returns\n    (uint8)\n    {\n        return items[_itemHash].itemType;\n    }\n\n    function getItemLink(bytes32 _itemHash)\n    public\n    view\n    returns\n    (string memory link)\n    {\n        return items[_itemHash].url;\n    }\n\n    function getItemSig(bytes32 _itemHash)\n    public\n    view\n    returns\n    (bytes memory)\n    {\n        return items[_itemHash].signature;\n    }\n\n    /**\n     * Only applicable if use is the owner...\n     */\n    function tradeThisItem(bytes32 _itemHash)\n    public\n    {\n        require(isRegistered(_msgSender()));\n        //require(proof of ownership)\n        // transfer\n    }\n\n    function acceptRelayedCall(\n        address relay,\n        address from,\n        bytes calldata encodedFunction,\n        uint256 transactionFee,\n        uint256 gasPrice,\n        uint256 gasLimit,\n        uint256 nonce,\n        bytes calldata approvalData,\n        uint256 maxPossibleCharge\n    )\n    external\n    view\n    returns\n    (uint256, bytes memory)\n    {\n        require(isRegistered(_msgSender()));\n        // require gas\n        // transaction fee\n        // max possible charge\n        return _approveRelayedCall();\n    }\n\n\n    function _preRelayedCall(bytes memory context)\n    internal\n    returns\n    (bytes32)\n    {\n        // not implemented\n    }\n\n    function _postRelayedCall(bytes memory context, bool, uint256 actualCharge, bytes32)\n    internal\n    {\n        // not implemented\n    }\n\n    function senderIsSigner(bytes32 _itemHash)\n    public\n    view\n    returns\n    (bool)\n    {\n        return (addressIsOwner(_msgSender(), _itemHash));\n    }\n\n    function addressIsOwner(address _address, bytes32 _itemHash)\n    public\n    view\n    returns\n    (bool isSigner)\n    {\n        require(ItemTypes(items[_itemHash].itemType) == ItemTypes.Sha3PlusEthSig, \"Items is not of type EthHashPlusSig\");\n        require(items[_itemHash].signature.length > 0, \"No signature provided\"); // @note length returns true in 0.6\n        return _address == _itemHash.recover(items[_itemHash].signature);\n    }\n}\n\n// sign(keccak256(\"\\x19Ethereum Signed Message:\\n\" + len(message) + message)))\n\n//    function compareStrings (string memory a, string memory b) public view\n//    returns (bool) {\n//        return (keccak256(abi.encodePacked((a))) == keccak256(abi.encodePacked((b))) );\n//\n//    }\n\n\n",
  "sourcePath": "/Users/x/Documents/webs/notariseMe/contracts/contracts/ItemNotary.sol",
  "compiler": {
    "name": "solc",
    "version": "0.5.16+commit.9c3226ce.Emscripten.clang"
  },
  "schemaVersion": "3.0.23",
  "updatedAt": "2020-03-12T12:47:55.362Z",
  "networkType": "ethereum",
  "devdoc": {
    "methods": {
      "getHubAddr()": {
        "details": "Returns the address of the {IRelayHub} contract for this recipient."
      },
      "isOwner()": {
        "details": "Returns true if the caller is the current owner."
      },
      "owner()": {
        "details": "Returns the address of the current owner."
      },
      "postRelayedCall(bytes,bool,uint256,bytes32)": {
        "details": "See `IRelayRecipient.postRelayedCall`.     * This function should not be overriden directly, use `_postRelayedCall` instead.     * * Requirements:     * - the caller must be the `RelayHub` contract."
      },
      "preRelayedCall(bytes)": {
        "details": "See `IRelayRecipient.preRelayedCall`.     * This function should not be overriden directly, use `_preRelayedCall` instead.     * * Requirements:     * - the caller must be the `RelayHub` contract."
      },
      "relayHubVersion()": {
        "details": "Returns the version string of the {IRelayHub} for which this recipient implementation was built. If {_upgradeRelayHub} is used, the new {IRelayHub} instance should be compatible with this version."
      },
      "renounceOwnership()": {
        "details": "Leaves the contract without owner. It will not be possible to call `onlyOwner` functions anymore. Can only be called by the current owner.     * NOTE: Renouncing ownership will leave the contract without an owner, thereby removing any functionality that is only available to the owner."
      },
      "transferOwnership(address)": {
        "details": "Transfers ownership of the contract to a new account (`newOwner`). Can only be called by the current owner."
      }
    }
  },
  "userdoc": {
    "methods": {
      "tradeThisItem(bytes32)": {
        "notice": "Only applicable if use is the owner..."
      }
    }
  }
}