{
  "contractName": "Notary",
  "abi": [
    {
      "inputs": [],
      "payable": false,
      "stateMutability": "nonpayable",
      "type": "constructor"
    },
    {
      "anonymous": false,
      "inputs": [
        {
          "indexed": false,
          "internalType": "bytes32",
          "name": "hash",
          "type": "bytes32"
        }
      ],
      "name": "Notarise",
      "type": "event"
    },
    {
      "anonymous": false,
      "inputs": [
        {
          "indexed": true,
          "internalType": "address",
          "name": "previousOwner",
          "type": "address"
        },
        {
          "indexed": true,
          "internalType": "address",
          "name": "newOwner",
          "type": "address"
        }
      ],
      "name": "OwnershipTransferred",
      "type": "event"
    },
    {
      "anonymous": false,
      "inputs": [],
      "name": "updatedRegistry",
      "type": "event"
    },
    {
      "constant": true,
      "inputs": [],
      "name": "isOwner",
      "outputs": [
        {
          "internalType": "bool",
          "name": "",
          "type": "bool"
        }
      ],
      "payable": false,
      "stateMutability": "view",
      "type": "function"
    },
    {
      "constant": true,
      "inputs": [
        {
          "internalType": "address",
          "name": "_addr",
          "type": "address"
        }
      ],
      "name": "isRegistered",
      "outputs": [
        {
          "internalType": "bool",
          "name": "",
          "type": "bool"
        }
      ],
      "payable": false,
      "stateMutability": "view",
      "type": "function"
    },
    {
      "constant": true,
      "inputs": [],
      "name": "owner",
      "outputs": [
        {
          "internalType": "address",
          "name": "",
          "type": "address"
        }
      ],
      "payable": false,
      "stateMutability": "view",
      "type": "function"
    },
    {
      "constant": false,
      "inputs": [],
      "name": "renounceOwnership",
      "outputs": [],
      "payable": false,
      "stateMutability": "nonpayable",
      "type": "function"
    },
    {
      "constant": false,
      "inputs": [
        {
          "internalType": "address",
          "name": "newOwner",
          "type": "address"
        }
      ],
      "name": "transferOwnership",
      "outputs": [],
      "payable": false,
      "stateMutability": "nonpayable",
      "type": "function"
    },
    {
      "constant": false,
      "inputs": [
        {
          "internalType": "address",
          "name": "_addr",
          "type": "address"
        },
        {
          "internalType": "bool",
          "name": "_active",
          "type": "bool"
        }
      ],
      "name": "updateRegistry",
      "outputs": [],
      "payable": false,
      "stateMutability": "nonpayable",
      "type": "function"
    },
    {
      "constant": true,
      "inputs": [],
      "name": "getCount",
      "outputs": [
        {
          "internalType": "uint256",
          "name": "",
          "type": "uint256"
        }
      ],
      "payable": false,
      "stateMutability": "view",
      "type": "function"
    },
    {
      "constant": false,
      "inputs": [
        {
          "internalType": "bytes32",
          "name": "_id",
          "type": "bytes32"
        },
        {
          "internalType": "uint8",
          "name": "_idType",
          "type": "uint8"
        },
        {
          "internalType": "bytes32",
          "name": "hash",
          "type": "bytes32"
        }
      ],
      "name": "notarise",
      "outputs": [],
      "payable": false,
      "stateMutability": "nonpayable",
      "type": "function"
    },
    {
      "constant": true,
      "inputs": [
        {
          "internalType": "bytes32",
          "name": "sha",
          "type": "bytes32"
        }
      ],
      "name": "isRecorded",
      "outputs": [
        {
          "internalType": "bool",
          "name": "",
          "type": "bool"
        }
      ],
      "payable": false,
      "stateMutability": "view",
      "type": "function"
    },
    {
      "constant": true,
      "inputs": [
        {
          "internalType": "bytes32",
          "name": "hash",
          "type": "bytes32"
        },
        {
          "internalType": "bytes",
          "name": "sig",
          "type": "bytes"
        }
      ],
      "name": "ecrecovery",
      "outputs": [
        {
          "internalType": "address",
          "name": "",
          "type": "address"
        }
      ],
      "payable": false,
      "stateMutability": "view",
      "type": "function"
    },
    {
      "constant": true,
      "inputs": [
        {
          "internalType": "bytes32",
          "name": "hash",
          "type": "bytes32"
        },
        {
          "internalType": "bytes",
          "name": "sig",
          "type": "bytes"
        },
        {
          "internalType": "address",
          "name": "signer",
          "type": "address"
        }
      ],
      "name": "ecverify",
      "outputs": [
        {
          "internalType": "bool",
          "name": "",
          "type": "bool"
        }
      ],
      "payable": false,
      "stateMutability": "view",
      "type": "function"
    }
  ],
  "bytecode": "0x608060405234801561001057600080fd5b5061001f6100df60201b60201c565b6000806101000a81548173ffffffffffffffffffffffffffffffffffffffff021916908373ffffffffffffffffffffffffffffffffffffffff1602179055506000809054906101000a900473ffffffffffffffffffffffffffffffffffffffff1673ffffffffffffffffffffffffffffffffffffffff16600073ffffffffffffffffffffffffffffffffffffffff167f8be0079c531659141344cd1fd0a4f28419497f9722a3daafe3b4186f6b6457e060405160405180910390a36100e7565b600033905090565b610c2f806100f66000396000f3fe608060405234801561001057600080fd5b50600436106100a95760003560e01c80638f32d59b116100715780638f32d59b1461034a578063a87d942c1461036c578063c3c5a5471461038a578063c5552c74146103e6578063e34916e414610436578063f2fde38b1461047b576100a9565b806312dcb7a0146100ae57806339cdde32146100f4578063715018a6146101f157806377d32e94146101fb5780638da5cb5b14610300575b600080fd5b6100da600480360360208110156100c457600080fd5b81019080803590602001909291905050506104bf565b604051808215151515815260200191505060405180910390f35b6101d76004803603606081101561010a57600080fd5b81019080803590602001909291908035906020019064010000000081111561013157600080fd5b82018360208201111561014357600080fd5b8035906020019184600183028401116401000000008311171561016557600080fd5b91908080601f016020809104026020016040519081016040528093929190818152602001838380828437600081840152601f19601f820116905080830192505050505050509192919290803573ffffffffffffffffffffffffffffffffffffffff1690602001909291905050506104ca565b604051808215151515815260200191505060405180910390f35b6101f961050d565b005b6102be6004803603604081101561021157600080fd5b81019080803590602001909291908035906020019064010000000081111561023857600080fd5b82018360208201111561024a57600080fd5b8035906020019184600183028401116401000000008311171561026c57600080fd5b91908080601f016020809104026020016040519081016040528093929190818152602001838380828437600081840152601f19601f820116905080830192505050505050509192919290505050610646565b604051808273ffffffffffffffffffffffffffffffffffffffff1673ffffffffffffffffffffffffffffffffffffffff16815260200191505060405180910390f35b610308610728565b604051808273ffffffffffffffffffffffffffffffffffffffff1673ffffffffffffffffffffffffffffffffffffffff16815260200191505060405180910390f35b610352610751565b604051808215151515815260200191505060405180910390f35b6103746107af565b6040518082815260200191505060405180910390f35b6103cc600480360360208110156103a057600080fd5b81019080803573ffffffffffffffffffffffffffffffffffffffff1690602001909291905050506107b9565b604051808215151515815260200191505060405180910390f35b610434600480360360408110156103fc57600080fd5b81019080803573ffffffffffffffffffffffffffffffffffffffff16906020019092919080351515906020019092919050505061080f565b005b6104796004803603606081101561044c57600080fd5b8101908080359060200190929190803560ff16906020019092919080359060200190929190505050610910565b005b6104bd6004803603602081101561049157600080fd5b81019080803573ffffffffffffffffffffffffffffffffffffffff1690602001909291905050506109e2565b005b600060019050919050565b60006104d68484610646565b73ffffffffffffffffffffffffffffffffffffffff168273ffffffffffffffffffffffffffffffffffffffff161490509392505050565b610515610751565b610587576040517f08c379a00000000000000000000000000000000000000000000000000000000081526004018080602001828103825260208152602001807f4f776e61626c653a2063616c6c6572206973206e6f7420746865206f776e657281525060200191505060405180910390fd5b600073ffffffffffffffffffffffffffffffffffffffff166000809054906101000a900473ffffffffffffffffffffffffffffffffffffffff1673ffffffffffffffffffffffffffffffffffffffff167f8be0079c531659141344cd1fd0a4f28419497f9722a3daafe3b4186f6b6457e060405160405180910390a360008060006101000a81548173ffffffffffffffffffffffffffffffffffffffff021916908373ffffffffffffffffffffffffffffffffffffffff160217905550565b60008060008060418551146106615760009350505050610722565b602085015192506040850151915060ff6041860151169050601b8160ff16101561068c57601b810190505b601b8160ff16141580156106a45750601c8160ff1614155b156106b55760009350505050610722565b60018682858560405160008152602001604052604051808581526020018460ff1660ff1681526020018381526020018281526020019450505050506020604051602081039080840390855afa158015610712573d6000803e3d6000fd5b5050506020604051035193505050505b92915050565b60008060009054906101000a900473ffffffffffffffffffffffffffffffffffffffff16905090565b60008060009054906101000a900473ffffffffffffffffffffffffffffffffffffffff1673ffffffffffffffffffffffffffffffffffffffff16610793610a68565b73ffffffffffffffffffffffffffffffffffffffff1614905090565b6000600354905090565b6000600160008373ffffffffffffffffffffffffffffffffffffffff1673ffffffffffffffffffffffffffffffffffffffff16815260200190815260200160002060009054906101000a900460ff169050919050565b610817610751565b610889576040517f08c379a00000000000000000000000000000000000000000000000000000000081526004018080602001828103825260208152602001807f4f776e61626c653a2063616c6c6572206973206e6f7420746865206f776e657281525060200191505060405180910390fd5b80600160008473ffffffffffffffffffffffffffffffffffffffff1673ffffffffffffffffffffffffffffffffffffffff16815260200190815260200160002060006101000a81548160ff0219169083151502179055507fa85f323b90e9e51e0684b581f7b4600d7e8036947e51d2b3a2fe3fab7c65e97c60405160405180910390a15050565b610919336107b9565b61092257600080fd5b61092b816104bf565b1561093557600080fd5b61093d610bb4565b60405180604001604052808581526020018460ff16815250905080600260008481526020019081526020016000206000820151816000015560208201518160010160006101000a81548160ff021916908360ff1602179055509050506001600354016003819055507f35983fe11458a3a89e173189b95d610445d86b5a1a11a3c87faf08c7f6c463da826040518082815260200191505060405180910390a150505050565b6109ea610751565b610a5c576040517f08c379a00000000000000000000000000000000000000000000000000000000081526004018080602001828103825260208152602001807f4f776e61626c653a2063616c6c6572206973206e6f7420746865206f776e657281525060200191505060405180910390fd5b610a6581610a70565b50565b600033905090565b600073ffffffffffffffffffffffffffffffffffffffff168173ffffffffffffffffffffffffffffffffffffffff161415610af6576040517f08c379a0000000000000000000000000000000000000000000000000000000008152600401808060200182810382526026815260200180610bd56026913960400191505060405180910390fd5b8073ffffffffffffffffffffffffffffffffffffffff166000809054906101000a900473ffffffffffffffffffffffffffffffffffffffff1673ffffffffffffffffffffffffffffffffffffffff167f8be0079c531659141344cd1fd0a4f28419497f9722a3daafe3b4186f6b6457e060405160405180910390a3806000806101000a81548173ffffffffffffffffffffffffffffffffffffffff021916908373ffffffffffffffffffffffffffffffffffffffff16021790555050565b604051806040016040528060008019168152602001600060ff168152509056fe4f776e61626c653a206e6577206f776e657220697320746865207a65726f2061646472657373a265627a7a72315820c07d060713c2792afeddb129b4c9721ba8c545ab3f818ab423f65ead1080d18664736f6c63430005100032",
  "source": "//0.5.16\npragma solidity ^0.5.16;\n\n\n//@todo either here or in separate contract... Only accept signed messages...\n// That we we never have to risk what happens to the key... It does not manage any funds...\n//import \"@openzeppelin/contracts/token/ERC721/ERC721Full.sol\";\nimport \"@openzeppelin/contracts/ownership/Ownable.sol\";\n//^import owned from here\n\n\n//\n//import './Owned.sol';\n//import './Priced.sol';\n// add a registry\n// anyone can use directly if they pay\n// anyone can use directly if they are registered\n// add a simple registry\n\n\n// could just move this right in... it's going ot be pretty simple\ncontract Registry is Ownable {\n\n    mapping(address => bool) registered;\n    event updatedRegistry();\n\n    // statoc\n    function isRegistered(address _addr) public view returns (bool) {\n        return registered[_addr];\n    }\n\n    // proxy owner\n    function updateRegistry(address _addr, bool _active) public onlyOwner {\n        registered[_addr] = _active;\n        emit updatedRegistry();\n        // do we have to copy the whole object in for this to work?\n    } // this should probably belong to the proxy...\n}\n\ncontract Notary is Registry {\n\n    // not sure about this list... Should all data be kept in a separate contract\n    // and this make upgradeable\n    enum IDTypes { Private, IPFS, Email, ENS, EthAddress, BTCAddress, Other }\n\n\n    struct Record {\n        bytes32 id; // this may refer to anything... local db, ipfs.... there can only be one... cannot be changed\n        uint8 idType; // fire an event instead of a timestamp\n    }\n\n    // sha256 => Record\n    mapping(bytes32 => Record) _records;\n//    uint _price;\n    uint _recordCount; // auto 0\n\n\n    event Notarise(bytes32 hash);\n\n  //  function DocStamp(uint initialPrice) {\n    constructor() public {\n//        _price = initialPrice;\n       // _recordCount = 0; // is it not 0 amyway!?\n    }\n\n    // Thanks for the donation\n    // make not payable reject\n//    function () payable {\n//    }\n\n//    function drain() ownerOnly {\n//        _owner.transfer(this.balance);\n//    }\n\n//    function getPrice() constant returns (uint price) {\n//        price = _price;\n//    }\n\n    function getCount() public view returns (uint) {\n        return _recordCount;\n    }\n\n    // are string fixed in solidity now!!!??\n    //function stampDirect(string ownerEmail, string sha) {\n    // sign types\n\n\n\n    function notarise(bytes32 _id, uint8 _idType, bytes32 hash) public {\n        // check this will apply to proxy\n        require(isRegistered(msg.sender));\n        require(!isRecorded(hash));\n\n        Record memory rec = Record(_id, _idType);\n        _records[hash] = rec;\n        _recordCount = _recordCount + 1;\n\n        // hmmmm not sure about this duplication\n        emit Notarise(hash); // hmmm, we could just put it here and avoid storing on-chain in another way..._id type /\n        // could these be made tradeable\n    }\n\n//    function stamp(string ownerEmail, string sha) payable costs(_price) {\n//        require(!isRecorded(sha));\n//\n//        Record memory rec = Record(ownerEmail, now);\n//        _records[sha] = rec;\n//        _recordCount = _recordCount + 1;\n//    }\n\n    function isRecorded(bytes32 sha) public view returns (bool) {\n        return true;\n        //@todo !!!\n        //bool(_records[sha]);\n    }\n\n//    function lookup(bytes32 sha) public view returns(bytes32, uint) {\n//        Record memory rec = _records[sha];\n//        return (rec.email, rec.timeStamp);\n//    }\n\n    // only accept incoming messages from a proxy account...\n    // the proxy account exists on registrysolidity\n    // so... the contract that contains this is the one...this\n    // how do we request something to sign...\n\n\n    function ecrecovery(bytes32 hash, bytes memory sig) public view returns (address) {\n        bytes32 r;\n        bytes32 s;\n        uint8 v;\n\n        if (sig.length != 65) {\n            return address(0x0);\n        }\n\n        assembly {\n            r := mload(add(sig, 32))\n            s := mload(add(sig, 64))\n            v := and(mload(add(sig, 65)), 255)\n        }\n\n        // https://github.com/ethereum/go-ethereum/issues/2053\n        if (v < 27) {\n            v += 27;\n        }\n\n        if (v != 27 && v != 28) {\n            return address(0x0);\n        }\n\n        return ecrecover(hash, v, r, s);\n    }\n\n    function ecverify(bytes32 hash, bytes memory sig, address signer) public view returns (bool) {\n        return signer == ecrecovery(hash, sig);\n    }\n\n//    function updatePrice(uint newPrice) public ownerOnly {\n//        _price = newPrice;\n//    }\n}\n\n\n/*\n\npragma solidity ^0.4.4;\n\nimport './Ownable.sol';\n\ncontract Notary is Ownable {\n  mapping (bytes32 => address) public records;\n  mapping (bytes32 => uint256) public timestamps;\n\n  event LogNotarized(bytes32 indexed record, address indexed notarizer, uint256 timestamp);\n\n  function notarize(bytes32 record) external {\n    bytes32 hash = keccak256(record);\n    require(hash != keccak256(\"\"));\n    require(records[hash] == address(0));\n    require(timestamps[hash] == 0);\n    records[hash] = msg.sender;\n    timestamps[hash] = block.timestamp;\n\n    LogNotarized(hash, msg.sender, block.timestamp);\n  }\n\n  function exists(bytes32 record) constant returns (bool) {\n    bytes32 hash = keccak256(record);\n    return records[hash] != address(0);\n  }\n\n  function getNotarizer(bytes32 record) constant returns (address) {\n    return records[keccak256(record)];\n  }\n\n  function getTimestamp(bytes32 record) constant returns (uint256) {\n    return timestamps[keccak256(record)];\n  }\n\n  function didNotarize(bytes32 record) constant returns (bool) {\n    return records[keccak256(record)] == msg.sender;\n  }\n\n  function isNotarizer(bytes32 record, address notarizer) constant returns (bool) {\n    return records[keccak256(record)] == notarizer;\n  }\n\n  function ecrecovery(bytes32 hash, bytes sig) public constant returns (address) {\n    bytes32 r;\n    bytes32 s;\n    uint8 v;\n\n    if (sig.length != 65) {\n      return 0;\n    }\n\n    assembly {\n      r := mload(add(sig, 32))\n      s := mload(add(sig, 64))\n      v := and(mload(add(sig, 65)), 255)\n    }\n\n    // https://github.com/ethereum/go-ethereum/issues/2053\n    if (v < 27) {\n      v += 27;\n    }\n\n    if (v != 27 && v != 28) {\n      return 0;\n    }\n\n    return ecrecover(hash, v, r, s);\n  }\n\n  function ecverify(bytes32 hash, bytes sig, address signer) public constant returns (bool) {\n    return signer == ecrecovery(hash, sig);\n  }\n}\n\n\n\n\n\n\n\n\n*/",
  "sourcePath": "/Users/x/Documents/webs/notariseMe/contracts/contracts/Notary.sol",
  "compiler": {
    "name": "solc",
    "version": "0.5.16+commit.9c3226ce.Emscripten.clang"
  },
  "schemaVersion": "3.0.23",
  "updatedAt": "2020-02-04T12:27:58.720Z",
  "networkType": "ethereum",
  "devdoc": {
    "methods": {
      "isOwner()": {
        "details": "Returns true if the caller is the current owner."
      },
      "owner()": {
        "details": "Returns the address of the current owner."
      },
      "renounceOwnership()": {
        "details": "Leaves the contract without owner. It will not be possible to call `onlyOwner` functions anymore. Can only be called by the current owner.     * NOTE: Renouncing ownership will leave the contract without an owner, thereby removing any functionality that is only available to the owner."
      },
      "transferOwnership(address)": {
        "details": "Transfers ownership of the contract to a new account (`newOwner`). Can only be called by the current owner."
      }
    }
  },
  "userdoc": {
    "methods": {}
  }
}