{
  "contractName": "Notary",
  "abi": [
    {
      "inputs": [],
      "payable": false,
      "stateMutability": "nonpayable",
      "type": "constructor"
    },
    {
      "anonymous": false,
      "inputs": [
        {
          "indexed": true,
          "internalType": "address",
          "name": "previousOwner",
          "type": "address"
        },
        {
          "indexed": true,
          "internalType": "address",
          "name": "newOwner",
          "type": "address"
        }
      ],
      "name": "OwnershipTransferred",
      "type": "event"
    },
    {
      "anonymous": false,
      "inputs": [
        {
          "indexed": true,
          "internalType": "address",
          "name": "oldRelayHub",
          "type": "address"
        },
        {
          "indexed": true,
          "internalType": "address",
          "name": "newRelayHub",
          "type": "address"
        }
      ],
      "name": "RelayHubChanged",
      "type": "event"
    },
    {
      "anonymous": false,
      "inputs": [
        {
          "indexed": false,
          "internalType": "bytes32",
          "name": "itemHash",
          "type": "bytes32"
        }
      ],
      "name": "addedItem",
      "type": "event"
    },
    {
      "anonymous": false,
      "inputs": [
        {
          "indexed": false,
          "internalType": "address",
          "name": "",
          "type": "address"
        }
      ],
      "name": "updatedRegistry",
      "type": "event"
    },
    {
      "payable": true,
      "stateMutability": "payable",
      "type": "fallback"
    },
    {
      "constant": true,
      "inputs": [],
      "name": "getHubAddr",
      "outputs": [
        {
          "internalType": "address",
          "name": "",
          "type": "address"
        }
      ],
      "payable": false,
      "stateMutability": "view",
      "type": "function"
    },
    {
      "constant": true,
      "inputs": [],
      "name": "isOwner",
      "outputs": [
        {
          "internalType": "bool",
          "name": "",
          "type": "bool"
        }
      ],
      "payable": false,
      "stateMutability": "view",
      "type": "function"
    },
    {
      "constant": true,
      "inputs": [
        {
          "internalType": "address",
          "name": "_addr",
          "type": "address"
        }
      ],
      "name": "isRegistered",
      "outputs": [
        {
          "internalType": "bool",
          "name": "",
          "type": "bool"
        }
      ],
      "payable": false,
      "stateMutability": "view",
      "type": "function"
    },
    {
      "constant": true,
      "inputs": [],
      "name": "owner",
      "outputs": [
        {
          "internalType": "address",
          "name": "",
          "type": "address"
        }
      ],
      "payable": false,
      "stateMutability": "view",
      "type": "function"
    },
    {
      "constant": false,
      "inputs": [
        {
          "internalType": "bytes",
          "name": "context",
          "type": "bytes"
        },
        {
          "internalType": "bool",
          "name": "success",
          "type": "bool"
        },
        {
          "internalType": "uint256",
          "name": "actualCharge",
          "type": "uint256"
        },
        {
          "internalType": "bytes32",
          "name": "preRetVal",
          "type": "bytes32"
        }
      ],
      "name": "postRelayedCall",
      "outputs": [],
      "payable": false,
      "stateMutability": "nonpayable",
      "type": "function"
    },
    {
      "constant": false,
      "inputs": [
        {
          "internalType": "bytes",
          "name": "context",
          "type": "bytes"
        }
      ],
      "name": "preRelayedCall",
      "outputs": [
        {
          "internalType": "bytes32",
          "name": "",
          "type": "bytes32"
        }
      ],
      "payable": false,
      "stateMutability": "nonpayable",
      "type": "function"
    },
    {
      "constant": true,
      "inputs": [],
      "name": "relayHubVersion",
      "outputs": [
        {
          "internalType": "string",
          "name": "",
          "type": "string"
        }
      ],
      "payable": false,
      "stateMutability": "view",
      "type": "function"
    },
    {
      "constant": false,
      "inputs": [],
      "name": "renounceOwnership",
      "outputs": [],
      "payable": false,
      "stateMutability": "nonpayable",
      "type": "function"
    },
    {
      "constant": false,
      "inputs": [
        {
          "internalType": "address",
          "name": "newOwner",
          "type": "address"
        }
      ],
      "name": "transferOwnership",
      "outputs": [],
      "payable": false,
      "stateMutability": "nonpayable",
      "type": "function"
    },
    {
      "constant": false,
      "inputs": [
        {
          "internalType": "address",
          "name": "_addr",
          "type": "address"
        },
        {
          "internalType": "bool",
          "name": "_active",
          "type": "bool"
        }
      ],
      "name": "updateRegistry",
      "outputs": [],
      "payable": false,
      "stateMutability": "nonpayable",
      "type": "function"
    },
    {
      "constant": false,
      "inputs": [
        {
          "internalType": "bytes32",
          "name": "_itemHash",
          "type": "bytes32"
        },
        {
          "internalType": "uint8",
          "name": "_itemType",
          "type": "uint8"
        },
        {
          "internalType": "string",
          "name": "_link",
          "type": "string"
        }
      ],
      "name": "storeItem",
      "outputs": [],
      "payable": false,
      "stateMutability": "nonpayable",
      "type": "function"
    },
    {
      "constant": false,
      "inputs": [
        {
          "internalType": "bytes32",
          "name": "hash",
          "type": "bytes32"
        }
      ],
      "name": "getItem",
      "outputs": [
        {
          "internalType": "bytes32",
          "name": "itemHash",
          "type": "bytes32"
        },
        {
          "internalType": "uint8",
          "name": "itemType",
          "type": "uint8"
        },
        {
          "internalType": "string",
          "name": "_link",
          "type": "string"
        }
      ],
      "payable": false,
      "stateMutability": "nonpayable",
      "type": "function"
    },
    {
      "constant": false,
      "inputs": [
        {
          "internalType": "bytes32",
          "name": "_itemHash",
          "type": "bytes32"
        }
      ],
      "name": "isItem",
      "outputs": [
        {
          "internalType": "bool",
          "name": "",
          "type": "bool"
        }
      ],
      "payable": false,
      "stateMutability": "nonpayable",
      "type": "function"
    },
    {
      "constant": false,
      "inputs": [
        {
          "internalType": "bytes32",
          "name": "_itemHash",
          "type": "bytes32"
        }
      ],
      "name": "getItemType",
      "outputs": [
        {
          "internalType": "uint8",
          "name": "",
          "type": "uint8"
        }
      ],
      "payable": false,
      "stateMutability": "nonpayable",
      "type": "function"
    },
    {
      "constant": false,
      "inputs": [
        {
          "internalType": "bytes32",
          "name": "_itemHash",
          "type": "bytes32"
        }
      ],
      "name": "getItemLink",
      "outputs": [
        {
          "internalType": "string",
          "name": "link",
          "type": "string"
        }
      ],
      "payable": false,
      "stateMutability": "nonpayable",
      "type": "function"
    },
    {
      "constant": false,
      "inputs": [
        {
          "internalType": "bytes32",
          "name": "_itemHash",
          "type": "bytes32"
        },
        {
          "internalType": "bytes32",
          "name": "_signatory",
          "type": "bytes32"
        }
      ],
      "name": "isCreator",
      "outputs": [
        {
          "internalType": "bool",
          "name": "",
          "type": "bool"
        }
      ],
      "payable": false,
      "stateMutability": "nonpayable",
      "type": "function"
    },
    {
      "constant": false,
      "inputs": [],
      "name": "tradeThisItem",
      "outputs": [],
      "payable": false,
      "stateMutability": "nonpayable",
      "type": "function"
    },
    {
      "constant": true,
      "inputs": [
        {
          "internalType": "address",
          "name": "relay",
          "type": "address"
        },
        {
          "internalType": "address",
          "name": "from",
          "type": "address"
        },
        {
          "internalType": "bytes",
          "name": "encodedFunction",
          "type": "bytes"
        },
        {
          "internalType": "uint256",
          "name": "transactionFee",
          "type": "uint256"
        },
        {
          "internalType": "uint256",
          "name": "gasPrice",
          "type": "uint256"
        },
        {
          "internalType": "uint256",
          "name": "gasLimit",
          "type": "uint256"
        },
        {
          "internalType": "uint256",
          "name": "nonce",
          "type": "uint256"
        },
        {
          "internalType": "bytes",
          "name": "approvalData",
          "type": "bytes"
        },
        {
          "internalType": "uint256",
          "name": "maxPossibleCharge",
          "type": "uint256"
        }
      ],
      "name": "acceptRelayedCall",
      "outputs": [
        {
          "internalType": "uint256",
          "name": "",
          "type": "uint256"
        },
        {
          "internalType": "bytes",
          "name": "",
          "type": "bytes"
        }
      ],
      "payable": false,
      "stateMutability": "view",
      "type": "function"
    }
  ],
  "bytecode": "0x608060405273d216153c06e857cd7f72665e0af1d7d82172f494600160006101000a81548173ffffffffffffffffffffffffffffffffffffffff021916908373ffffffffffffffffffffffffffffffffffffffff16021790555034801561006557600080fd5b5061007461013460201b60201c565b6000806101000a81548173ffffffffffffffffffffffffffffffffffffffff021916908373ffffffffffffffffffffffffffffffffffffffff1602179055506000809054906101000a900473ffffffffffffffffffffffffffffffffffffffff1673ffffffffffffffffffffffffffffffffffffffff16600073ffffffffffffffffffffffffffffffffffffffff167f8be0079c531659141344cd1fd0a4f28419497f9722a3daafe3b4186f6b6457e060405160405180910390a361021f565b6000600160009054906101000a900473ffffffffffffffffffffffffffffffffffffffff1673ffffffffffffffffffffffffffffffffffffffff163373ffffffffffffffffffffffffffffffffffffffff1614610193573390506101a4565b6101a16101a760201b60201c565b90505b90565b600060606000368080601f016020809104026020016040519081016040528093929190818152602001838380828437600081840152601f19601f820116905080830192505050505050509050600080369050905073ffffffffffffffffffffffffffffffffffffffff81830151169250829250505090565b611a22806200022f6000396000f3fe6080604052600436106101095760003560e01c8063bc97a36611610095578063c5552c7411610064578063c5552c74146103b8578063da0474f3146103e1578063e06e0e221461041e578063e0b2f59914610447578063f2fde38b1461048457610109565b8063bc97a366146102fe578063be98562b14610327578063c00277fb1461033e578063c3c5a5471461037b57610109565b806383947ea0116100dc57806383947ea0146102005780638da5cb5b1461023e5780638f32d59b14610269578063aa0372e714610294578063ad61ccd5146102d357610109565b8063715018a614610144578063746756e91461015b57806374e861d61461019857806380274db7146101c3575b6040517f08c379a000000000000000000000000000000000000000000000000000000000815260040161013b9061175e565b60405180910390fd5b34801561015057600080fd5b506101596104ad565b005b34801561016757600080fd5b50610182600480360361017d9190810190611253565b6105b3565b60405161018f91906116fc565b60405180910390f35b3480156101a457600080fd5b506101ad61066b565b6040516101ba919061166d565b60405180910390f35b3480156101cf57600080fd5b506101ea60048036036101e5919081019061131f565b610695565b6040516101f791906116a3565b60405180910390f35b34801561020c57600080fd5b5061022760048036036102229190810190611117565b610761565b6040516102359291906117de565b60405180910390f35b34801561024a57600080fd5b50610253610781565b604051610260919061166d565b60405180910390f35b34801561027557600080fd5b5061027e6107aa565b60405161028b9190611688565b60405180910390f35b3480156102a057600080fd5b506102bb60048036036102b69190810190611253565b610808565b6040516102ca939291906116be565b60405180910390f35b3480156102df57600080fd5b506102e861085d565b6040516102f591906116fc565b60405180910390f35b34801561030a57600080fd5b50610325600480360361032091908101906112b8565b61089a565b005b34801561033357600080fd5b5061033c610a16565b005b34801561034a57600080fd5b5061036560048036036103609190810190611253565b610a18565b6040516103729190611688565b60405180910390f35b34801561038757600080fd5b506103a2600480360361039d91908101906110ee565b610a4a565b6040516103af9190611688565b60405180910390f35b3480156103c457600080fd5b506103df60048036036103da9190810190611217565b610aa0565b005b3480156103ed57600080fd5b506104086004803603610403919081019061127c565b610b79565b6040516104159190611688565b60405180910390f35b34801561042a57600080fd5b5061044560048036036104409190810190611364565b610b85565b005b34801561045357600080fd5b5061046e60048036036104699190810190611253565b610c51565b60405161047b919061180e565b60405180910390f35b34801561049057600080fd5b506104ab60048036036104a691908101906110ee565b610c7e565b005b6104b56107aa565b6104f4576040517f08c379a00000000000000000000000000000000000000000000000000000000081526004016104eb9061177e565b60405180910390fd5b600073ffffffffffffffffffffffffffffffffffffffff166000809054906101000a900473ffffffffffffffffffffffffffffffffffffffff1673ffffffffffffffffffffffffffffffffffffffff167f8be0079c531659141344cd1fd0a4f28419497f9722a3daafe3b4186f6b6457e060405160405180910390a360008060006101000a81548173ffffffffffffffffffffffffffffffffffffffff021916908373ffffffffffffffffffffffffffffffffffffffff160217905550565b6060600360008381526020019081526020016000206001018054600181600116156101000203166002900480601f01602080910402602001604051908101604052809291908181526020018280546001816001161561010002031660029004801561065f5780601f106106345761010080835404028352916020019161065f565b820191906000526020600020905b81548152906001019060200180831161064257829003601f168201915b50505050509050919050565b6000600160009054906101000a900473ffffffffffffffffffffffffffffffffffffffff16905090565b600061069f61066b565b73ffffffffffffffffffffffffffffffffffffffff163373ffffffffffffffffffffffffffffffffffffffff161461070c576040517f08c379a0000000000000000000000000000000000000000000000000000000008152600401610703906117be565b60405180910390fd5b61075983838080601f016020809104026020016040519081016040528093929190818152602001838380828437600081840152601f19601f82011690508083019250505050505050610cd1565b905092915050565b6000606061076d610cd8565b915091509b509b9950505050505050505050565b60008060009054906101000a900473ffffffffffffffffffffffffffffffffffffffff16905090565b60008060009054906101000a900473ffffffffffffffffffffffffffffffffffffffff1673ffffffffffffffffffffffffffffffffffffffff166107ec610cfc565b73ffffffffffffffffffffffffffffffffffffffff1614905090565b6000806060600060018160001b91508090506040518060400160405280600381526020017f666f6f00000000000000000000000000000000000000000000000000000000008152509250925092509193909250565b60606040518060400160405280600581526020017f312e302e30000000000000000000000000000000000000000000000000000000815250905090565b6108aa6108a5610cfc565b610a4a565b6108e9576040517f08c379a00000000000000000000000000000000000000000000000000000000081526004016108e09061179e565b60405180910390fd5b60008260ff16116108f957600080fd5b60006003600085815260200190815260200160002060000160009054906101000a900460ff1660ff1611610962576040517f08c379a00000000000000000000000000000000000000000000000000000000081526004016109599061171e565b60405180910390fd5b61096a610f25565b60405180604001604052808460ff168152602001838152509050806003600086815260200190815260200160002060008201518160000160006101000a81548160ff021916908360ff16021790555060208201518160010190805190602001906109d5929190610f42565b509050507f351e5d0cad7bc76760c9be0a0ed708768225aac9fd434422fb126edd014a42df84604051610a0891906116a3565b60405180910390a150505050565b565b6000806003600084815260200190815260200160002060000160009054906101000a900460ff1660ff16119050919050565b6000600260008373ffffffffffffffffffffffffffffffffffffffff1673ffffffffffffffffffffffffffffffffffffffff16815260200190815260200160002060009054906101000a900460ff169050919050565b610aa86107aa565b610ae7576040517f08c379a0000000000000000000000000000000000000000000000000000000008152600401610ade9061177e565b60405180910390fd5b80600260008473ffffffffffffffffffffffffffffffffffffffff1673ffffffffffffffffffffffffffffffffffffffff16815260200190815260200160002060006101000a81548160ff0219169083151502179055507f4a249455b9cbb17d2537cf8b10b48f47d4a3662fa15715680e3488480c7df20f82604051610b6d919061166d565b60405180910390a15050565b60006001905092915050565b610b8d61066b565b73ffffffffffffffffffffffffffffffffffffffff163373ffffffffffffffffffffffffffffffffffffffff1614610bfa576040517f08c379a0000000000000000000000000000000000000000000000000000000008152600401610bf1906117be565b60405180910390fd5b610c4a85858080601f016020809104026020016040519081016040528093929190818152602001838380828437600081840152601f19601f82011690508083019250505050505050848484610d69565b5050505050565b60006003600083815260200190815260200160002060000160009054906101000a900460ff169050919050565b610c866107aa565b610cc5576040517f08c379a0000000000000000000000000000000000000000000000000000000008152600401610cbc9061177e565b60405180910390fd5b610cce81610d6f565b50565b6000919050565b60006060610cf460405180602001604052806000815250610e9d565b915091509091565b6000600160009054906101000a900473ffffffffffffffffffffffffffffffffffffffff1673ffffffffffffffffffffffffffffffffffffffff163373ffffffffffffffffffffffffffffffffffffffff1614610d5b57339050610d66565b610d63610ead565b90505b90565b50505050565b600073ffffffffffffffffffffffffffffffffffffffff168173ffffffffffffffffffffffffffffffffffffffff161415610ddf576040517f08c379a0000000000000000000000000000000000000000000000000000000008152600401610dd69061173e565b60405180910390fd5b8073ffffffffffffffffffffffffffffffffffffffff166000809054906101000a900473ffffffffffffffffffffffffffffffffffffffff1673ffffffffffffffffffffffffffffffffffffffff167f8be0079c531659141344cd1fd0a4f28419497f9722a3daafe3b4186f6b6457e060405160405180910390a3806000806101000a81548173ffffffffffffffffffffffffffffffffffffffff021916908373ffffffffffffffffffffffffffffffffffffffff16021790555050565b6000606060008391509150915091565b600060606000368080601f016020809104026020016040519081016040528093929190818152602001838380828437600081840152601f19601f820116905080830192505050505050509050600080369050905073ffffffffffffffffffffffffffffffffffffffff81830151169250829250505090565b6040518060400160405280600060ff168152602001606081525090565b828054600181600116156101000203166002900490600052602060002090601f016020900481019282601f10610f8357805160ff1916838001178555610fb1565b82800160010185558215610fb1579182015b82811115610fb0578251825591602001919060010190610f95565b5b509050610fbe9190610fc2565b5090565b610fe491905b80821115610fe0576000816000905550600101610fc8565b5090565b90565b600081359050610ff68161196c565b92915050565b60008135905061100b81611983565b92915050565b6000813590506110208161199a565b92915050565b60008083601f84011261103857600080fd5b8235905067ffffffffffffffff81111561105157600080fd5b60208301915083600182028301111561106957600080fd5b9250929050565b600082601f83011261108157600080fd5b813561109461108f82611856565b611829565b915080825260208301602083018583830111156110b057600080fd5b6110bb838284611919565b50505092915050565b6000813590506110d3816119b1565b92915050565b6000813590506110e8816119c8565b92915050565b60006020828403121561110057600080fd5b600061110e84828501610fe7565b91505092915050565b60008060008060008060008060008060006101208c8e03121561113957600080fd5b60006111478e828f01610fe7565b9b505060206111588e828f01610fe7565b9a505060408c013567ffffffffffffffff81111561117557600080fd5b6111818e828f01611026565b995099505060606111948e828f016110c4565b97505060806111a58e828f016110c4565b96505060a06111b68e828f016110c4565b95505060c06111c78e828f016110c4565b94505060e08c013567ffffffffffffffff8111156111e457600080fd5b6111f08e828f01611026565b93509350506101006112048e828f016110c4565b9150509295989b509295989b9093969950565b6000806040838503121561122a57600080fd5b600061123885828601610fe7565b925050602061124985828601610ffc565b9150509250929050565b60006020828403121561126557600080fd5b600061127384828501611011565b91505092915050565b6000806040838503121561128f57600080fd5b600061129d85828601611011565b92505060206112ae85828601611011565b9150509250929050565b6000806000606084860312156112cd57600080fd5b60006112db86828701611011565b93505060206112ec868287016110d9565b925050604084013567ffffffffffffffff81111561130957600080fd5b61131586828701611070565b9150509250925092565b6000806020838503121561133257600080fd5b600083013567ffffffffffffffff81111561134c57600080fd5b61135885828601611026565b92509250509250929050565b60008060008060006080868803121561137c57600080fd5b600086013567ffffffffffffffff81111561139657600080fd5b6113a288828901611026565b955095505060206113b588828901610ffc565b93505060406113c6888289016110c4565b92505060606113d788828901611011565b9150509295509295909350565b6113ed816118ba565b82525050565b6113fc816118cc565b82525050565b61140b816118d8565b82525050565b600061141c82611882565b6114268185611898565b9350611436818560208601611928565b61143f8161195b565b840191505092915050565b60006114558261188d565b61145f81856118a9565b935061146f818560208601611928565b6114788161195b565b840191505092915050565b60006114906016836118a9565b91507f4974656d20697320616c72656164792073746f726564000000000000000000006000830152602082019050919050565b60006114d06026836118a9565b91507f4f776e61626c653a206e6577206f776e657220697320746865207a65726f206160008301527f64647265737300000000000000000000000000000000000000000000000000006020830152604082019050919050565b6000611536601f836118a9565b91507f546869732077616c6c657420646f6573206e6f742061636365707420457468006000830152602082019050919050565b60006115766020836118a9565b91507f4f776e61626c653a2063616c6c6572206973206e6f7420746865206f776e65726000830152602082019050919050565b60006115b66016836118a9565b91507f4163636f756e74206e6f742072656769737465726564000000000000000000006000830152602082019050919050565b60006115f66024836118a9565b91507f47534e526563697069656e743a2063616c6c6572206973206e6f742052656c6160008301527f79487562000000000000000000000000000000000000000000000000000000006020830152604082019050919050565b61165881611902565b82525050565b6116678161190c565b82525050565b600060208201905061168260008301846113e4565b92915050565b600060208201905061169d60008301846113f3565b92915050565b60006020820190506116b86000830184611402565b92915050565b60006060820190506116d36000830186611402565b6116e0602083018561165e565b81810360408301526116f2818461144a565b9050949350505050565b60006020820190508181036000830152611716818461144a565b905092915050565b6000602082019050818103600083015261173781611483565b9050919050565b60006020820190508181036000830152611757816114c3565b9050919050565b6000602082019050818103600083015261177781611529565b9050919050565b6000602082019050818103600083015261179781611569565b9050919050565b600060208201905081810360008301526117b7816115a9565b9050919050565b600060208201905081810360008301526117d7816115e9565b9050919050565b60006040820190506117f3600083018561164f565b81810360208301526118058184611411565b90509392505050565b6000602082019050611823600083018461165e565b92915050565b6000604051905081810181811067ffffffffffffffff8211171561184c57600080fd5b8060405250919050565b600067ffffffffffffffff82111561186d57600080fd5b601f19601f8301169050602081019050919050565b600081519050919050565b600081519050919050565b600082825260208201905092915050565b600082825260208201905092915050565b60006118c5826118e2565b9050919050565b60008115159050919050565b6000819050919050565b600073ffffffffffffffffffffffffffffffffffffffff82169050919050565b6000819050919050565b600060ff82169050919050565b82818337600083830152505050565b60005b8381101561194657808201518184015260208101905061192b565b83811115611955576000848401525b50505050565b6000601f19601f8301169050919050565b611975816118ba565b811461198057600080fd5b50565b61198c816118cc565b811461199757600080fd5b50565b6119a3816118d8565b81146119ae57600080fd5b50565b6119ba81611902565b81146119c557600080fd5b50565b6119d18161190c565b81146119dc57600080fd5b5056fea365627a7a723158205681092834d1c6f5986043337a2b58842deaa33923fdda56c91600e2622e21e86c6578706572696d656e74616cf564736f6c63430005100040",
  "source": "//update to 0.6.x when supporting tools are out of beta\npragma solidity ^0.5.16;\npragma experimental ABIEncoderV2;\n\nimport \"@openzeppelin/contracts/ownership/Ownable.sol\";\nimport \"@openzeppelin/contracts/GSN/GSNRecipient.sol\";\nimport \"@openzeppelin/contracts/cryptography/ECDSA.sol\";\n\ncontract Registry is Ownable, GSNRecipient {\n\n    mapping(address => bool) registered;\n    event updatedRegistry(address);\n\n    function isRegistered(address _addr) public view returns (bool) {\n        return registered[_addr];\n    }\n\n    function updateRegistry(address _addr, bool _active) public onlyOwner {\n        registered[_addr] = _active;\n        emit updatedRegistry(_addr);\n    }\n}\n\ncontract Notary is Registry {\n\n    enum itemTypes {Invalid, Exists, EthereumSig, BitcoinSig, Password, Other}\n\n    struct Item {\n        uint8 itemType;\n        string url; // for ipfs means takign an extra slot by including tyoe in path or have it implied externally\n    }\n\n    mapping(bytes32 => Item) items;\n\n    event addedItem(bytes32 itemHash);\n\n    constructor() public {}\n\n   function () external payable {\n        revert('This wallet does not accept Eth');\n    }\n\n    function storeItem(bytes32 _itemHash, uint8 _itemType, string memory _link)\n    public\n    {\n        require(isRegistered(_msgSender()), \"Account not registered\");\n        require(_itemType > 0);\n        require((items[_itemHash].itemType > 0), \"Item is already stored\");\n\n        Item memory item = Item(_itemType, _link);\n        items[_itemHash] = item;\n        emit addedItem(_itemHash);\n    }\n\n    function getItem(bytes32 hash)\n    public\n    returns\n    (bytes32 itemHash, uint8 itemType, string memory _link)\n    {\n        return (0x0, 1, 'foo');\n       // return ([])?? how do we return multiple types\n    }\n\n    function isItem(bytes32 _itemHash)\n    public\n    returns\n    (bool)\n    {\n        return (items[_itemHash].itemType > 0);\n    }\n\n    function getItemType(bytes32 _itemHash)\n    public\n    returns\n    (uint8)\n    {\n        return items[_itemHash].itemType;\n    }\n\n    function getItemLink(bytes32 _itemHash)\n    public\n    returns\n    (string memory link)\n    {\n        return items[_itemHash].url;\n    }\n\n    function isCreator(bytes32 _itemHash, bytes32 _signatory)\n    public\n    returns\n    (bool)\n    {\n        // @todo has proof... then can allow to do other things\n        return true;\n    }\n\n    /**\n     * Only applicable if use is the owner...\n     *\n     */\n    function tradeThisItem(/*erc721 contract address*/)\n    public\n    {\n        // make tradable... add to erc721 contract\n        // either item could be....\n        // think about independent rolling this out\n        // if the user is validated as an ethereum user\n        // allow the proof of their private key to launch this\n        // as an erc721 token.\n    }\n\n    function acceptRelayedCall(\n    address relay,\n    address from,\n    bytes calldata encodedFunction,\n    uint256 transactionFee,\n    uint256 gasPrice,\n    uint256 gasLimit,\n    uint256 nonce,\n    bytes calldata approvalData,\n    uint256 maxPossibleCharge\n    ) external view returns (uint256, bytes memory) {\n        //@todo require is registered\n    return _approveRelayedCall();\n    }\n\n// May use these later _preRelayedCall and _postRelayedCall empty\nfunction _preRelayedCall(bytes memory context) internal returns (bytes32) {\n}\n\nfunction _postRelayedCall(bytes memory context, bool, uint256 actualCharge, bytes32) internal {\n}\n\n}\n\n//    function testRelay() public returns (bool)\n//    {\n//        emit relayWorks(1);\n//        return true;\n//    }\n\n\n\n\n\n    // @todo create signing and verification, need another input\n    // @todo think about how this can be extended to account for\n    // @todo things like legal contracts..\n    /*\n\nsign(keccak256(\"\\x19Ethereum Signed Message:\\n\" + len(message) + message)))\n\n\n\n    function VerifyStoredSecret(bytes32 hash, bytes32 proof)\n        internal\n    {\n\n    }\n\n//    function relayStoreHashAndLink(bytes32 hash, string link) public {\n//    require(isRegistered(_msgSender()), \"Account not registered\");\n//    require(!_exists[hash], \"Hash already recorded\");\n//    require(!_existsWithProof[hash], \"Has with proof already exists\");\n//    // _recordCount = _recordCount + 1; // is there any point recording this\n//    // @todo make past tense\n//    _exists[hash] = true;\n//\n//    // create a new object in memory\n//    emit SignedAndNotarised(hash);\n//    }\n\n    function proveSignature(bytes32 hash, bytes32 thingToProve)\n    public\n    constant\n    {\n\n    }\n\n\n    // actually should be using\n\n\n\n//    function recoverSigner(bytes32 message, bytes sig)\n//    internal\n//    pure\n//    returns (address)\n//    {\n//        uint8 v;\n//        bytes32 r;\n//        bytes32 s;\n//\n//        (v, r, s) = splitSignature(sig);\n//\n//        return ecrecover(message, v, r, s);\n//    }\n\n//    function proveEthSig(){};\n//    function proveBtcSig(){};\n    //@todo add pluggable verification mechanism\n\n//    function stamp(string ownerEmail, string sha) payable costs(_price) {\n//        require(!isRecorded(sha));\n//\n//        Record memory rec = Record(ownerEmail, now);\n//        _records[sha] = rec;\n//        _recordCount = _recordCount + 1;\n//    }\n\n//    function isRecorded(bytes32 sha) public view returns (bool) {\n//       return bytes(_records[sha].id).length != 0;\n//        // or sha3(myVariable) != sha3(\"\")\n//\n//        return (!emptyString(_records[sha].id));\n//    }\n\n    function emptyString(string memory item) public pure returns (bool) {\n        return bytes(item).length == 0;\n    }\n\n    function getRecord(bytes32 _hash) public view returns (bytes32 hash, string memory id, uint8 idType) {\n        return  (_hash, _records[_hash].id, _records[_hash].idType);\n    }\n\n\n    // how do we setup for dev accepting relay call...\n    // on deploy transfer money to contract\n    // allow for draining of contract\n    // add conditons to our contract\n\n    function acceptRelayedCall(\n        address relay,\n        address from,\n        bytes calldata encodedFunction,\n        uint256 transactionFee,\n        uint256 gasPrice,\n        uint256 gasLimit,\n        uint256 nonce,\n        bytes calldata approvalData,\n        uint256 maxPossibleCharge\n    ) external view returns (uint256, bytes memory) {\n\n        // is from, from the relayer or the user?\n        //require(isRegistered(_msgSender()), \"Account not registered\");\n        // we have to be a bit more strict about who can use this\n        // keep gas low\n\n        return _approveRelayedCall();\n    }\n\n    // May use these later _preRelayedCall and _postRelayedCall empty\n    function _preRelayedCall(bytes memory context) internal returns (bytes32) {\n    }\n\n    function _postRelayedCall(bytes memory context, bool, uint256 actualCharge, bytes32) internal {\n    }\n\n//    function compareStrings (string memory a, string memory b) public view\n//    returns (bool) {\n//        return (keccak256(abi.encodePacked((a))) == keccak256(abi.encodePacked((b))) );\n//\n//    }\n\n//    function lookup(bytes32 sha) public view returns(bytes32, uint) {\n//        Record memory rec = _records[sha];\n//        return (rec.email, rec.timeStamp);\n//    }\n\n//    function ecrecovery(bytes32 hash, bytes memory sig) public view returns (address) {\n//        bytes32 r;\n//        bytes32 s;\n//        uint8 v;\n//\n//        if (sig.length != 65) {\n//            return address(0x0);\n//        }\n//\n//        assembly {\n//            r := mload(add(sig, 32))\n//            s := mload(add(sig, 64))\n//            v := and(mload(add(sig, 65)), 255)\n//        }\n//\n//        // https://github.com/ethereum/go-ethereum/issues/2053\n//        if (v < 27) {\n//            v += 27;\n//        }\n//\n//        if (v != 27 && v != 28) {\n//            return address(0x0);\n//        }\n//\n//        return ecrecover(hash, v, r, s);\n//    }\n//\n//    function ecverify(bytes32 hash, bytes memory sig, address signer) public view returns (bool) {\n//        return signer == ecrecovery(hash, sig);\n//    }\n\n//    function updatePrice(uint newPrice) public ownerOnly {\n//        _price = newPrice;\n//    }\n}\n\n\n/*\n\npragma solidity ^0.4.4;\n\nimport './Ownable.sol';\n\ncontract Notary is Ownable {\n  mapping (bytes32 => address) public records;\n  mapping (bytes32 => uint256) public timestamps;\n\n  event LogNotarized(bytes32 indexed record, address indexed notarizer, uint256 timestamp);\n\n  function notarize(bytes32 record) external {\n    bytes32 hash = keccak256(record);\n    require(hash != keccak256(\"\"));\n    require(records[hash] == address(0));\n    require(timestamps[hash] == 0);\n    records[hash] = msg.sender;\n    timestamps[hash] = block.timestamp;\n\n    LogNotarized(hash, msg.sender, block.timestamp);\n  }\n\n  function exists(bytes32 record) constant returns (bool) {\n    bytes32 hash = keccak256(record);\n    return records[hash] != address(0);\n  }\n\n  function getNotarizer(bytes32 record) constant returns (address) {\n    return records[keccak256(record)];\n  }\n\n  function getTimestamp(bytes32 record) constant returns (uint256) {\n    return timestamps[keccak256(record)];\n  }\n\n  function didNotarize(bytes32 record) constant returns (bool) {\n    return records[keccak256(record)] == msg.sender;\n  }\n\n  function isNotarizer(bytes32 record, address notarizer) constant returns (bool) {\n    return records[keccak256(record)] == notarizer;\n  }\n\n  function ecrecovery(bytes32 hash, bytes sig) public constant returns (address) {\n    bytes32 r;\n    bytes32 s;\n    uint8 v;\n\n    if (sig.length != 65) {\n      return 0;\n    }\n\n    assembly {\n      r := mload(add(sig, 32))\n      s := mload(add(sig, 64))\n      v := and(mload(add(sig, 65)), 255)\n    }\n\n    // https://github.com/ethereum/go-ethereum/issues/2053\n    if (v < 27) {\n      v += 27;\n    }\n\n    if (v != 27 && v != 28) {\n      return 0;\n    }\n\n    return ecrecover(hash, v, r, s);\n  }\n\n  function ecverify(bytes32 hash, bytes sig, address signer) public constant returns (bool) {\n    return signer == ecrecovery(hash, sig);\n  }\n}\n\n\n\n\n\n\n\n\n*/\n",
  "sourcePath": "/Users/x/Documents/webs/notariseMe/contracts/contracts/ItemNotary.sol",
  "compiler": {
    "name": "solc",
    "version": "0.5.16+commit.9c3226ce.Emscripten.clang"
  },
  "schemaVersion": "3.0.23",
  "updatedAt": "2020-03-04T10:17:31.784Z",
  "devdoc": {
    "methods": {
      "getHubAddr()": {
        "details": "Returns the address of the {IRelayHub} contract for this recipient."
      },
      "isOwner()": {
        "details": "Returns true if the caller is the current owner."
      },
      "owner()": {
        "details": "Returns the address of the current owner."
      },
      "postRelayedCall(bytes,bool,uint256,bytes32)": {
        "details": "See `IRelayRecipient.postRelayedCall`.     * This function should not be overriden directly, use `_postRelayedCall` instead.     * * Requirements:     * - the caller must be the `RelayHub` contract."
      },
      "preRelayedCall(bytes)": {
        "details": "See `IRelayRecipient.preRelayedCall`.     * This function should not be overriden directly, use `_preRelayedCall` instead.     * * Requirements:     * - the caller must be the `RelayHub` contract."
      },
      "relayHubVersion()": {
        "details": "Returns the version string of the {IRelayHub} for which this recipient implementation was built. If {_upgradeRelayHub} is used, the new {IRelayHub} instance should be compatible with this version."
      },
      "renounceOwnership()": {
        "details": "Leaves the contract without owner. It will not be possible to call `onlyOwner` functions anymore. Can only be called by the current owner.     * NOTE: Renouncing ownership will leave the contract without an owner, thereby removing any functionality that is only available to the owner."
      },
      "transferOwnership(address)": {
        "details": "Transfers ownership of the contract to a new account (`newOwner`). Can only be called by the current owner."
      }
    }
  },
  "userdoc": {
    "methods": {
      "tradeThisItem()": {
        "notice": "Only applicable if use is the owner...     "
      }
    }
  }
}