{
  "contractName": "Notary",
  "abi": [
    {
      "inputs": [],
      "payable": false,
      "stateMutability": "nonpayable",
      "type": "constructor"
    },
    {
      "anonymous": false,
      "inputs": [
        {
          "indexed": false,
          "internalType": "bytes32",
          "name": "hash",
          "type": "bytes32"
        }
      ],
      "name": "Notarise",
      "type": "event"
    },
    {
      "anonymous": false,
      "inputs": [
        {
          "indexed": true,
          "internalType": "address",
          "name": "previousOwner",
          "type": "address"
        },
        {
          "indexed": true,
          "internalType": "address",
          "name": "newOwner",
          "type": "address"
        }
      ],
      "name": "OwnershipTransferred",
      "type": "event"
    },
    {
      "anonymous": false,
      "inputs": [
        {
          "indexed": true,
          "internalType": "address",
          "name": "oldRelayHub",
          "type": "address"
        },
        {
          "indexed": true,
          "internalType": "address",
          "name": "newRelayHub",
          "type": "address"
        }
      ],
      "name": "RelayHubChanged",
      "type": "event"
    },
    {
      "anonymous": false,
      "inputs": [
        {
          "indexed": false,
          "internalType": "uint256",
          "name": "num",
          "type": "uint256"
        }
      ],
      "name": "relayWorks",
      "type": "event"
    },
    {
      "anonymous": false,
      "inputs": [
        {
          "indexed": false,
          "internalType": "address",
          "name": "",
          "type": "address"
        }
      ],
      "name": "updatedRegistry",
      "type": "event"
    },
    {
      "payable": true,
      "stateMutability": "payable",
      "type": "fallback"
    },
    {
      "constant": true,
      "inputs": [],
      "name": "getHubAddr",
      "outputs": [
        {
          "internalType": "address",
          "name": "",
          "type": "address"
        }
      ],
      "payable": false,
      "stateMutability": "view",
      "type": "function"
    },
    {
      "constant": true,
      "inputs": [],
      "name": "isOwner",
      "outputs": [
        {
          "internalType": "bool",
          "name": "",
          "type": "bool"
        }
      ],
      "payable": false,
      "stateMutability": "view",
      "type": "function"
    },
    {
      "constant": true,
      "inputs": [
        {
          "internalType": "address",
          "name": "_addr",
          "type": "address"
        }
      ],
      "name": "isRegistered",
      "outputs": [
        {
          "internalType": "bool",
          "name": "",
          "type": "bool"
        }
      ],
      "payable": false,
      "stateMutability": "view",
      "type": "function"
    },
    {
      "constant": true,
      "inputs": [],
      "name": "owner",
      "outputs": [
        {
          "internalType": "address",
          "name": "",
          "type": "address"
        }
      ],
      "payable": false,
      "stateMutability": "view",
      "type": "function"
    },
    {
      "constant": false,
      "inputs": [
        {
          "internalType": "bytes",
          "name": "context",
          "type": "bytes"
        },
        {
          "internalType": "bool",
          "name": "success",
          "type": "bool"
        },
        {
          "internalType": "uint256",
          "name": "actualCharge",
          "type": "uint256"
        },
        {
          "internalType": "bytes32",
          "name": "preRetVal",
          "type": "bytes32"
        }
      ],
      "name": "postRelayedCall",
      "outputs": [],
      "payable": false,
      "stateMutability": "nonpayable",
      "type": "function"
    },
    {
      "constant": false,
      "inputs": [
        {
          "internalType": "bytes",
          "name": "context",
          "type": "bytes"
        }
      ],
      "name": "preRelayedCall",
      "outputs": [
        {
          "internalType": "bytes32",
          "name": "",
          "type": "bytes32"
        }
      ],
      "payable": false,
      "stateMutability": "nonpayable",
      "type": "function"
    },
    {
      "constant": true,
      "inputs": [],
      "name": "relayHubVersion",
      "outputs": [
        {
          "internalType": "string",
          "name": "",
          "type": "string"
        }
      ],
      "payable": false,
      "stateMutability": "view",
      "type": "function"
    },
    {
      "constant": false,
      "inputs": [],
      "name": "renounceOwnership",
      "outputs": [],
      "payable": false,
      "stateMutability": "nonpayable",
      "type": "function"
    },
    {
      "constant": false,
      "inputs": [
        {
          "internalType": "address",
          "name": "newOwner",
          "type": "address"
        }
      ],
      "name": "transferOwnership",
      "outputs": [],
      "payable": false,
      "stateMutability": "nonpayable",
      "type": "function"
    },
    {
      "constant": false,
      "inputs": [
        {
          "internalType": "address",
          "name": "_addr",
          "type": "address"
        },
        {
          "internalType": "bool",
          "name": "_active",
          "type": "bool"
        }
      ],
      "name": "updateRegistry",
      "outputs": [],
      "payable": false,
      "stateMutability": "nonpayable",
      "type": "function"
    },
    {
      "constant": true,
      "inputs": [],
      "name": "getCount",
      "outputs": [
        {
          "internalType": "uint256",
          "name": "",
          "type": "uint256"
        }
      ],
      "payable": false,
      "stateMutability": "view",
      "type": "function"
    },
    {
      "constant": false,
      "inputs": [
        {
          "internalType": "string",
          "name": "_id",
          "type": "string"
        },
        {
          "internalType": "uint8",
          "name": "_idType",
          "type": "uint8"
        },
        {
          "internalType": "bytes32",
          "name": "hash",
          "type": "bytes32"
        }
      ],
      "name": "notarise",
      "outputs": [],
      "payable": false,
      "stateMutability": "nonpayable",
      "type": "function"
    },
    {
      "constant": false,
      "inputs": [],
      "name": "testRelay",
      "outputs": [
        {
          "internalType": "bool",
          "name": "",
          "type": "bool"
        }
      ],
      "payable": false,
      "stateMutability": "nonpayable",
      "type": "function"
    },
    {
      "constant": false,
      "inputs": [
        {
          "internalType": "string",
          "name": "_id",
          "type": "string"
        },
        {
          "internalType": "uint8",
          "name": "_idType",
          "type": "uint8"
        },
        {
          "internalType": "bytes32",
          "name": "hash",
          "type": "bytes32"
        }
      ],
      "name": "relayNotarise",
      "outputs": [],
      "payable": false,
      "stateMutability": "nonpayable",
      "type": "function"
    },
    {
      "constant": true,
      "inputs": [
        {
          "internalType": "bytes32",
          "name": "sha",
          "type": "bytes32"
        }
      ],
      "name": "isRecorded",
      "outputs": [
        {
          "internalType": "bool",
          "name": "",
          "type": "bool"
        }
      ],
      "payable": false,
      "stateMutability": "view",
      "type": "function"
    },
    {
      "constant": true,
      "inputs": [
        {
          "internalType": "string",
          "name": "item",
          "type": "string"
        }
      ],
      "name": "emptyString",
      "outputs": [
        {
          "internalType": "bool",
          "name": "",
          "type": "bool"
        }
      ],
      "payable": false,
      "stateMutability": "pure",
      "type": "function"
    },
    {
      "constant": true,
      "inputs": [
        {
          "internalType": "bytes32",
          "name": "_hash",
          "type": "bytes32"
        }
      ],
      "name": "getRecord",
      "outputs": [
        {
          "internalType": "bytes32",
          "name": "hash",
          "type": "bytes32"
        },
        {
          "internalType": "string",
          "name": "id",
          "type": "string"
        },
        {
          "internalType": "uint8",
          "name": "idType",
          "type": "uint8"
        }
      ],
      "payable": false,
      "stateMutability": "view",
      "type": "function"
    },
    {
      "constant": true,
      "inputs": [
        {
          "internalType": "address",
          "name": "relay",
          "type": "address"
        },
        {
          "internalType": "address",
          "name": "from",
          "type": "address"
        },
        {
          "internalType": "bytes",
          "name": "encodedFunction",
          "type": "bytes"
        },
        {
          "internalType": "uint256",
          "name": "transactionFee",
          "type": "uint256"
        },
        {
          "internalType": "uint256",
          "name": "gasPrice",
          "type": "uint256"
        },
        {
          "internalType": "uint256",
          "name": "gasLimit",
          "type": "uint256"
        },
        {
          "internalType": "uint256",
          "name": "nonce",
          "type": "uint256"
        },
        {
          "internalType": "bytes",
          "name": "approvalData",
          "type": "bytes"
        },
        {
          "internalType": "uint256",
          "name": "maxPossibleCharge",
          "type": "uint256"
        }
      ],
      "name": "acceptRelayedCall",
      "outputs": [
        {
          "internalType": "uint256",
          "name": "",
          "type": "uint256"
        },
        {
          "internalType": "bytes",
          "name": "",
          "type": "bytes"
        }
      ],
      "payable": false,
      "stateMutability": "view",
      "type": "function"
    }
  ],
  "bytecode": "0x608060405273d216153c06e857cd7f72665e0af1d7d82172f494600160006101000a81548173ffffffffffffffffffffffffffffffffffffffff021916908373ffffffffffffffffffffffffffffffffffffffff16021790555034801561006557600080fd5b5061007461013460201b60201c565b6000806101000a81548173ffffffffffffffffffffffffffffffffffffffff021916908373ffffffffffffffffffffffffffffffffffffffff1602179055506000809054906101000a900473ffffffffffffffffffffffffffffffffffffffff1673ffffffffffffffffffffffffffffffffffffffff16600073ffffffffffffffffffffffffffffffffffffffff167f8be0079c531659141344cd1fd0a4f28419497f9722a3daafe3b4186f6b6457e060405160405180910390a361021f565b6000600160009054906101000a900473ffffffffffffffffffffffffffffffffffffffff1673ffffffffffffffffffffffffffffffffffffffff163373ffffffffffffffffffffffffffffffffffffffff1614610193573390506101a4565b6101a16101a760201b60201c565b90505b90565b600060606000368080601f016020809104026020016040519081016040528093929190818152602001838380828437600081840152601f19601f820116905080830192505050505050509050600080369050905073ffffffffffffffffffffffffffffffffffffffff81830151169250829250505090565b6119f0806200022f6000396000f3fe6080604052600436106101095760003560e01c80638da5cb5b11610095578063b769d5fa11610064578063b769d5fa1461082b578063c3c5a5471461090a578063c5552c7414610973578063e06e0e22146109d0578063f2fde38b14610a7657610109565b80638da5cb5b146106ea5780638f32d59b14610741578063a87d942c14610770578063ad61ccd51461079b57610109565b80636ecf9be8116100dc5780636ecf9be8146103e5578063715018a61461041457806374e861d61461042b57806380274db71461048257806383947ea01461051c57610109565b806312dcb7a01461010b578063213681cd1461015e5780633cb84c6c146102265780634bd368c814610305575b005b34801561011757600080fd5b506101446004803603602081101561012e57600080fd5b8101908080359060200190929190505050610ac7565b604051808215151515815260200191505060405180910390f35b34801561016a57600080fd5b506101976004803603602081101561018157600080fd5b8101908080359060200190929190505050610b29565b60405180848152602001806020018360ff1660ff168152602001828103825284818151815260200191508051906020019080838360005b838110156101e95780820151818401526020810190506101ce565b50505050905090810190601f1680156102165780820380516001836020036101000a031916815260200191505b5094505050505060405180910390f35b34801561023257600080fd5b506103036004803603606081101561024957600080fd5b810190808035906020019064010000000081111561026657600080fd5b82018360208201111561027857600080fd5b8035906020019184600183028401116401000000008311171561029a57600080fd5b91908080601f016020809104026020016040519081016040528093929190818152602001838380828437600081840152601f19601f820116905080830192505050505050509192919290803560ff16906020019092919080359060200190929190505050610c13565b005b34801561031157600080fd5b506103cb6004803603602081101561032857600080fd5b810190808035906020019064010000000081111561034557600080fd5b82018360208201111561035757600080fd5b8035906020019184600183028401116401000000008311171561037957600080fd5b91908080601f016020809104026020016040519081016040528093929190818152602001838380828437600081840152601f19601f820116905080830192505050505050509192919290505050610ec6565b604051808215151515815260200191505060405180910390f35b3480156103f157600080fd5b506103fa610ed3565b604051808215151515815260200191505060405180910390f35b34801561042057600080fd5b50610429610f14565b005b34801561043757600080fd5b5061044061104d565b604051808273ffffffffffffffffffffffffffffffffffffffff1673ffffffffffffffffffffffffffffffffffffffff16815260200191505060405180910390f35b34801561048e57600080fd5b50610506600480360360208110156104a557600080fd5b81019080803590602001906401000000008111156104c257600080fd5b8201836020820111156104d457600080fd5b803590602001918460018302840111640100000000831117156104f657600080fd5b9091929391929390505050611077565b6040518082815260200191505060405180910390f35b34801561052857600080fd5b50610668600480360361012081101561054057600080fd5b81019080803573ffffffffffffffffffffffffffffffffffffffff169060200190929190803573ffffffffffffffffffffffffffffffffffffffff1690602001909291908035906020019064010000000081111561059d57600080fd5b8201836020820111156105af57600080fd5b803590602001918460018302840111640100000000831117156105d157600080fd5b9091929391929390803590602001909291908035906020019092919080359060200190929190803590602001909291908035906020019064010000000081111561061a57600080fd5b82018360208201111561062c57600080fd5b8035906020019184600183028401116401000000008311171561064e57600080fd5b909192939192939080359060200190929190505050611159565b6040518083815260200180602001828103825283818151815260200191508051906020019080838360005b838110156106ae578082015181840152602081019050610693565b50505050905090810190601f1680156106db5780820380516001836020036101000a031916815260200191505b50935050505060405180910390f35b3480156106f657600080fd5b506106ff611179565b604051808273ffffffffffffffffffffffffffffffffffffffff1673ffffffffffffffffffffffffffffffffffffffff16815260200191505060405180910390f35b34801561074d57600080fd5b506107566111a2565b604051808215151515815260200191505060405180910390f35b34801561077c57600080fd5b50610785611200565b6040518082815260200191505060405180910390f35b3480156107a757600080fd5b506107b061120a565b6040518080602001828103825283818151815260200191508051906020019080838360005b838110156107f05780820151818401526020810190506107d5565b50505050905090810190601f16801561081d5780820380516001836020036101000a031916815260200191505b509250505060405180910390f35b34801561083757600080fd5b506109086004803603606081101561084e57600080fd5b810190808035906020019064010000000081111561086b57600080fd5b82018360208201111561087d57600080fd5b8035906020019184600183028401116401000000008311171561089f57600080fd5b91908080601f016020809104026020016040519081016040528093929190818152602001838380828437600081840152601f19601f820116905080830192505050505050509192919290803560ff16906020019092919080359060200190929190505050611247565b005b34801561091657600080fd5b506109596004803603602081101561092d57600080fd5b81019080803573ffffffffffffffffffffffffffffffffffffffff16906020019092919050505061134f565b604051808215151515815260200191505060405180910390f35b34801561097f57600080fd5b506109ce6004803603604081101561099657600080fd5b81019080803573ffffffffffffffffffffffffffffffffffffffff1690602001909291908035151590602001909291905050506113a5565b005b3480156109dc57600080fd5b50610a74600480360360808110156109f357600080fd5b8101908080359060200190640100000000811115610a1057600080fd5b820183602082011115610a2257600080fd5b80359060200191846001830284011164010000000083111715610a4457600080fd5b909192939192939080351515906020019092919080359060200190929190803590602001909291905050506114dd565b005b348015610a8257600080fd5b50610ac560048036036020811015610a9957600080fd5b81019080803573ffffffffffffffffffffffffffffffffffffffff1690602001909291905050506115bf565b005b6000806003600084815260200190815260200160002060000180546001816001161561010002031660029004905014159050610b24565b815481529060010190602001808311610afe57829003601f168201915050505050610ec6565b919050565b60006060600083600360008681526020019081526020016000206000016003600087815260200190815260200160002060010160009054906101000a900460ff16818054600181600116156101000203166002900480601f016020809104026020016040519081016040528092919081815260200182805460018160011615610100020316600290048015610bff5780601f10610bd457610100808354040283529160200191610bff565b820191906000526020600020905b815481529060010190602001808311610be257829003601f168201915b505050505091509250925092509193909250565b610c1c83610ec6565b15610c8f576040517f08c379a000000000000000000000000000000000000000000000000000000000815260040180806020018281038252600b8152602001807f496420697320656d70747900000000000000000000000000000000000000000081525060200191505060405180910390fd5b6000801b811415610d08576040517f08c379a00000000000000000000000000000000000000000000000000000000081526004018080602001828103825260168152602001807f50726f7669646564206861736820697320656d7074790000000000000000000081525060200191505060405180910390fd5b610d18610d13611645565b61134f565b610d8a576040517f08c379a00000000000000000000000000000000000000000000000000000000081526004018080602001828103825260168152602001807f4163636f756e74206e6f7420726567697374657265640000000000000000000081525060200191505060405180910390fd5b610d9381610ac7565b15610e06576040517f08c379a00000000000000000000000000000000000000000000000000000000081526004018080602001828103825260158152602001807f4861736820616c7265616479207265636f72646564000000000000000000000081525060200191505060405180910390fd5b610e0e6118af565b60405180604001604052808581526020018460ff16815250905080600360008481526020019081526020016000206000820151816000019080519060200190610e589291906118cc565b5060208201518160010160006101000a81548160ff021916908360ff1602179055509050506001600454016004819055507f35983fe11458a3a89e173189b95d610445d86b5a1a11a3c87faf08c7f6c463da826040518082815260200191505060405180910390a150505050565b6000808251149050919050565b60007f7bb3a2fb2c2592872b4704ba5282ff4e036f5ffd42999fc83da680228b7ea5c460016040518082815260200191505060405180910390a16001905090565b610f1c6111a2565b610f8e576040517f08c379a00000000000000000000000000000000000000000000000000000000081526004018080602001828103825260208152602001807f4f776e61626c653a2063616c6c6572206973206e6f7420746865206f776e657281525060200191505060405180910390fd5b600073ffffffffffffffffffffffffffffffffffffffff166000809054906101000a900473ffffffffffffffffffffffffffffffffffffffff1673ffffffffffffffffffffffffffffffffffffffff167f8be0079c531659141344cd1fd0a4f28419497f9722a3daafe3b4186f6b6457e060405160405180910390a360008060006101000a81548173ffffffffffffffffffffffffffffffffffffffff021916908373ffffffffffffffffffffffffffffffffffffffff160217905550565b6000600160009054906101000a900473ffffffffffffffffffffffffffffffffffffffff16905090565b600061108161104d565b73ffffffffffffffffffffffffffffffffffffffff163373ffffffffffffffffffffffffffffffffffffffff1614611104576040517f08c379a00000000000000000000000000000000000000000000000000000000081526004018080602001828103825260248152602001806119986024913960400191505060405180910390fd5b61115183838080601f016020809104026020016040519081016040528093929190818152602001838380828437600081840152601f19601f820116905080830192505050505050506116b2565b905092915050565b600060606111656116b9565b915091509b509b9950505050505050505050565b60008060009054906101000a900473ffffffffffffffffffffffffffffffffffffffff16905090565b60008060009054906101000a900473ffffffffffffffffffffffffffffffffffffffff1673ffffffffffffffffffffffffffffffffffffffff166111e4611645565b73ffffffffffffffffffffffffffffffffffffffff1614905090565b6000600454905090565b60606040518060400160405280600581526020017f312e302e30000000000000000000000000000000000000000000000000000000815250905090565b61125083610ec6565b1561125a57600080fd5b6000801b81141561126a57600080fd5b6112733361134f565b61127c57600080fd5b61128581610ac7565b1561128f57600080fd5b6112976118af565b60405180604001604052808581526020018460ff168152509050806003600084815260200190815260200160002060008201518160000190805190602001906112e19291906118cc565b5060208201518160010160006101000a81548160ff021916908360ff1602179055509050506001600454016004819055507f35983fe11458a3a89e173189b95d610445d86b5a1a11a3c87faf08c7f6c463da826040518082815260200191505060405180910390a150505050565b6000600260008373ffffffffffffffffffffffffffffffffffffffff1673ffffffffffffffffffffffffffffffffffffffff16815260200190815260200160002060009054906101000a900460ff169050919050565b6113ad6111a2565b61141f576040517f08c379a00000000000000000000000000000000000000000000000000000000081526004018080602001828103825260208152602001807f4f776e61626c653a2063616c6c6572206973206e6f7420746865206f776e657281525060200191505060405180910390fd5b80600260008473ffffffffffffffffffffffffffffffffffffffff1673ffffffffffffffffffffffffffffffffffffffff16815260200190815260200160002060006101000a81548160ff0219169083151502179055507f4a249455b9cbb17d2537cf8b10b48f47d4a3662fa15715680e3488480c7df20f82604051808273ffffffffffffffffffffffffffffffffffffffff1673ffffffffffffffffffffffffffffffffffffffff16815260200191505060405180910390a15050565b6114e561104d565b73ffffffffffffffffffffffffffffffffffffffff163373ffffffffffffffffffffffffffffffffffffffff1614611568576040517f08c379a00000000000000000000000000000000000000000000000000000000081526004018080602001828103825260248152602001806119986024913960400191505060405180910390fd5b6115b885858080601f016020809104026020016040519081016040528093929190818152602001838380828437600081840152601f19601f820116905080830192505050505050508484846116dd565b5050505050565b6115c76111a2565b611639576040517f08c379a00000000000000000000000000000000000000000000000000000000081526004018080602001828103825260208152602001807f4f776e61626c653a2063616c6c6572206973206e6f7420746865206f776e657281525060200191505060405180910390fd5b611642816116e3565b50565b6000600160009054906101000a900473ffffffffffffffffffffffffffffffffffffffff1673ffffffffffffffffffffffffffffffffffffffff163373ffffffffffffffffffffffffffffffffffffffff16146116a4573390506116af565b6116ac611827565b90505b90565b6000919050565b600060606116d56040518060200160405280600081525061189f565b915091509091565b50505050565b600073ffffffffffffffffffffffffffffffffffffffff168173ffffffffffffffffffffffffffffffffffffffff161415611769576040517f08c379a00000000000000000000000000000000000000000000000000000000081526004018080602001828103825260268152602001806119726026913960400191505060405180910390fd5b8073ffffffffffffffffffffffffffffffffffffffff166000809054906101000a900473ffffffffffffffffffffffffffffffffffffffff1673ffffffffffffffffffffffffffffffffffffffff167f8be0079c531659141344cd1fd0a4f28419497f9722a3daafe3b4186f6b6457e060405160405180910390a3806000806101000a81548173ffffffffffffffffffffffffffffffffffffffff021916908373ffffffffffffffffffffffffffffffffffffffff16021790555050565b600060606000368080601f016020809104026020016040519081016040528093929190818152602001838380828437600081840152601f19601f820116905080830192505050505050509050600080369050905073ffffffffffffffffffffffffffffffffffffffff81830151169250829250505090565b6000606060008391509150915091565b604051806040016040528060608152602001600060ff1681525090565b828054600181600116156101000203166002900490600052602060002090601f016020900481019282601f1061190d57805160ff191683800117855561193b565b8280016001018555821561193b579182015b8281111561193a57825182559160200191906001019061191f565b5b509050611948919061194c565b5090565b61196e91905b8082111561196a576000816000905550600101611952565b5090565b9056fe4f776e61626c653a206e6577206f776e657220697320746865207a65726f206164647265737347534e526563697069656e743a2063616c6c6572206973206e6f742052656c6179487562a265627a7a72315820027d5875f8ad83dc424b3800456363752bbe2e44c88c972570f9c79b480ec09264736f6c63430005100032",
  "source": "//update to 0.6.x when supporting tools are out of beta\npragma solidity ^0.5.16;\n\nimport \"@openzeppelin/contracts/ownership/Ownable.sol\";\nimport \"@openzeppelin/contracts/GSN/GSNRecipient.sol\";\n\n\ncontract Registry is Ownable, GSNRecipient {\n\n    mapping(address => bool) registered;\n    event updatedRegistry(address);\n\n    function isRegistered(address _addr) public view returns (bool) {\n        return registered[_addr];\n    }\n\n    function updateRegistry(address _addr, bool _active) public onlyOwner {\n        registered[_addr] = _active;\n        emit updatedRegistry(_addr);\n    }\n}\n\ncontract Notary is Registry {\n    // enum IDTypes { Private, IPFS, Email, ENS, EthAddress, BTCAddress, Other }\n\n    // 0 email\n    // 1 Private\n    // 2 IPFS\n    // 3 Ethereum address\n    // 4 Other\n    // 5 ...\n\n    struct Record {\n        string id; // this may refer to anything... local db, ipfs.... there can only be one... cannot be changed\n        uint8 idType; // fire an event instead of a timestamp\n    }\n\n    mapping(bytes32 => Record) _records;\n\n    uint _recordCount; // auto 0\n\n    event Notarise(bytes32 hash/*, bytes32 id*/);\n    event relayWorks(uint num);\n\n  //  function DocStamp(uint initialPrice) {\n    constructor() public {\n//        _price = initialPrice;\n       // _recordCount = 0; // is it not 0 amyway!?\n    }\n\n    // What is this supposed to be in 5.x 6.x\n    // allow for loading funds for paying GSN\n   function () external payable {\n\n   }\n\n    //@todo function withdraw\n    //@todo user tokens\n\n    function getCount() public view returns (uint) {\n        return _recordCount;\n    }\n\n    // make this private\n    function notarise(string memory _id, uint8 _idType, bytes32 hash) public {\n\n        require(!emptyString(_id));\n        require(hash != 0);\n        require(isRegistered(msg.sender));\n        require(!isRecorded(hash));\n\n        Record memory rec = Record(_id, _idType);\n        _records[hash] = rec;\n        _recordCount = _recordCount + 1;\n\n        // hmmmm not sure about this duplication\n        emit Notarise(hash); // hmmm, we could just put it here and avoid storing on-chain in another way..._id type /\n        // could these be made tradeable\n    }\n\n\n\n    function testRelay() public returns (bool) {\n        emit relayWorks(1);\n        return true;\n    }\n\n    // now we\n    function relayNotarise(string memory _id, uint8 _idType, bytes32 hash) public {\n        require(!emptyString(_id), \"Id is empty\");\n        require(hash != 0, \"Provided hash is empty\");\n        require(isRegistered(_msgSender()), \"Account not registered\");\n        require(!isRecorded(hash), \"Hash already recorded\");\n\n        Record memory rec = Record(_id, _idType);\n        _records[hash] = rec;\n        _recordCount = _recordCount + 1;\n\n        emit Notarise(hash);\n    }\n\n//    function stamp(string ownerEmail, string sha) payable costs(_price) {\n//        require(!isRecorded(sha));\n//\n//        Record memory rec = Record(ownerEmail, now);\n//        _records[sha] = rec;\n//        _recordCount = _recordCount + 1;\n//    }\n\n    function isRecorded(bytes32 sha) public view returns (bool) {\n       return bytes(_records[sha].id).length != 0;\n        // or sha3(myVariable) != sha3(\"\")\n\n        return (!emptyString(_records[sha].id));\n    }\n\n    function emptyString(string memory item) public pure returns (bool) {\n        return bytes(item).length == 0;\n    }\n\n    function getRecord(bytes32 _hash) public view returns (bytes32 hash, string memory id, uint8 idType) {\n        return  (_hash, _records[_hash].id, _records[_hash].idType);\n    }\n\n\n    // how do we setup for dev accepting relay call...\n    // on deploy transfer money to contract\n    // allow for draining of contract\n    // add conditons to our contract\n\n    function acceptRelayedCall(\n        address relay,\n        address from,\n        bytes calldata encodedFunction,\n        uint256 transactionFee,\n        uint256 gasPrice,\n        uint256 gasLimit,\n        uint256 nonce,\n        bytes calldata approvalData,\n        uint256 maxPossibleCharge\n    ) external view returns (uint256, bytes memory) {\n        return _approveRelayedCall();\n    }\n\n    // May use these later _preRelayedCall and _postRelayedCall empty\n    function _preRelayedCall(bytes memory context) internal returns (bytes32) {\n    }\n\n    function _postRelayedCall(bytes memory context, bool, uint256 actualCharge, bytes32) internal {\n    }\n\n//    function compareStrings (string memory a, string memory b) public view\n//    returns (bool) {\n//        return (keccak256(abi.encodePacked((a))) == keccak256(abi.encodePacked((b))) );\n//\n//    }\n\n//    function lookup(bytes32 sha) public view returns(bytes32, uint) {\n//        Record memory rec = _records[sha];\n//        return (rec.email, rec.timeStamp);\n//    }\n\n//    function ecrecovery(bytes32 hash, bytes memory sig) public view returns (address) {\n//        bytes32 r;\n//        bytes32 s;\n//        uint8 v;\n//\n//        if (sig.length != 65) {\n//            return address(0x0);\n//        }\n//\n//        assembly {\n//            r := mload(add(sig, 32))\n//            s := mload(add(sig, 64))\n//            v := and(mload(add(sig, 65)), 255)\n//        }\n//\n//        // https://github.com/ethereum/go-ethereum/issues/2053\n//        if (v < 27) {\n//            v += 27;\n//        }\n//\n//        if (v != 27 && v != 28) {\n//            return address(0x0);\n//        }\n//\n//        return ecrecover(hash, v, r, s);\n//    }\n//\n//    function ecverify(bytes32 hash, bytes memory sig, address signer) public view returns (bool) {\n//        return signer == ecrecovery(hash, sig);\n//    }\n\n//    function updatePrice(uint newPrice) public ownerOnly {\n//        _price = newPrice;\n//    }\n}\n\n\n/*\n\npragma solidity ^0.4.4;\n\nimport './Ownable.sol';\n\ncontract Notary is Ownable {\n  mapping (bytes32 => address) public records;\n  mapping (bytes32 => uint256) public timestamps;\n\n  event LogNotarized(bytes32 indexed record, address indexed notarizer, uint256 timestamp);\n\n  function notarize(bytes32 record) external {\n    bytes32 hash = keccak256(record);\n    require(hash != keccak256(\"\"));\n    require(records[hash] == address(0));\n    require(timestamps[hash] == 0);\n    records[hash] = msg.sender;\n    timestamps[hash] = block.timestamp;\n\n    LogNotarized(hash, msg.sender, block.timestamp);\n  }\n\n  function exists(bytes32 record) constant returns (bool) {\n    bytes32 hash = keccak256(record);\n    return records[hash] != address(0);\n  }\n\n  function getNotarizer(bytes32 record) constant returns (address) {\n    return records[keccak256(record)];\n  }\n\n  function getTimestamp(bytes32 record) constant returns (uint256) {\n    return timestamps[keccak256(record)];\n  }\n\n  function didNotarize(bytes32 record) constant returns (bool) {\n    return records[keccak256(record)] == msg.sender;\n  }\n\n  function isNotarizer(bytes32 record, address notarizer) constant returns (bool) {\n    return records[keccak256(record)] == notarizer;\n  }\n\n  function ecrecovery(bytes32 hash, bytes sig) public constant returns (address) {\n    bytes32 r;\n    bytes32 s;\n    uint8 v;\n\n    if (sig.length != 65) {\n      return 0;\n    }\n\n    assembly {\n      r := mload(add(sig, 32))\n      s := mload(add(sig, 64))\n      v := and(mload(add(sig, 65)), 255)\n    }\n\n    // https://github.com/ethereum/go-ethereum/issues/2053\n    if (v < 27) {\n      v += 27;\n    }\n\n    if (v != 27 && v != 28) {\n      return 0;\n    }\n\n    return ecrecover(hash, v, r, s);\n  }\n\n  function ecverify(bytes32 hash, bytes sig, address signer) public constant returns (bool) {\n    return signer == ecrecovery(hash, sig);\n  }\n}\n\n\n\n\n\n\n\n\n*/",
  "sourcePath": "/Users/x/Documents/webs/notariseMe/contracts/contracts/Notary.sol",
  "compiler": {
    "name": "solc",
    "version": "0.5.16+commit.9c3226ce.Emscripten.clang"
  },
  "schemaVersion": "3.0.23",
  "updatedAt": "2020-02-13T12:17:02.546Z",
  "networkType": "ethereum",
  "devdoc": {
    "methods": {
      "getHubAddr()": {
        "details": "Returns the address of the {IRelayHub} contract for this recipient."
      },
      "isOwner()": {
        "details": "Returns true if the caller is the current owner."
      },
      "owner()": {
        "details": "Returns the address of the current owner."
      },
      "postRelayedCall(bytes,bool,uint256,bytes32)": {
        "details": "See `IRelayRecipient.postRelayedCall`.     * This function should not be overriden directly, use `_postRelayedCall` instead.     * * Requirements:     * - the caller must be the `RelayHub` contract."
      },
      "preRelayedCall(bytes)": {
        "details": "See `IRelayRecipient.preRelayedCall`.     * This function should not be overriden directly, use `_preRelayedCall` instead.     * * Requirements:     * - the caller must be the `RelayHub` contract."
      },
      "relayHubVersion()": {
        "details": "Returns the version string of the {IRelayHub} for which this recipient implementation was built. If {_upgradeRelayHub} is used, the new {IRelayHub} instance should be compatible with this version."
      },
      "renounceOwnership()": {
        "details": "Leaves the contract without owner. It will not be possible to call `onlyOwner` functions anymore. Can only be called by the current owner.     * NOTE: Renouncing ownership will leave the contract without an owner, thereby removing any functionality that is only available to the owner."
      },
      "transferOwnership(address)": {
        "details": "Transfers ownership of the contract to a new account (`newOwner`). Can only be called by the current owner."
      }
    }
  },
  "userdoc": {
    "methods": {}
  }
}