{
  "contractName": "Registry",
  "abi": [
    {
      "anonymous": false,
      "inputs": [
        {
          "indexed": true,
          "internalType": "address",
          "name": "previousOwner",
          "type": "address"
        },
        {
          "indexed": true,
          "internalType": "address",
          "name": "newOwner",
          "type": "address"
        }
      ],
      "name": "OwnershipTransferred",
      "type": "event"
    },
    {
      "anonymous": false,
      "inputs": [],
      "name": "updatedRegistry",
      "type": "event"
    },
    {
      "constant": true,
      "inputs": [],
      "name": "isOwner",
      "outputs": [
        {
          "internalType": "bool",
          "name": "",
          "type": "bool"
        }
      ],
      "payable": false,
      "stateMutability": "view",
      "type": "function"
    },
    {
      "constant": true,
      "inputs": [],
      "name": "owner",
      "outputs": [
        {
          "internalType": "address",
          "name": "",
          "type": "address"
        }
      ],
      "payable": false,
      "stateMutability": "view",
      "type": "function"
    },
    {
      "constant": false,
      "inputs": [],
      "name": "renounceOwnership",
      "outputs": [],
      "payable": false,
      "stateMutability": "nonpayable",
      "type": "function"
    },
    {
      "constant": false,
      "inputs": [
        {
          "internalType": "address",
          "name": "newOwner",
          "type": "address"
        }
      ],
      "name": "transferOwnership",
      "outputs": [],
      "payable": false,
      "stateMutability": "nonpayable",
      "type": "function"
    },
    {
      "constant": true,
      "inputs": [
        {
          "internalType": "address",
          "name": "_addr",
          "type": "address"
        }
      ],
      "name": "isRegistered",
      "outputs": [
        {
          "internalType": "bool",
          "name": "",
          "type": "bool"
        }
      ],
      "payable": false,
      "stateMutability": "view",
      "type": "function"
    },
    {
      "constant": false,
      "inputs": [
        {
          "internalType": "address",
          "name": "_addr",
          "type": "address"
        },
        {
          "internalType": "bool",
          "name": "_active",
          "type": "bool"
        }
      ],
      "name": "updateRegistry",
      "outputs": [],
      "payable": false,
      "stateMutability": "nonpayable",
      "type": "function"
    }
  ],
  "bytecode": "0x60806040526100126100d260201b60201c565b6000806101000a81548173ffffffffffffffffffffffffffffffffffffffff021916908373ffffffffffffffffffffffffffffffffffffffff1602179055506000809054906101000a900473ffffffffffffffffffffffffffffffffffffffff1673ffffffffffffffffffffffffffffffffffffffff16600073ffffffffffffffffffffffffffffffffffffffff167f8be0079c531659141344cd1fd0a4f28419497f9722a3daafe3b4186f6b6457e060405160405180910390a36100da565b600033905090565b610711806100e96000396000f3fe608060405234801561001057600080fd5b50600436106100625760003560e01c8063715018a6146100675780638da5cb5b146100715780638f32d59b146100bb578063c3c5a547146100dd578063c5552c7414610139578063f2fde38b14610189575b600080fd5b61006f6101cd565b005b610079610306565b604051808273ffffffffffffffffffffffffffffffffffffffff1673ffffffffffffffffffffffffffffffffffffffff16815260200191505060405180910390f35b6100c361032f565b604051808215151515815260200191505060405180910390f35b61011f600480360360208110156100f357600080fd5b81019080803573ffffffffffffffffffffffffffffffffffffffff16906020019092919050505061038d565b604051808215151515815260200191505060405180910390f35b6101876004803603604081101561014f57600080fd5b81019080803573ffffffffffffffffffffffffffffffffffffffff1690602001909291908035151590602001909291905050506103e3565b005b6101cb6004803603602081101561019f57600080fd5b81019080803573ffffffffffffffffffffffffffffffffffffffff1690602001909291905050506104e4565b005b6101d561032f565b610247576040517f08c379a00000000000000000000000000000000000000000000000000000000081526004018080602001828103825260208152602001807f4f776e61626c653a2063616c6c6572206973206e6f7420746865206f776e657281525060200191505060405180910390fd5b600073ffffffffffffffffffffffffffffffffffffffff166000809054906101000a900473ffffffffffffffffffffffffffffffffffffffff1673ffffffffffffffffffffffffffffffffffffffff167f8be0079c531659141344cd1fd0a4f28419497f9722a3daafe3b4186f6b6457e060405160405180910390a360008060006101000a81548173ffffffffffffffffffffffffffffffffffffffff021916908373ffffffffffffffffffffffffffffffffffffffff160217905550565b60008060009054906101000a900473ffffffffffffffffffffffffffffffffffffffff16905090565b60008060009054906101000a900473ffffffffffffffffffffffffffffffffffffffff1673ffffffffffffffffffffffffffffffffffffffff1661037161056a565b73ffffffffffffffffffffffffffffffffffffffff1614905090565b6000600160008373ffffffffffffffffffffffffffffffffffffffff1673ffffffffffffffffffffffffffffffffffffffff16815260200190815260200160002060009054906101000a900460ff169050919050565b6103eb61032f565b61045d576040517f08c379a00000000000000000000000000000000000000000000000000000000081526004018080602001828103825260208152602001807f4f776e61626c653a2063616c6c6572206973206e6f7420746865206f776e657281525060200191505060405180910390fd5b80600160008473ffffffffffffffffffffffffffffffffffffffff1673ffffffffffffffffffffffffffffffffffffffff16815260200190815260200160002060006101000a81548160ff0219169083151502179055507fa85f323b90e9e51e0684b581f7b4600d7e8036947e51d2b3a2fe3fab7c65e97c60405160405180910390a15050565b6104ec61032f565b61055e576040517f08c379a00000000000000000000000000000000000000000000000000000000081526004018080602001828103825260208152602001807f4f776e61626c653a2063616c6c6572206973206e6f7420746865206f776e657281525060200191505060405180910390fd5b61056781610572565b50565b600033905090565b600073ffffffffffffffffffffffffffffffffffffffff168173ffffffffffffffffffffffffffffffffffffffff1614156105f8576040517f08c379a00000000000000000000000000000000000000000000000000000000081526004018080602001828103825260268152602001806106b76026913960400191505060405180910390fd5b8073ffffffffffffffffffffffffffffffffffffffff166000809054906101000a900473ffffffffffffffffffffffffffffffffffffffff1673ffffffffffffffffffffffffffffffffffffffff167f8be0079c531659141344cd1fd0a4f28419497f9722a3daafe3b4186f6b6457e060405160405180910390a3806000806101000a81548173ffffffffffffffffffffffffffffffffffffffff021916908373ffffffffffffffffffffffffffffffffffffffff1602179055505056fe4f776e61626c653a206e6577206f776e657220697320746865207a65726f2061646472657373a265627a7a72315820a6d0e5fa980fdc45da15f980f0f7e677de7c9102f52452543607e2b7e4839d9864736f6c63430005100032",
  "source": "//0.5.16\npragma solidity ^0.5.16;\n\n\n//@todo either here or in separate contract... Only accept signed messages...\n// That we we never have to risk what happens to the key... It does not manage any funds...\n//import \"@openzeppelin/contracts/token/ERC721/ERC721Full.sol\";\nimport \"@openzeppelin/contracts/ownership/Ownable.sol\";\n//^import owned from here\n\n\n//\n//import './Owned.sol';\n//import './Priced.sol';\n// add a registry\n// anyone can use directly if they pay\n// anyone can use directly if they are registered\n// add a simple registry\n\n\n// could just move this right in... it's going ot be pretty simple\ncontract Registry is Ownable {\n\n    mapping(address => bool) registered;\n    event updatedRegistry();\n\n    // statoc\n    function isRegistered(address _addr) public view returns (bool) {\n        return registered[_addr];\n    }\n\n    // proxy owner\n    function updateRegistry(address _addr, bool _active) public onlyOwner {\n        registered[_addr] = _active;\n        emit updatedRegistry();\n        // do we have to copy the whole object in for this to work?\n    } // this should probably belong to the proxy...\n}\n\ncontract Notary is Registry {\n\n    // not sure about this list... Should all data be kept in a separate contract\n    // and this make upgradeable\n\n    // no point in restricting it...this\n    //\n    // enum IDTypes { Private, IPFS, Email, ENS, EthAddress, BTCAddress, Other }\n    // can just put in comments rather than enforce...\n    // leave up to others..\n\n    // 0 email\n    // 1 Private\n    // 2 IPFS\n    // 3 Ethereum address\n    // 4 Other\n    // 5 ...\n\n    // consider making bytes32 a string\n    struct Record {\n        bytes32 id; // this may refer to anything... local db, ipfs.... there can only be one... cannot be changed\n        uint8 idType; // fire an event instead of a timestamp\n    }\n\n    // sha256 => Record\n    mapping(bytes32 => Record) _records;\n//    uint _price;\n    uint _recordCount; // auto 0\n\n    // do we even need this... could we just emit it as an event!!!!\n    event Notarise(bytes32 hash/*, bytes32 id*/);\n\n  //  function DocStamp(uint initialPrice) {\n    constructor() public {\n//        _price = initialPrice;\n       // _recordCount = 0; // is it not 0 amyway!?\n    }\n\n    // Thanks for the donation\n    // make not payable reject\n//    function () payable {\n//    }\n\n//    function drain() ownerOnly {\n//        _owner.transfer(this.balance);\n//    }\n\n//    function getPrice() constant returns (uint price) {\n//        price = _price;\n//    }\n\n    function getCount() public view returns (uint) {\n        return _recordCount;\n    }\n\n    // are string fixed in solidity now!!!??\n    //function stampDirect(string ownerEmail, string sha) {\n    // sign types\n\n\n    // make this private\n    function notarise(bytes32 _id, uint8 _idType, bytes32 hash) public {\n        // check this will apply to proxy\n        require(isRegistered(msg.sender));\n        require(!isRecorded(hash));\n\n        Record memory rec = Record(_id, _idType);\n        _records[hash] = rec;\n        _recordCount = _recordCount + 1;\n\n        // hmmmm not sure about this duplication\n        emit Notarise(hash); // hmmm, we could just put it here and avoid storing on-chain in another way..._id type /\n        // could these be made tradeable\n    }\n\n//    function stamp(string ownerEmail, string sha) payable costs(_price) {\n//        require(!isRecorded(sha));\n//\n//        Record memory rec = Record(ownerEmail, now);\n//        _records[sha] = rec;\n//        _recordCount = _recordCount + 1;\n//    }\n\n    function isRecorded(bytes32 sha) public view returns (bool) {\n        return true;\n        //@todo !!!\n        //bool(_records[sha]);\n    }\n\n//    function lookup(bytes32 sha) public view returns(bytes32, uint) {\n//        Record memory rec = _records[sha];\n//        return (rec.email, rec.timeStamp);\n//    }\n\n    // only accept incoming messages from a proxy account...\n    // the proxy account exists on registrysolidity\n    // so... the contract that contains this is the one...this\n    // how do we request something to sign...\n    // do we need to simulate a thing to sign\n\n\n    function ecrecovery(bytes32 hash, bytes memory sig) public view returns (address) {\n        bytes32 r;\n        bytes32 s;\n        uint8 v;\n\n        if (sig.length != 65) {\n            return address(0x0);\n        }\n\n        assembly {\n            r := mload(add(sig, 32))\n            s := mload(add(sig, 64))\n            v := and(mload(add(sig, 65)), 255)\n        }\n\n        // https://github.com/ethereum/go-ethereum/issues/2053\n        if (v < 27) {\n            v += 27;\n        }\n\n        if (v != 27 && v != 28) {\n            return address(0x0);\n        }\n\n        return ecrecover(hash, v, r, s);\n    }\n\n    function ecverify(bytes32 hash, bytes memory sig, address signer) public view returns (bool) {\n        return signer == ecrecovery(hash, sig);\n    }\n\n//    function updatePrice(uint newPrice) public ownerOnly {\n//        _price = newPrice;\n//    }\n}\n\n\n/*\n\npragma solidity ^0.4.4;\n\nimport './Ownable.sol';\n\ncontract Notary is Ownable {\n  mapping (bytes32 => address) public records;\n  mapping (bytes32 => uint256) public timestamps;\n\n  event LogNotarized(bytes32 indexed record, address indexed notarizer, uint256 timestamp);\n\n  function notarize(bytes32 record) external {\n    bytes32 hash = keccak256(record);\n    require(hash != keccak256(\"\"));\n    require(records[hash] == address(0));\n    require(timestamps[hash] == 0);\n    records[hash] = msg.sender;\n    timestamps[hash] = block.timestamp;\n\n    LogNotarized(hash, msg.sender, block.timestamp);\n  }\n\n  function exists(bytes32 record) constant returns (bool) {\n    bytes32 hash = keccak256(record);\n    return records[hash] != address(0);\n  }\n\n  function getNotarizer(bytes32 record) constant returns (address) {\n    return records[keccak256(record)];\n  }\n\n  function getTimestamp(bytes32 record) constant returns (uint256) {\n    return timestamps[keccak256(record)];\n  }\n\n  function didNotarize(bytes32 record) constant returns (bool) {\n    return records[keccak256(record)] == msg.sender;\n  }\n\n  function isNotarizer(bytes32 record, address notarizer) constant returns (bool) {\n    return records[keccak256(record)] == notarizer;\n  }\n\n  function ecrecovery(bytes32 hash, bytes sig) public constant returns (address) {\n    bytes32 r;\n    bytes32 s;\n    uint8 v;\n\n    if (sig.length != 65) {\n      return 0;\n    }\n\n    assembly {\n      r := mload(add(sig, 32))\n      s := mload(add(sig, 64))\n      v := and(mload(add(sig, 65)), 255)\n    }\n\n    // https://github.com/ethereum/go-ethereum/issues/2053\n    if (v < 27) {\n      v += 27;\n    }\n\n    if (v != 27 && v != 28) {\n      return 0;\n    }\n\n    return ecrecover(hash, v, r, s);\n  }\n\n  function ecverify(bytes32 hash, bytes sig, address signer) public constant returns (bool) {\n    return signer == ecrecovery(hash, sig);\n  }\n}\n\n\n\n\n\n\n\n\n*/",
  "sourcePath": "/Users/x/Documents/webs/notariseMe/contracts/contracts/Notary.sol",
  "compiler": {
    "name": "solc",
    "version": "0.5.16+commit.9c3226ce.Emscripten.clang"
  },
  "schemaVersion": "3.0.23",
  "updatedAt": "2020-02-05T09:51:39.648Z",
  "devdoc": {
    "methods": {
      "isOwner()": {
        "details": "Returns true if the caller is the current owner."
      },
      "owner()": {
        "details": "Returns the address of the current owner."
      },
      "renounceOwnership()": {
        "details": "Leaves the contract without owner. It will not be possible to call `onlyOwner` functions anymore. Can only be called by the current owner.     * NOTE: Renouncing ownership will leave the contract without an owner, thereby removing any functionality that is only available to the owner."
      },
      "transferOwnership(address)": {
        "details": "Transfers ownership of the contract to a new account (`newOwner`). Can only be called by the current owner."
      }
    }
  },
  "userdoc": {
    "methods": {}
  }
}